{
  "contractName": "DAO",
  "abi": [
    {
      "inputs": [],
      "name": "voteAlreadyEnded",
      "type": "error"
    },
    {
      "inputs": [],
      "name": "voteNotYetEnded",
      "type": "error"
    },
    {
      "anonymous": false,
      "inputs": [
        {
          "indexed": true,
          "internalType": "address",
          "name": "owner",
          "type": "address"
        },
        {
          "indexed": true,
          "internalType": "address",
          "name": "spender",
          "type": "address"
        },
        {
          "indexed": false,
          "internalType": "uint256",
          "name": "value",
          "type": "uint256"
        }
      ],
      "name": "Approval",
      "type": "event"
    },
    {
      "anonymous": false,
      "inputs": [
        {
          "indexed": false,
          "internalType": "address",
          "name": "account",
          "type": "address"
        },
        {
          "indexed": false,
          "internalType": "uint256",
          "name": "shares",
          "type": "uint256"
        }
      ],
      "name": "PayeeAdded",
      "type": "event"
    },
    {
      "anonymous": false,
      "inputs": [
        {
          "indexed": false,
          "internalType": "address",
          "name": "from",
          "type": "address"
        },
        {
          "indexed": false,
          "internalType": "uint256",
          "name": "amount",
          "type": "uint256"
        }
      ],
      "name": "PaymentReceived",
      "type": "event"
    },
    {
      "anonymous": false,
      "inputs": [
        {
          "indexed": false,
          "internalType": "address",
          "name": "to",
          "type": "address"
        },
        {
          "indexed": false,
          "internalType": "uint256",
          "name": "amount",
          "type": "uint256"
        }
      ],
      "name": "PaymentReleased",
      "type": "event"
    },
    {
      "anonymous": false,
      "inputs": [
        {
          "indexed": true,
          "internalType": "address",
          "name": "from",
          "type": "address"
        },
        {
          "indexed": true,
          "internalType": "address",
          "name": "to",
          "type": "address"
        },
        {
          "indexed": false,
          "internalType": "uint256",
          "name": "value",
          "type": "uint256"
        }
      ],
      "name": "Transfer",
      "type": "event"
    },
    {
      "inputs": [
        {
          "internalType": "address",
          "name": "",
          "type": "address"
        },
        {
          "internalType": "address",
          "name": "",
          "type": "address"
        }
      ],
      "name": "_allowances",
      "outputs": [
        {
          "internalType": "uint256",
          "name": "",
          "type": "uint256"
        }
      ],
      "stateMutability": "view",
      "type": "function"
    },
    {
      "inputs": [
        {
          "internalType": "address",
          "name": "",
          "type": "address"
        }
      ],
      "name": "_balances",
      "outputs": [
        {
          "internalType": "uint256",
          "name": "",
          "type": "uint256"
        }
      ],
      "stateMutability": "view",
      "type": "function"
    },
    {
      "inputs": [],
      "name": "_fee",
      "outputs": [
        {
          "internalType": "uint256",
          "name": "",
          "type": "uint256"
        }
      ],
      "stateMutability": "view",
      "type": "function"
    },
    {
      "inputs": [
        {
          "internalType": "uint256",
          "name": "",
          "type": "uint256"
        }
      ],
      "name": "_payees",
      "outputs": [
        {
          "internalType": "address",
          "name": "",
          "type": "address"
        }
      ],
      "stateMutability": "view",
      "type": "function"
    },
    {
      "inputs": [
        {
          "internalType": "address",
          "name": "",
          "type": "address"
        }
      ],
      "name": "_released",
      "outputs": [
        {
          "internalType": "uint256",
          "name": "",
          "type": "uint256"
        }
      ],
      "stateMutability": "view",
      "type": "function"
    },
    {
      "inputs": [],
      "name": "_totalReleased",
      "outputs": [
        {
          "internalType": "uint256",
          "name": "",
          "type": "uint256"
        }
      ],
      "stateMutability": "view",
      "type": "function"
    },
    {
      "inputs": [],
      "name": "_totalSupply",
      "outputs": [
        {
          "internalType": "uint256",
          "name": "",
          "type": "uint256"
        }
      ],
      "stateMutability": "view",
      "type": "function"
    },
    {
      "inputs": [],
      "name": "_totalUserReleased",
      "outputs": [
        {
          "internalType": "uint256",
          "name": "",
          "type": "uint256"
        }
      ],
      "stateMutability": "view",
      "type": "function"
    },
    {
      "inputs": [
        {
          "internalType": "address",
          "name": "owner",
          "type": "address"
        },
        {
          "internalType": "address",
          "name": "spender",
          "type": "address"
        }
      ],
      "name": "allowance",
      "outputs": [
        {
          "internalType": "uint256",
          "name": "",
          "type": "uint256"
        }
      ],
      "stateMutability": "view",
      "type": "function"
    },
    {
      "inputs": [
        {
          "internalType": "address",
          "name": "spender",
          "type": "address"
        },
        {
          "internalType": "uint256",
          "name": "amount",
          "type": "uint256"
        }
      ],
      "name": "approve",
      "outputs": [
        {
          "internalType": "bool",
          "name": "",
          "type": "bool"
        }
      ],
      "stateMutability": "nonpayable",
      "type": "function"
    },
    {
      "inputs": [
        {
          "internalType": "address",
          "name": "account",
          "type": "address"
        }
      ],
      "name": "balanceOf",
      "outputs": [
        {
          "internalType": "uint256",
          "name": "",
          "type": "uint256"
        }
      ],
      "stateMutability": "view",
      "type": "function"
    },
    {
      "inputs": [],
      "name": "contractDonation",
      "outputs": [],
      "stateMutability": "payable",
      "type": "function"
    },
    {
      "inputs": [],
      "name": "decimals",
      "outputs": [
        {
          "internalType": "uint8",
          "name": "",
          "type": "uint8"
        }
      ],
      "stateMutability": "view",
      "type": "function"
    },
    {
      "inputs": [
        {
          "internalType": "address",
          "name": "spender",
          "type": "address"
        },
        {
          "internalType": "uint256",
          "name": "subtractedValue",
          "type": "uint256"
        }
      ],
      "name": "decreaseAllowance",
      "outputs": [
        {
          "internalType": "bool",
          "name": "",
          "type": "bool"
        }
      ],
      "stateMutability": "nonpayable",
      "type": "function"
    },
    {
      "inputs": [],
      "name": "dividend",
      "outputs": [
        {
          "internalType": "uint256",
          "name": "",
          "type": "uint256"
        }
      ],
      "stateMutability": "view",
      "type": "function"
    },
    {
      "inputs": [],
      "name": "getBalance",
      "outputs": [
        {
          "internalType": "uint256",
          "name": "",
          "type": "uint256"
        }
      ],
      "stateMutability": "view",
      "type": "function"
    },
    {
      "inputs": [
        {
          "internalType": "address",
          "name": "account",
          "type": "address"
        }
      ],
      "name": "getUserBalance",
      "outputs": [
        {
          "internalType": "uint256",
          "name": "",
          "type": "uint256"
        }
      ],
      "stateMutability": "view",
      "type": "function"
    },
    {
      "inputs": [],
      "name": "getfee",
      "outputs": [
        {
          "internalType": "uint256",
          "name": "",
          "type": "uint256"
        }
      ],
      "stateMutability": "view",
      "type": "function"
    },
    {
      "inputs": [
        {
          "internalType": "address",
          "name": "spender",
          "type": "address"
        },
        {
          "internalType": "uint256",
          "name": "addedValue",
          "type": "uint256"
        }
      ],
      "name": "increaseAllowance",
      "outputs": [
        {
          "internalType": "bool",
          "name": "",
          "type": "bool"
        }
      ],
      "stateMutability": "nonpayable",
      "type": "function"
    },
    {
      "inputs": [],
      "name": "name",
      "outputs": [
        {
          "internalType": "string",
          "name": "",
          "type": "string"
        }
      ],
      "stateMutability": "view",
      "type": "function"
    },
    {
      "inputs": [],
      "name": "owner",
      "outputs": [
        {
          "internalType": "address",
          "name": "",
          "type": "address"
        }
      ],
      "stateMutability": "view",
      "type": "function"
    },
    {
      "inputs": [
        {
          "internalType": "uint256",
          "name": "index",
          "type": "uint256"
        }
      ],
      "name": "payee",
      "outputs": [
        {
          "internalType": "address",
          "name": "",
          "type": "address"
        }
      ],
      "stateMutability": "view",
      "type": "function"
    },
    {
      "inputs": [
        {
          "internalType": "uint256",
          "name": "",
          "type": "uint256"
        }
      ],
      "name": "proposals",
      "outputs": [
        {
          "internalType": "uint256",
          "name": "fee",
          "type": "uint256"
        },
        {
          "internalType": "uint256",
          "name": "voteCount",
          "type": "uint256"
        }
      ],
      "stateMutability": "view",
      "type": "function"
    },
    {
      "inputs": [],
      "name": "quorum",
      "outputs": [
        {
          "internalType": "uint256",
          "name": "",
          "type": "uint256"
        }
      ],
      "stateMutability": "view",
      "type": "function"
    },
    {
      "inputs": [
        {
          "internalType": "address payable",
          "name": "account",
          "type": "address"
        }
      ],
      "name": "release",
      "outputs": [],
      "stateMutability": "nonpayable",
      "type": "function"
    },
    {
      "inputs": [
        {
          "internalType": "address",
          "name": "account",
          "type": "address"
        }
      ],
      "name": "released",
      "outputs": [
        {
          "internalType": "uint256",
          "name": "",
          "type": "uint256"
        }
      ],
      "stateMutability": "view",
      "type": "function"
    },
    {
      "inputs": [
        {
          "internalType": "address",
          "name": "account",
          "type": "address"
        }
      ],
      "name": "releasedinit",
      "outputs": [
        {
          "internalType": "uint256",
          "name": "",
          "type": "uint256"
        }
      ],
      "stateMutability": "nonpayable",
      "type": "function"
    },
    {
      "inputs": [
        {
          "internalType": "address",
          "name": "account",
          "type": "address"
        }
      ],
      "name": "shares",
      "outputs": [
        {
          "internalType": "uint256",
          "name": "",
          "type": "uint256"
        }
      ],
      "stateMutability": "view",
      "type": "function"
    },
    {
      "inputs": [],
      "name": "symbol",
      "outputs": [
        {
          "internalType": "string",
          "name": "",
          "type": "string"
        }
      ],
      "stateMutability": "view",
      "type": "function"
    },
    {
      "inputs": [],
      "name": "totalReleased",
      "outputs": [
        {
          "internalType": "uint256",
          "name": "",
          "type": "uint256"
        }
      ],
      "stateMutability": "view",
      "type": "function"
    },
    {
      "inputs": [],
      "name": "totalSupply",
      "outputs": [
        {
          "internalType": "uint256",
          "name": "",
          "type": "uint256"
        }
      ],
      "stateMutability": "view",
      "type": "function"
    },
    {
      "inputs": [],
      "name": "totalUserReleased",
      "outputs": [
        {
          "internalType": "uint256",
          "name": "",
          "type": "uint256"
        }
      ],
      "stateMutability": "nonpayable",
      "type": "function"
    },
    {
      "inputs": [
        {
          "internalType": "address",
          "name": "recipient",
          "type": "address"
        }
      ],
      "name": "transfer",
      "outputs": [],
      "stateMutability": "payable",
      "type": "function"
    },
    {
      "inputs": [
        {
          "internalType": "address",
          "name": "recipient",
          "type": "address"
        },
        {
          "internalType": "uint256",
          "name": "amount",
          "type": "uint256"
        }
      ],
      "name": "transfer",
      "outputs": [
        {
          "internalType": "bool",
          "name": "",
          "type": "bool"
        }
      ],
      "stateMutability": "nonpayable",
      "type": "function"
    },
    {
      "inputs": [
        {
          "internalType": "address",
          "name": "sender",
          "type": "address"
        },
        {
          "internalType": "address",
          "name": "recipient",
          "type": "address"
        },
        {
          "internalType": "uint256",
          "name": "amount",
          "type": "uint256"
        }
      ],
      "name": "transferFrom",
      "outputs": [
        {
          "internalType": "bool",
          "name": "",
          "type": "bool"
        }
      ],
      "stateMutability": "nonpayable",
      "type": "function"
    },
    {
      "inputs": [
        {
          "internalType": "uint256",
          "name": "fee",
          "type": "uint256"
        }
      ],
      "name": "updateFee",
      "outputs": [],
      "stateMutability": "nonpayable",
      "type": "function"
    },
    {
      "inputs": [
        {
          "internalType": "address payable",
          "name": "account",
          "type": "address"
        }
      ],
      "name": "userRelease",
      "outputs": [],
      "stateMutability": "nonpayable",
      "type": "function"
    },
    {
      "inputs": [],
      "name": "voteEndTime",
      "outputs": [
        {
          "internalType": "uint256",
          "name": "",
          "type": "uint256"
        }
      ],
      "stateMutability": "view",
      "type": "function"
    },
    {
      "inputs": [
        {
          "internalType": "uint256",
          "name": "",
          "type": "uint256"
        }
      ],
      "name": "voterAddress",
      "outputs": [
        {
          "internalType": "address",
          "name": "",
          "type": "address"
        }
      ],
      "stateMutability": "view",
      "type": "function"
    },
    {
      "inputs": [
        {
          "internalType": "address",
          "name": "",
          "type": "address"
        }
      ],
      "name": "voters",
      "outputs": [
        {
          "internalType": "uint256",
          "name": "weight",
          "type": "uint256"
        },
        {
          "internalType": "bool",
          "name": "voted",
          "type": "bool"
        },
        {
          "internalType": "address",
          "name": "delegate",
          "type": "address"
        },
        {
          "internalType": "uint256",
          "name": "vote",
          "type": "uint256"
        }
      ],
      "stateMutability": "view",
      "type": "function"
    },
    {
      "stateMutability": "payable",
      "type": "receive"
    },
    {
      "inputs": [
        {
          "internalType": "uint256[]",
          "name": "proposalNames",
          "type": "uint256[]"
        }
      ],
      "name": "createProposal",
      "outputs": [],
      "stateMutability": "payable",
      "type": "function"
    },
    {
      "inputs": [
        {
          "internalType": "uint256",
          "name": "proposal",
          "type": "uint256"
        }
      ],
      "name": "vote",
      "outputs": [],
      "stateMutability": "nonpayable",
      "type": "function"
    },
    {
      "inputs": [],
      "name": "countVote",
      "outputs": [
        {
          "internalType": "uint256",
          "name": "winningProposal_",
          "type": "uint256"
        }
      ],
      "stateMutability": "view",
      "type": "function"
    },
    {
      "inputs": [],
      "name": "EndVote",
      "outputs": [],
      "stateMutability": "nonpayable",
      "type": "function"
    }
  ],
  "bytecode": "0x60806040526040518060400160405280600981526020017f44414f20746f6b656e0000000000000000000000000000000000000000000000815250600890805190602001906200005192919062000667565b506040518060400160405280600481526020017f7844414f00000000000000000000000000000000000000000000000000000000815250600990805190602001906200009f92919062000667565b506b033b2e3c9fd0803ce8000000600a556040518060200160405280735b38da6a701c568545dcfcb03fcb875f56beddc473ffffffffffffffffffffffffffffffffffffffff1673ffffffffffffffffffffffffffffffffffffffff16815250600b90600162000111929190620006f8565b5060405180602001604052806b033b2e3c9fd0803ce80000006bffffffffffffffffffffffff16815250600c9060016200014d92919062000787565b50600560105533601160006101000a81548173ffffffffffffffffffffffffffffffffffffffff021916908373ffffffffffffffffffffffffffffffffffffffff1602179055506a52b7d2dcc80cd2e40000006014556014601955348015620001b557600080fd5b5060086003908054620001c890620008cf565b620001d5929190620007e9565b5060096004908054620001e890620008cf565b620001f5929190620007e9565b506200020a33600a546200034660201b60201c565b600c80549050600b805490501462000259576040517f08c379a000000000000000000000000000000000000000000000000000000000815260040162000250906200098c565b60405180910390fd5b6000600b8054905011620002a4576040517f08c379a00000000000000000000000000000000000000000000000000000000081526004016200029b90620009fe565b60405180910390fd5b60005b600b805490508110156200033f5762000329600b8281548110620002d057620002cf62000a20565b5b9060005260206000200160009054906101000a900473ffffffffffffffffffffffffffffffffffffffff16600c838154811062000312576200031162000a20565b5b9060005260206000200154620004bf60201b60201c565b8080620003369062000a88565b915050620002a7565b5062000d4f565b600073ffffffffffffffffffffffffffffffffffffffff168273ffffffffffffffffffffffffffffffffffffffff161415620003b9576040517f08c379a0000000000000000000000000000000000000000000000000000000008152600401620003b09062000b26565b60405180910390fd5b620003cd600083836200065d60201b60201c565b8060026000828254620003e1919062000b48565b92505081905550806000808473ffffffffffffffffffffffffffffffffffffffff1673ffffffffffffffffffffffffffffffffffffffff168152602001908152602001600020600082825462000438919062000b48565b925050819055508173ffffffffffffffffffffffffffffffffffffffff16600073ffffffffffffffffffffffffffffffffffffffff167fddf252ad1be2c89b69c2b068fc378daa952ba7f163c4a11628f55a4df523b3ef836040516200049f919062000bb6565b60405180910390a3620004bb600083836200066260201b60201c565b5050565b600073ffffffffffffffffffffffffffffffffffffffff168273ffffffffffffffffffffffffffffffffffffffff16141562000532576040517f08c379a0000000000000000000000000000000000000000000000000000000008152600401620005299062000c49565b60405180910390fd5b6000811162000578576040517f08c379a00000000000000000000000000000000000000000000000000000000081526004016200056f9062000cbb565b60405180910390fd5b6007829080600181540180825580915050600190039060005260206000200160009091909190916101000a81548173ffffffffffffffffffffffffffffffffffffffff021916908373ffffffffffffffffffffffffffffffffffffffff160217905550806000808473ffffffffffffffffffffffffffffffffffffffff1673ffffffffffffffffffffffffffffffffffffffff168152602001908152602001600020819055507f40c340f65e17194d14ddddb073d3c9f888e3cb52b5aae0c6c7706b4fbc905fac82826040516200065192919062000d22565b60405180910390a15050565b505050565b505050565b8280546200067590620008cf565b90600052602060002090601f016020900481019282620006995760008555620006e5565b82601f10620006b457805160ff1916838001178555620006e5565b82800160010185558215620006e5579182015b82811115620006e4578251825591602001919060010190620006c7565b5b509050620006f4919062000881565b5090565b82805482825590600052602060002090810192821562000774579160200282015b82811115620007735782518260006101000a81548173ffffffffffffffffffffffffffffffffffffffff021916908373ffffffffffffffffffffffffffffffffffffffff1602179055509160200191906001019062000719565b5b50905062000783919062000881565b5090565b828054828255906000526020600020908101928215620007d6579160200282015b82811115620007d557825182906bffffffffffffffffffffffff16905591602001919060010190620007a8565b5b509050620007e5919062000881565b5090565b828054620007f790620008cf565b90600052602060002090601f0160209004810192826200081b57600085556200086e565b82601f106200082e57805485556200086e565b828001600101855582156200086e57600052602060002091601f016020900482015b828111156200086d57825482559160010191906001019062000850565b5b5090506200087d919062000881565b5090565b5b808211156200089c57600081600090555060010162000882565b5090565b7f4e487b7100000000000000000000000000000000000000000000000000000000600052602260045260246000fd5b60006002820490506001821680620008e857607f821691505b60208210811415620008ff57620008fe620008a0565b5b50919050565b600082825260208201905092915050565b7f5061796d656e7453706c69747465723a2070617965657320616e64207368617260008201527f6573206c656e677468206d69736d617463680000000000000000000000000000602082015250565b60006200097460328362000905565b9150620009818262000916565b604082019050919050565b60006020820190508181036000830152620009a78162000965565b9050919050565b7f5061796d656e7453706c69747465723a206e6f20706179656573000000000000600082015250565b6000620009e6601a8362000905565b9150620009f382620009ae565b602082019050919050565b6000602082019050818103600083015262000a1981620009d7565b9050919050565b7f4e487b7100000000000000000000000000000000000000000000000000000000600052603260045260246000fd5b7f4e487b7100000000000000000000000000000000000000000000000000000000600052601160045260246000fd5b6000819050919050565b600062000a958262000a7e565b91507fffffffffffffffffffffffffffffffffffffffffffffffffffffffffffffffff82141562000acb5762000aca62000a4f565b5b600182019050919050565b7f45524332303a206d696e7420746f20746865207a65726f206164647265737300600082015250565b600062000b0e601f8362000905565b915062000b1b8262000ad6565b602082019050919050565b6000602082019050818103600083015262000b418162000aff565b9050919050565b600062000b558262000a7e565b915062000b628362000a7e565b9250827fffffffffffffffffffffffffffffffffffffffffffffffffffffffffffffffff0382111562000b9a5762000b9962000a4f565b5b828201905092915050565b62000bb08162000a7e565b82525050565b600060208201905062000bcd600083018462000ba5565b92915050565b7f5061796d656e7453706c69747465723a206163636f756e74206973207468652060008201527f7a65726f20616464726573730000000000000000000000000000000000000000602082015250565b600062000c31602c8362000905565b915062000c3e8262000bd3565b604082019050919050565b6000602082019050818103600083015262000c648162000c22565b9050919050565b7f5061796d656e7453706c69747465723a20736861726573206172652030000000600082015250565b600062000ca3601d8362000905565b915062000cb08262000c6b565b602082019050919050565b6000602082019050818103600083015262000cd68162000c94565b9050919050565b600073ffffffffffffffffffffffffffffffffffffffff82169050919050565b600062000d0a8262000cdd565b9050919050565b62000d1c8162000cfd565b82525050565b600060408201905062000d39600083018562000d11565b62000d48602083018462000ba5565b9392505050565b613cdd8062000d5f6000396000f3fe60806040526004361061026b5760003560e01c80635d55f2de11610144578063a3ec138d116100b6578063db2b8d3c1161007a578063db2b8d3c14610a12578063dd62ed3e14610a1c578063e1b0311f14610a59578063e33b7de314610a96578063ee85e2de14610ac1578063f9ad7e7c14610add576102b2565b8063a3ec138d146108f0578063a457c2d714610930578063a9059cbb1461096d578063c5b37c22146109aa578063ce7c2ac2146109d5576102b2565b80638b83209b116101085780638b83209b146107cc5780638da5cb5b146108095780639012c4a81461083457806395d89b411461085d5780639852595c146108885780639e6cb42b146108c5576102b2565b80635d55f2de146106d357806365ab9531146107105780636ebcf6071461073b57806370a082311461077857806372a413a9146107b5576102b2565b80631a695230116101dd57806339509351116101a157806339509351146105af5780633a7d7d39146105ec5780633eaaf86b1461061757806344779d2314610642578063477348921461066d57806348772688146106aa576102b2565b80631a695230146104c35780631a6cd2fd146104df57806323b872dd1461050a578063283248be14610547578063313ce56714610584576102b2565b80630cda45c81161022f5780630cda45c8146103c35780630ff8cf9b146103ee57806312065fe0146104195780631703a0181461044457806318160ddd1461046f578063191655871461049a576102b2565b80630121b93f146102b7578063013cf08b146102e0578063024c2ddd1461031e57806306fdde031461035b578063095ea7b314610386576102b2565b366102b2577f6ef95f06320e7a25a04a175ca677b7052bdd97131872c2192525a629f51be770610299610b1a565b346040516102a8929190612861565b60405180910390a1005b600080fd5b3480156102c357600080fd5b506102de60048036038101906102d991906128ca565b610b22565b005b3480156102ec57600080fd5b50610307600480360381019061030291906128ca565b610dd9565b6040516103159291906128f7565b60405180910390f35b34801561032a57600080fd5b506103456004803603810190610340919061294c565b610e0d565b604051610352919061298c565b60405180910390f35b34801561036757600080fd5b50610370610e32565b60405161037d9190612a40565b60405180910390f35b34801561039257600080fd5b506103ad60048036038101906103a89190612a62565b610ec4565b6040516103ba9190612abd565b60405180910390f35b3480156103cf57600080fd5b506103d8610ee2565b6040516103e5919061298c565b60405180910390f35b3480156103fa57600080fd5b50610403610eec565b604051610410919061298c565b60405180910390f35b34801561042557600080fd5b5061042e610ef2565b60405161043b919061298c565b60405180910390f35b34801561045057600080fd5b50610459610efa565b604051610466919061298c565b60405180910390f35b34801561047b57600080fd5b50610484610f00565b604051610491919061298c565b60405180910390f35b3480156104a657600080fd5b506104c160048036038101906104bc9190612b16565b610f0a565b005b6104dd60048036038101906104d89190612b43565b61113f565b005b3480156104eb57600080fd5b506104f4611198565b604051610501919061298c565b60405180910390f35b34801561051657600080fd5b50610531600480360381019061052c9190612b70565b611220565b60405161053e9190612abd565b60405180910390f35b34801561055357600080fd5b5061056e600480360381019061056991906128ca565b611318565b60405161057b9190612bc3565b60405180910390f35b34801561059057600080fd5b50610599611357565b6040516105a69190612bfa565b60405180910390f35b3480156105bb57600080fd5b506105d660048036038101906105d19190612a62565b611360565b6040516105e39190612abd565b60405180910390f35b3480156105f857600080fd5b5061060161140c565b60405161060e919061298c565b60405180910390f35b34801561062357600080fd5b5061062c611412565b604051610639919061298c565b60405180910390f35b34801561064e57600080fd5b50610657611418565b604051610664919061298c565b60405180910390f35b34801561067957600080fd5b50610694600480360381019061068f9190612b43565b611422565b6040516106a1919061298c565b60405180910390f35b3480156106b657600080fd5b506106d160048036038101906106cc9190612b16565b61146b565b005b3480156106df57600080fd5b506106fa60048036038101906106f591906128ca565b61165c565b6040516107079190612bc3565b60405180910390f35b34801561071c57600080fd5b5061072561169b565b604051610732919061298c565b60405180910390f35b34801561074757600080fd5b50610762600480360381019061075d9190612b43565b6116a1565b60405161076f919061298c565b60405180910390f35b34801561078457600080fd5b5061079f600480360381019061079a9190612b43565b6116b9565b6040516107ac919061298c565b60405180910390f35b3480156107c157600080fd5b506107ca611701565b005b3480156107d857600080fd5b506107f360048036038101906107ee91906128ca565b611a44565b6040516108009190612bc3565b60405180910390f35b34801561081557600080fd5b5061081e611a8c565b60405161082b9190612bc3565b60405180910390f35b34801561084057600080fd5b5061085b600480360381019061085691906128ca565b611ab6565b005b34801561086957600080fd5b50610872611b94565b60405161087f9190612a40565b60405180910390f35b34801561089457600080fd5b506108af60048036038101906108aa9190612b43565b611c26565b6040516108bc919061298c565b60405180910390f35b3480156108d157600080fd5b506108da611c6f565b6040516108e7919061298c565b60405180910390f35b3480156108fc57600080fd5b5061091760048036038101906109129190612b43565b611c75565b6040516109279493929190612c15565b60405180910390f35b34801561093c57600080fd5b5061095760048036038101906109529190612a62565b611cd2565b6040516109649190612abd565b60405180910390f35b34801561097957600080fd5b50610994600480360381019061098f9190612a62565b611dbd565b6040516109a19190612abd565b60405180910390f35b3480156109b657600080fd5b506109bf611ddb565b6040516109cc919061298c565b60405180910390f35b3480156109e157600080fd5b506109fc60048036038101906109f79190612b43565b611de1565b604051610a09919061298c565b60405180910390f35b610a1a611e29565b005b348015610a2857600080fd5b50610a436004803603810190610a3e919061294c565b611e44565b604051610a50919061298c565b60405180910390f35b348015610a6557600080fd5b50610a806004803603810190610a7b9190612b43565b611ecb565b604051610a8d919061298c565b60405180910390f35b348015610aa257600080fd5b50610aab611ee3565b604051610ab8919061298c565b60405180910390f35b610adb6004803603810190610ad69190612da2565b611eed565b005b348015610ae957600080fd5b50610b046004803603810190610aff9190612b43565b61212d565b604051610b11919061298c565b60405180910390f35b600033905090565b60008060003373ffffffffffffffffffffffffffffffffffffffff1673ffffffffffffffffffffffffffffffffffffffff168152602001908152602001600020541415610ba4576040517f08c379a0000000000000000000000000000000000000000000000000000000008152600401610b9b90612e37565b60405180910390fd5b60008060003373ffffffffffffffffffffffffffffffffffffffff1673ffffffffffffffffffffffffffffffffffffffff16815260200190815260200160002054905080601660003373ffffffffffffffffffffffffffffffffffffffff1673ffffffffffffffffffffffffffffffffffffffff168152602001908152602001600020600001819055506000601660003373ffffffffffffffffffffffffffffffffffffffff1673ffffffffffffffffffffffffffffffffffffffff1681526020019081526020016000209050600081600001541415610cb9576040517f08c379a0000000000000000000000000000000000000000000000000000000008152600401610cb090612ea3565b60405180910390fd5b8060010160009054906101000a900460ff1615610d0b576040517f08c379a0000000000000000000000000000000000000000000000000000000008152600401610d0290612f0f565b60405180910390fd5b60018160010160006101000a81548160ff021916908315150217905550828160020181905550806000015460178481548110610d4a57610d49612f2f565b5b90600052602060002090600202016001016000828254610d6a9190612f8d565b925050819055506018339080600181540180825580915050600190039060005260206000200160009091909190916101000a81548173ffffffffffffffffffffffffffffffffffffffff021916908373ffffffffffffffffffffffffffffffffffffffff160217905550505050565b60178181548110610de957600080fd5b90600052602060002090600202016000915090508060000154908060010154905082565b6001602052816000526040600020602052806000526040600020600091509150505481565b606060038054610e4190613012565b80601f0160208091040260200160405190810160405280929190818152602001828054610e6d90613012565b8015610eba5780601f10610e8f57610100808354040283529160200191610eba565b820191906000526020600020905b815481529060010190602001808311610e9d57829003601f168201915b5050505050905090565b6000610ed8610ed1610b1a565b8484612176565b6001905092915050565b6000601054905090565b60125481565b600047905090565b60145481565b6000600254905090565b60008060008373ffffffffffffffffffffffffffffffffffffffff1673ffffffffffffffffffffffffffffffffffffffff1681526020019081526020016000205411610f8b576040517f08c379a0000000000000000000000000000000000000000000000000000000008152600401610f82906130b6565b60405180910390fd5b6000600554601254610f9d9190612f8d565b90506000600660008473ffffffffffffffffffffffffffffffffffffffff1673ffffffffffffffffffffffffffffffffffffffff168152602001908152602001600020546002546000808673ffffffffffffffffffffffffffffffffffffffff1673ffffffffffffffffffffffffffffffffffffffff168152602001908152602001600020548461102e91906130d6565b611038919061315f565b6110429190613190565b90506000811415611088576040517f08c379a000000000000000000000000000000000000000000000000000000000815260040161107f90613236565b60405180910390fd5b80600660008573ffffffffffffffffffffffffffffffffffffffff1673ffffffffffffffffffffffffffffffffffffffff16815260200190815260200160002060008282546110d79190612f8d565b9250508190555080600560008282546110f09190612f8d565b925050819055506111018382612341565b7fdf20fd1e76bc69d672e4814fafb2c449bba3a5369d8359adf9e05e6fde87b05683826040516111329291906132b5565b60405180910390a1505050565b34600d60008373ffffffffffffffffffffffffffffffffffffffff1673ffffffffffffffffffffffffffffffffffffffff168152602001908152602001600020600082825461118e9190612f8d565b9250508190555050565b6000806000905060005b60178054905081101561121b5781601782815481106111c4576111c3612f2f565b5b906000526020600020906002020160010154111561120857601781815481106111f0576111ef612f2f565b5b90600052602060002090600202016001015491508092505b8080611213906132de565b9150506111a2565b505090565b600061122d848484612435565b6000600160008673ffffffffffffffffffffffffffffffffffffffff1673ffffffffffffffffffffffffffffffffffffffff1681526020019081526020016000206000611278610b1a565b73ffffffffffffffffffffffffffffffffffffffff1673ffffffffffffffffffffffffffffffffffffffff168152602001908152602001600020549050828110156112f8576040517f08c379a00000000000000000000000000000000000000000000000000000000081526004016112ef90613399565b60405180910390fd5b61130c85611304610b1a565b858403612176565b60019150509392505050565b6007818154811061132857600080fd5b906000526020600020016000915054906101000a900473ffffffffffffffffffffffffffffffffffffffff1681565b60006012905090565b600061140261136d610b1a565b84846001600061137b610b1a565b73ffffffffffffffffffffffffffffffffffffffff1673ffffffffffffffffffffffffffffffffffffffff16815260200190815260200160002060008873ffffffffffffffffffffffffffffffffffffffff1673ffffffffffffffffffffffffffffffffffffffff168152602001908152602001600020546113fd9190612f8d565b612176565b6001905092915050565b60055481565b60025481565b6000600f54905090565b6000600d60008373ffffffffffffffffffffffffffffffffffffffff1673ffffffffffffffffffffffffffffffffffffffff168152602001908152602001600020549050919050565b6000600d60008373ffffffffffffffffffffffffffffffffffffffff1673ffffffffffffffffffffffffffffffffffffffff16815260200190815260200160002054116114ed576040517f08c379a00000000000000000000000000000000000000000000000000000000081526004016114e49061342b565b60405180910390fd5b6000600f54476114fd9190612f8d565b90506000606460105460646115129190613190565b600d60008673ffffffffffffffffffffffffffffffffffffffff1673ffffffffffffffffffffffffffffffffffffffff1681526020019081526020016000205461155c91906130d6565b611566919061315f565b905060008114156115ac576040517f08c379a00000000000000000000000000000000000000000000000000000000081526004016115a390613236565b60405180910390fd5b6064601054836115bc91906130d6565b6115c6919061315f565b601260008282546115d79190612f8d565b9250508190555080600e60008573ffffffffffffffffffffffffffffffffffffffff1673ffffffffffffffffffffffffffffffffffffffff168152602001908152602001600020600082825461162d9190612f8d565b9250508190555080600f60008282546116469190612f8d565b925050819055506116578382612341565b505050565b6018818154811061166c57600080fd5b906000526020600020016000915054906101000a900473ffffffffffffffffffffffffffffffffffffffff1681565b600f5481565b60006020528060005260406000206000915090505481565b60008060008373ffffffffffffffffffffffffffffffffffffffff1673ffffffffffffffffffffffffffffffffffffffff168152602001908152602001600020549050919050565b6013544211611745576040517f08c379a000000000000000000000000000000000000000000000000000000000815260040161173c90613497565b60405180910390fd5b6000806017611752611198565b8154811061176357611762612f2f565b5b90600052602060002090600202016000015491506017611781611198565b8154811061179257611791612f2f565b5b9060005260206000209060020201600101549050600a8211156117ea576040517f08c379a00000000000000000000000000000000000000000000000000000000081526004016117e190613529565b60405180910390fd5b60145481101561182f576040517f08c379a000000000000000000000000000000000000000000000000000000000815260040161182690613595565b60405180910390fd5b600a821115801561184257506014548110155b15611942578160108190555060005b60188054905081101561193c57601660006018838154811061187657611875612f2f565b5b9060005260206000200160009054906101000a900473ffffffffffffffffffffffffffffffffffffffff1673ffffffffffffffffffffffffffffffffffffffff1673ffffffffffffffffffffffffffffffffffffffff1681526020019081526020016000206000808201600090556001820160006101000a81549060ff02191690556001820160016101000a81549073ffffffffffffffffffffffffffffffffffffffff0219169055600282016000905550508080611934906132de565b915050611851565b50611a32565b60005b601880549050811015611a3057601660006018838154811061196a57611969612f2f565b5b9060005260206000200160009054906101000a900473ffffffffffffffffffffffffffffffffffffffff1673ffffffffffffffffffffffffffffffffffffffff1673ffffffffffffffffffffffffffffffffffffffff1681526020019081526020016000206000808201600090556001820160006101000a81549060ff02191690556001820160016101000a81549073ffffffffffffffffffffffffffffffffffffffff0219169055600282016000905550508080611a28906132de565b915050611945565b505b60186000611a4091906127c9565b5050565b600060078281548110611a5a57611a59612f2f565b5b9060005260206000200160009054906101000a900473ffffffffffffffffffffffffffffffffffffffff169050919050565b6000601160009054906101000a900473ffffffffffffffffffffffffffffffffffffffff16905090565b601160009054906101000a900473ffffffffffffffffffffffffffffffffffffffff1673ffffffffffffffffffffffffffffffffffffffff163373ffffffffffffffffffffffffffffffffffffffff1614611b46576040517f08c379a0000000000000000000000000000000000000000000000000000000008152600401611b3d90613601565b60405180910390fd5b600a811115611b8a576040517f08c379a0000000000000000000000000000000000000000000000000000000008152600401611b819061366d565b60405180910390fd5b8060108190555050565b606060048054611ba390613012565b80601f0160208091040260200160405190810160405280929190818152602001828054611bcf90613012565b8015611c1c5780601f10611bf157610100808354040283529160200191611c1c565b820191906000526020600020905b815481529060010190602001808311611bff57829003601f168201915b5050505050905090565b6000600660008373ffffffffffffffffffffffffffffffffffffffff1673ffffffffffffffffffffffffffffffffffffffff168152602001908152602001600020549050919050565b60135481565b60166020528060005260406000206000915090508060000154908060010160009054906101000a900460ff16908060010160019054906101000a900473ffffffffffffffffffffffffffffffffffffffff16908060020154905084565b60008060016000611ce1610b1a565b73ffffffffffffffffffffffffffffffffffffffff1673ffffffffffffffffffffffffffffffffffffffff16815260200190815260200160002060008573ffffffffffffffffffffffffffffffffffffffff1673ffffffffffffffffffffffffffffffffffffffff16815260200190815260200160002054905082811015611d9e576040517f08c379a0000000000000000000000000000000000000000000000000000000008152600401611d95906136ff565b60405180910390fd5b611db2611da9610b1a565b85858403612176565b600191505092915050565b6000611dd1611dca610b1a565b8484612435565b6001905092915050565b60105481565b60008060008373ffffffffffffffffffffffffffffffffffffffff1673ffffffffffffffffffffffffffffffffffffffff168152602001908152602001600020549050919050565b3460126000828254611e3b9190612f8d565b92505081905550565b6000600160008473ffffffffffffffffffffffffffffffffffffffff1673ffffffffffffffffffffffffffffffffffffffff16815260200190815260200160002060008373ffffffffffffffffffffffffffffffffffffffff1673ffffffffffffffffffffffffffffffffffffffff16815260200190815260200160002054905092915050565b60066020528060005260406000206000915090505481565b6000600554905090565b60008060003373ffffffffffffffffffffffffffffffffffffffff1673ffffffffffffffffffffffffffffffffffffffff168152602001908152602001600020541415611f6f576040517f08c379a0000000000000000000000000000000000000000000000000000000008152600401611f669061376b565b60405180910390fd5b6001815114611fb3576040517f08c379a0000000000000000000000000000000000000000000000000000000008152600401611faa906137fd565b60405180910390fd5b670de0b6b3a7640000341015611ffe576040517f08c379a0000000000000000000000000000000000000000000000000000000008152600401611ff590613869565b60405180910390fd5b34601260008282546120109190612f8d565b9250508190555060006002546000803373ffffffffffffffffffffffffffffffffffffffff1673ffffffffffffffffffffffffffffffffffffffff16815260200190815260200160002054620186a061206991906130d6565b612073919061315f565b905061271081101561208457600080fd5b601954426120929190612f8d565b60138190555060005b825181101561212857601760405180604001604052808584815181106120c4576120c3612f2f565b5b6020026020010151815260200160008152509080600181540180825580915050600190039060005260206000209060020201600090919091909150600082015181600001556020820151816001015550508080612120906132de565b91505061209b565b505050565b6000600e60008373ffffffffffffffffffffffffffffffffffffffff1673ffffffffffffffffffffffffffffffffffffffff168152602001908152602001600020549050919050565b600073ffffffffffffffffffffffffffffffffffffffff168373ffffffffffffffffffffffffffffffffffffffff1614156121e6576040517f08c379a00000000000000000000000000000000000000000000000000000000081526004016121dd906138fb565b60405180910390fd5b600073ffffffffffffffffffffffffffffffffffffffff168273ffffffffffffffffffffffffffffffffffffffff161415612256576040517f08c379a000000000000000000000000000000000000000000000000000000000815260040161224d9061398d565b60405180910390fd5b80600160008573ffffffffffffffffffffffffffffffffffffffff1673ffffffffffffffffffffffffffffffffffffffff16815260200190815260200160002060008473ffffffffffffffffffffffffffffffffffffffff1673ffffffffffffffffffffffffffffffffffffffff168152602001908152602001600020819055508173ffffffffffffffffffffffffffffffffffffffff168373ffffffffffffffffffffffffffffffffffffffff167f8c5be1e5ebec7d5bd14f71427d1e84f3dd0314c0f7b2291e5b200ac8c7c3b92583604051612334919061298c565b60405180910390a3505050565b80471015612384576040517f08c379a000000000000000000000000000000000000000000000000000000000815260040161237b906139f9565b60405180910390fd5b60008273ffffffffffffffffffffffffffffffffffffffff16826040516123aa90613a4a565b60006040518083038185875af1925050503d80600081146123e7576040519150601f19603f3d011682016040523d82523d6000602084013e6123ec565b606091505b5050905080612430576040517f08c379a000000000000000000000000000000000000000000000000000000000815260040161242790613ad1565b60405180910390fd5b505050565b600073ffffffffffffffffffffffffffffffffffffffff168373ffffffffffffffffffffffffffffffffffffffff1614156124a5576040517f08c379a000000000000000000000000000000000000000000000000000000000815260040161249c90613b63565b60405180910390fd5b600073ffffffffffffffffffffffffffffffffffffffff168273ffffffffffffffffffffffffffffffffffffffff161415612515576040517f08c379a000000000000000000000000000000000000000000000000000000000815260040161250c90613bf5565b60405180910390fd5b6125208383836127bf565b60008060008573ffffffffffffffffffffffffffffffffffffffff1673ffffffffffffffffffffffffffffffffffffffff168152602001908152602001600020549050818110156125a6576040517f08c379a000000000000000000000000000000000000000000000000000000000815260040161259d90613c87565b60405180910390fd5b8181036000808673ffffffffffffffffffffffffffffffffffffffff1673ffffffffffffffffffffffffffffffffffffffff16815260200190815260200160002081905550816000808573ffffffffffffffffffffffffffffffffffffffff1673ffffffffffffffffffffffffffffffffffffffff16815260200190815260200160002060008282546126399190612f8d565b925050819055506007839080600181540180825580915050600190039060005260206000200160009091909190916101000a81548173ffffffffffffffffffffffffffffffffffffffff021916908373ffffffffffffffffffffffffffffffffffffffff1602179055508273ffffffffffffffffffffffffffffffffffffffff168473ffffffffffffffffffffffffffffffffffffffff167fddf252ad1be2c89b69c2b068fc378daa952ba7f163c4a11628f55a4df523b3ef84604051612700919061298c565b60405180910390a36127138484846127c4565b6007839080600181540180825580915050600190039060005260206000200160009091909190916101000a81548173ffffffffffffffffffffffffffffffffffffffff021916908373ffffffffffffffffffffffffffffffffffffffff160217905550816000808573ffffffffffffffffffffffffffffffffffffffff1673ffffffffffffffffffffffffffffffffffffffff1681526020019081526020016000208190555050505050565b505050565b505050565b50805460008255906000526020600020908101906127e791906127ea565b50565b5b808211156128035760008160009055506001016127eb565b5090565b600073ffffffffffffffffffffffffffffffffffffffff82169050919050565b600061283282612807565b9050919050565b61284281612827565b82525050565b6000819050919050565b61285b81612848565b82525050565b60006040820190506128766000830185612839565b6128836020830184612852565b9392505050565b6000604051905090565b600080fd5b600080fd5b6128a781612848565b81146128b257600080fd5b50565b6000813590506128c48161289e565b92915050565b6000602082840312156128e0576128df612894565b5b60006128ee848285016128b5565b91505092915050565b600060408201905061290c6000830185612852565b6129196020830184612852565b9392505050565b61292981612827565b811461293457600080fd5b50565b60008135905061294681612920565b92915050565b6000806040838503121561296357612962612894565b5b600061297185828601612937565b925050602061298285828601612937565b9150509250929050565b60006020820190506129a16000830184612852565b92915050565b600081519050919050565b600082825260208201905092915050565b60005b838110156129e15780820151818401526020810190506129c6565b838111156129f0576000848401525b50505050565b6000601f19601f8301169050919050565b6000612a12826129a7565b612a1c81856129b2565b9350612a2c8185602086016129c3565b612a35816129f6565b840191505092915050565b60006020820190508181036000830152612a5a8184612a07565b905092915050565b60008060408385031215612a7957612a78612894565b5b6000612a8785828601612937565b9250506020612a98858286016128b5565b9150509250929050565b60008115159050919050565b612ab781612aa2565b82525050565b6000602082019050612ad26000830184612aae565b92915050565b6000612ae382612807565b9050919050565b612af381612ad8565b8114612afe57600080fd5b50565b600081359050612b1081612aea565b92915050565b600060208284031215612b2c57612b2b612894565b5b6000612b3a84828501612b01565b91505092915050565b600060208284031215612b5957612b58612894565b5b6000612b6784828501612937565b91505092915050565b600080600060608486031215612b8957612b88612894565b5b6000612b9786828701612937565b9350506020612ba886828701612937565b9250506040612bb9868287016128b5565b9150509250925092565b6000602082019050612bd86000830184612839565b92915050565b600060ff82169050919050565b612bf481612bde565b82525050565b6000602082019050612c0f6000830184612beb565b92915050565b6000608082019050612c2a6000830187612852565b612c376020830186612aae565b612c446040830185612839565b612c516060830184612852565b95945050505050565b600080fd5b7f4e487b7100000000000000000000000000000000000000000000000000000000600052604160045260246000fd5b612c97826129f6565b810181811067ffffffffffffffff82111715612cb657612cb5612c5f565b5b80604052505050565b6000612cc961288a565b9050612cd58282612c8e565b919050565b600067ffffffffffffffff821115612cf557612cf4612c5f565b5b602082029050602081019050919050565b600080fd5b6000612d1e612d1984612cda565b612cbf565b90508083825260208201905060208402830185811115612d4157612d40612d06565b5b835b81811015612d6a5780612d5688826128b5565b845260208401935050602081019050612d43565b5050509392505050565b600082601f830112612d8957612d88612c5a565b5b8135612d99848260208601612d0b565b91505092915050565b600060208284031215612db857612db7612894565b5b600082013567ffffffffffffffff811115612dd657612dd5612899565b5b612de284828501612d74565b91505092915050565b7f7a65726f2062616c616e63650000000000000000000000000000000000000000600082015250565b6000612e21600c836129b2565b9150612e2c82612deb565b602082019050919050565b60006020820190508181036000830152612e5081612e14565b9050919050565b7f486173206e6f20726967687420746f20766f7465000000000000000000000000600082015250565b6000612e8d6014836129b2565b9150612e9882612e57565b602082019050919050565b60006020820190508181036000830152612ebc81612e80565b9050919050565b7f416c726561647920766f7465642e000000000000000000000000000000000000600082015250565b6000612ef9600e836129b2565b9150612f0482612ec3565b602082019050919050565b60006020820190508181036000830152612f2881612eec565b9050919050565b7f4e487b7100000000000000000000000000000000000000000000000000000000600052603260045260246000fd5b7f4e487b7100000000000000000000000000000000000000000000000000000000600052601160045260246000fd5b6000612f9882612848565b9150612fa383612848565b9250827fffffffffffffffffffffffffffffffffffffffffffffffffffffffffffffffff03821115612fd857612fd7612f5e565b5b828201905092915050565b7f4e487b7100000000000000000000000000000000000000000000000000000000600052602260045260246000fd5b6000600282049050600182168061302a57607f821691505b6020821081141561303e5761303d612fe3565b5b50919050565b7f5061796d656e7453706c69747465723a206163636f756e7420686173206e6f2060008201527f7368617265730000000000000000000000000000000000000000000000000000602082015250565b60006130a06026836129b2565b91506130ab82613044565b604082019050919050565b600060208201905081810360008301526130cf81613093565b9050919050565b60006130e182612848565b91506130ec83612848565b9250817fffffffffffffffffffffffffffffffffffffffffffffffffffffffffffffffff048311821515161561312557613124612f5e565b5b828202905092915050565b7f4e487b7100000000000000000000000000000000000000000000000000000000600052601260045260246000fd5b600061316a82612848565b915061317583612848565b92508261318557613184613130565b5b828204905092915050565b600061319b82612848565b91506131a683612848565b9250828210156131b9576131b8612f5e565b5b828203905092915050565b7f5061796d656e7453706c69747465723a206163636f756e74206973206e6f742060008201527f647565207061796d656e74000000000000000000000000000000000000000000602082015250565b6000613220602b836129b2565b915061322b826131c4565b604082019050919050565b6000602082019050818103600083015261324f81613213565b9050919050565b6000819050919050565b600061327b61327661327184612807565b613256565b612807565b9050919050565b600061328d82613260565b9050919050565b600061329f82613282565b9050919050565b6132af81613294565b82525050565b60006040820190506132ca60008301856132a6565b6132d76020830184612852565b9392505050565b60006132e982612848565b91507fffffffffffffffffffffffffffffffffffffffffffffffffffffffffffffffff82141561331c5761331b612f5e565b5b600182019050919050565b7f45524332303a207472616e7366657220616d6f756e742065786365656473206160008201527f6c6c6f77616e6365000000000000000000000000000000000000000000000000602082015250565b60006133836028836129b2565b915061338e82613327565b604082019050919050565b600060208201905081810360008301526133b281613376565b9050919050565b7f5061796d656e7453706c69747465723a206163636f756e742062616c616e636560008201527f2069732030000000000000000000000000000000000000000000000000000000602082015250565b60006134156025836129b2565b9150613420826133b9565b604082019050919050565b6000602082019050818103600083015261344481613408565b9050919050565b7f566f7465206e6f742079657420656e6465642e00000000000000000000000000600082015250565b60006134816013836129b2565b915061348c8261344b565b602082019050919050565b600060208201905081810360008301526134b081613474565b9050919050565b7f6665652063616e6e6f742062652073657420686967686572207468616e20313060008201527f2070657263656e74000000000000000000000000000000000000000000000000602082015250565b60006135136028836129b2565b915061351e826134b7565b604082019050919050565b6000602082019050818103600083015261354281613506565b9050919050565b7f71756f72756d20776173206e6f74206d65740000000000000000000000000000600082015250565b600061357f6012836129b2565b915061358a82613549565b602082019050919050565b600060208201905081810360008301526135ae81613572565b9050919050565b7f4f6e6c7920746865206f776e6572000000000000000000000000000000000000600082015250565b60006135eb600e836129b2565b91506135f6826135b5565b602082019050919050565b6000602082019050818103600083015261361a816135de565b9050919050565b7f466565206d757374206e6f7420626520686967686572207468616e2031302500600082015250565b6000613657601f836129b2565b915061366282613621565b602082019050919050565b600060208201905081810360008301526136868161364a565b9050919050565b7f45524332303a2064656372656173656420616c6c6f77616e63652062656c6f7760008201527f207a65726f000000000000000000000000000000000000000000000000000000602082015250565b60006136e96025836129b2565b91506136f48261368d565b604082019050919050565b60006020820190508181036000830152613718816136dc565b9050919050565b7f74686973206163636f756e7420686173206e6f20736861726573000000000000600082015250565b6000613755601a836129b2565b91506137608261371f565b602082019050919050565b6000602082019050818103600083015261378481613748565b9050919050565b7f796f752063616e206f6e6c7920637265617465206f6e652070726f706f73616c60008201527f20617420612074696d6500000000000000000000000000000000000000000000602082015250565b60006137e7602a836129b2565b91506137f28261378b565b604082019050919050565b60006020820190508181036000830152613816816137da565b9050919050565b7f796f75206d757374207061792031206574686572000000000000000000000000600082015250565b60006138536014836129b2565b915061385e8261381d565b602082019050919050565b6000602082019050818103600083015261388281613846565b9050919050565b7f45524332303a20617070726f76652066726f6d20746865207a65726f2061646460008201527f7265737300000000000000000000000000000000000000000000000000000000602082015250565b60006138e56024836129b2565b91506138f082613889565b604082019050919050565b60006020820190508181036000830152613914816138d8565b9050919050565b7f45524332303a20617070726f766520746f20746865207a65726f20616464726560008201527f7373000000000000000000000000000000000000000000000000000000000000602082015250565b60006139776022836129b2565b91506139828261391b565b604082019050919050565b600060208201905081810360008301526139a68161396a565b9050919050565b7f416464726573733a20696e73756666696369656e742062616c616e6365000000600082015250565b60006139e3601d836129b2565b91506139ee826139ad565b602082019050919050565b60006020820190508181036000830152613a12816139d6565b9050919050565b600081905092915050565b50565b6000613a34600083613a19565b9150613a3f82613a24565b600082019050919050565b6000613a5582613a27565b9150819050919050565b7f416464726573733a20756e61626c6520746f2073656e642076616c75652c207260008201527f6563697069656e74206d61792068617665207265766572746564000000000000602082015250565b6000613abb603a836129b2565b9150613ac682613a5f565b604082019050919050565b60006020820190508181036000830152613aea81613aae565b9050919050565b7f45524332303a207472616e736665722066726f6d20746865207a65726f20616460008201527f6472657373000000000000000000000000000000000000000000000000000000602082015250565b6000613b4d6025836129b2565b9150613b5882613af1565b604082019050919050565b60006020820190508181036000830152613b7c81613b40565b9050919050565b7f45524332303a207472616e7366657220746f20746865207a65726f206164647260008201527f6573730000000000000000000000000000000000000000000000000000000000602082015250565b6000613bdf6023836129b2565b9150613bea82613b83565b604082019050919050565b60006020820190508181036000830152613c0e81613bd2565b9050919050565b7f45524332303a207472616e7366657220616d6f756e742065786365656473206260008201527f616c616e63650000000000000000000000000000000000000000000000000000602082015250565b6000613c716026836129b2565b9150613c7c82613c15565b604082019050919050565b60006020820190508181036000830152613ca081613c64565b905091905056fea2646970667358221220ba1d8b7909a229bc16684d2a3ff47ba8c009e594c603a1de1b117d1c213c563d64736f6c634300080a0033",
  "immutableReferences": {},
  "source": "// SPDX-License-Identifier: MIT\npragma solidity ^0.8.0;\n\nimport \"./splitter.sol\";\n\ncontract DAO is splitter {\n    \n    uint public voteEndTime;\n    \n    //quorum is 100 million which is 10% of total supply\n    uint256 public quorum = 100000000000000000000000000;\n\n\n    bool ended;\n    \n\n    struct Voter {\n        uint weight; // weight is accumulated by delegation\n        bool voted;  // if true, that person already voted\n        address delegate; // person delegated to\n        uint vote;   // index of the voted proposal\n    }\n\n    struct Proposal {\n        uint256 fee;   // short name (up to 32 bytes)\n        uint voteCount; // number of accumulated votes\n    \n    }\n    \n    \n    mapping(address => Voter) public voters;\n    Proposal[] public proposals;\n    address[] public voterAddress;\n\n\n    //error handlers\n    /// The vote has already ended.\n    error voteAlreadyEnded();\n    /// The auction has not ended yet.\n    error voteNotYetEnded();\n    \n    // SET VOTE TIME\n    uint _voteTime = 20; //1209600; 2 WEEKS\n\n    \n    function createProposal(uint256[] memory proposalNames) public payable {\n        \n        require(_balances[msg.sender] != 0, \"this account has no shares\");\n        require(proposalNames.length == 1, \"you can only create one proposal at a time\");\n        \n        require(msg.value >= 1 ether, \"you must pay 1 ether\");\n        dividend += msg.value;\n        \n        // MUST HAVE 10 PERCENT TO CREATE PROPOSAL *subject to change... (10000 because it allows to calculate percent to 5 decimals)\n        uint256 percent = ( 100000 * _balances[msg.sender] ) / _totalSupply;\n        \n        require(percent >= 10000);\n        \n        voteEndTime = block.timestamp + _voteTime;\n         \n        for (uint i = 0; i < proposalNames.length; i++) {\n        \n            proposals.push(Proposal({\n                fee: proposalNames[i],\n                voteCount: 0\n        }));\n        }\n    }\n    \n    \n\n    \n    \n    function vote(uint proposal) public {\n        \n        require(_balances[msg.sender] !=0, \"zero balance\");\n        uint256 voteWeight = _balances[msg.sender];\n        \n        voters[msg.sender].weight = voteWeight;\n        \n        Voter storage sender = voters[msg.sender];\n        require(sender.weight != 0, \"Has no right to vote\");\n        require(!sender.voted, \"Already voted.\");\n        sender.voted = true;\n        sender.vote = proposal;\n        proposals[proposal].voteCount += sender.weight;\n        \n        voterAddress.push(msg.sender);\n    }\n\n\n    // CONSIDER MAKING FUNCTION PRIVATE - this function can be called before vote end \n    function countVote() public view\n            returns (uint winningProposal_)\n        {\n            \n        uint winningVoteCount = 0;\n        for (uint p = 0; p < proposals.length; p++) {\n            if (proposals[p].voteCount > winningVoteCount) {\n                winningVoteCount = proposals[p].voteCount;\n                winningProposal_ = p;\n            }\n        }\n    }\n    \n    \n    // NEEDS TO BE EXTENSIVELY TESTED\n    function EndVote() public {\n        require(\n            block.timestamp > voteEndTime,\n            \"Vote not yet ended.\");\n          \n        uint256 fee;\n        uint votes;\n        fee = proposals[countVote()].fee;\n        votes = proposals[countVote()].voteCount;\n        \n        require(fee <= 10, \"fee cannot be set higher than 10 percent\");\n        \n        require(votes >= quorum, \"quorum was not met\");\n        \n        // if criteria are met, fee is set and struct Voters is reset \n        if(fee <= 10 && votes >= quorum) {   \n            // DAO UPDATES FEE\n            _fee = fee;\n        \n            for (uint i = 0; i < voterAddress.length; i++)\n                delete voters[voterAddress[i]];\n        \n        // even if criteria are not met, struct Voters is reset \n        } else {\n            \n            for (uint i = 0; i < voterAddress.length; i++)\n                delete voters[voterAddress[i]];\n        \n        } \n        // delete voter address array\n        delete voterAddress;\n            \n        }\n    \n}\n",
  "sourcePath": "/home/ubuntu/Desktop/dev/DividendPayingDAO/contracts/DAO.sol",
  "compiler": {
    "name": "solc",
    "version": "0.8.10+commit.fc410830.Emscripten.clang"
  },
  "schemaVersion": "3.4.3",
  "updatedAt": "2021-11-19T10:11:45.816Z",
  "devdoc": {
    "kind": "dev",
    "methods": {
      "allowance(address,address)": {
        "details": "Returns the remaining number of tokens that `spender` will be allowed to spend on behalf of `owner` through {transferFrom}. This is zero by default. This value changes when {approve} or {transferFrom} are called."
      },
      "approve(address,uint256)": {
        "details": "Sets `amount` as the allowance of `spender` over the caller's tokens. Returns a boolean value indicating whether the operation succeeded. IMPORTANT: Beware that changing an allowance with this method brings the risk that someone may use both the old and the new allowance by unfortunate transaction ordering. One possible solution to mitigate this race condition is to first reduce the spender's allowance to 0 and set the desired value afterwards: https://github.com/ethereum/EIPs/issues/20#issuecomment-263524729 Emits an {Approval} event."
      },
      "balanceOf(address)": {
        "details": "Returns the amount of tokens owned by `account`."
      },
      "decimals()": {
        "details": "Returns the decimals places of the token."
      },
      "name()": {
        "details": "Returns the name of the token."
      },
      "symbol()": {
        "details": "Returns the symbol of the token."
      },
      "totalSupply()": {
        "details": "Returns the amount of tokens in existence."
      },
      "transfer(address,uint256)": {
        "details": "Moves `amount` tokens from the caller's account to `recipient`. Returns a boolean value indicating whether the operation succeeded. Emits a {Transfer} event."
      },
      "transferFrom(address,address,uint256)": {
        "details": "Moves `amount` tokens from `sender` to `recipient` using the allowance mechanism. `amount` is then deducted from the caller's allowance. Returns a boolean value indicating whether the operation succeeded. Emits a {Transfer} event."
      }
    },
    "version": 1
  },
  "userdoc": {
    "errors": {
      "voteAlreadyEnded()": [
        {
          "notice": "The vote has already ended."
        }
      ],
      "voteNotYetEnded()": [
        {
          "notice": "The auction has not ended yet."
        }
      ]
    },
    "kind": "user",
    "methods": {
      "release(address)": {
        "notice": "Triggers a transfer to [account] of the amount of Ether they are owed, according to their percentage of the total shares and their previous withdrawals."
      }
    },
    "version": 1
  }
}