{
  "contractName": "ERC20",
  "abi": [
    {
      "inputs": [],
      "stateMutability": "nonpayable",
      "type": "constructor"
    },
    {
      "anonymous": false,
      "inputs": [
        {
          "indexed": true,
          "internalType": "address",
          "name": "owner",
          "type": "address"
        },
        {
          "indexed": true,
          "internalType": "address",
          "name": "spender",
          "type": "address"
        },
        {
          "indexed": false,
          "internalType": "uint256",
          "name": "value",
          "type": "uint256"
        }
      ],
      "name": "Approval",
      "type": "event"
    },
    {
      "anonymous": false,
      "inputs": [
        {
          "indexed": false,
          "internalType": "address",
          "name": "account",
          "type": "address"
        },
        {
          "indexed": false,
          "internalType": "uint256",
          "name": "shares",
          "type": "uint256"
        }
      ],
      "name": "PayeeAdded",
      "type": "event"
    },
    {
      "anonymous": false,
      "inputs": [
        {
          "indexed": false,
          "internalType": "address",
          "name": "from",
          "type": "address"
        },
        {
          "indexed": false,
          "internalType": "uint256",
          "name": "amount",
          "type": "uint256"
        }
      ],
      "name": "PaymentReceived",
      "type": "event"
    },
    {
      "anonymous": false,
      "inputs": [
        {
          "indexed": false,
          "internalType": "address",
          "name": "to",
          "type": "address"
        },
        {
          "indexed": false,
          "internalType": "uint256",
          "name": "amount",
          "type": "uint256"
        }
      ],
      "name": "PaymentReleased",
      "type": "event"
    },
    {
      "anonymous": false,
      "inputs": [
        {
          "indexed": true,
          "internalType": "address",
          "name": "from",
          "type": "address"
        },
        {
          "indexed": true,
          "internalType": "address",
          "name": "to",
          "type": "address"
        },
        {
          "indexed": false,
          "internalType": "uint256",
          "name": "value",
          "type": "uint256"
        }
      ],
      "name": "Transfer",
      "type": "event"
    },
    {
      "inputs": [
        {
          "internalType": "address",
          "name": "",
          "type": "address"
        },
        {
          "internalType": "address",
          "name": "",
          "type": "address"
        }
      ],
      "name": "_allowances",
      "outputs": [
        {
          "internalType": "uint256",
          "name": "",
          "type": "uint256"
        }
      ],
      "stateMutability": "view",
      "type": "function"
    },
    {
      "inputs": [
        {
          "internalType": "address",
          "name": "",
          "type": "address"
        }
      ],
      "name": "_balances",
      "outputs": [
        {
          "internalType": "uint256",
          "name": "",
          "type": "uint256"
        }
      ],
      "stateMutability": "view",
      "type": "function"
    },
    {
      "inputs": [
        {
          "internalType": "uint256",
          "name": "",
          "type": "uint256"
        }
      ],
      "name": "_payees",
      "outputs": [
        {
          "internalType": "address",
          "name": "",
          "type": "address"
        }
      ],
      "stateMutability": "view",
      "type": "function"
    },
    {
      "inputs": [
        {
          "internalType": "address",
          "name": "",
          "type": "address"
        }
      ],
      "name": "_released",
      "outputs": [
        {
          "internalType": "uint256",
          "name": "",
          "type": "uint256"
        }
      ],
      "stateMutability": "view",
      "type": "function"
    },
    {
      "inputs": [],
      "name": "_totalReleased",
      "outputs": [
        {
          "internalType": "uint256",
          "name": "",
          "type": "uint256"
        }
      ],
      "stateMutability": "view",
      "type": "function"
    },
    {
      "inputs": [],
      "name": "_totalSupply",
      "outputs": [
        {
          "internalType": "uint256",
          "name": "",
          "type": "uint256"
        }
      ],
      "stateMutability": "view",
      "type": "function"
    },
    {
      "stateMutability": "payable",
      "type": "receive"
    },
    {
      "inputs": [],
      "name": "name",
      "outputs": [
        {
          "internalType": "string",
          "name": "",
          "type": "string"
        }
      ],
      "stateMutability": "view",
      "type": "function"
    },
    {
      "inputs": [],
      "name": "symbol",
      "outputs": [
        {
          "internalType": "string",
          "name": "",
          "type": "string"
        }
      ],
      "stateMutability": "view",
      "type": "function"
    },
    {
      "inputs": [],
      "name": "decimals",
      "outputs": [
        {
          "internalType": "uint8",
          "name": "",
          "type": "uint8"
        }
      ],
      "stateMutability": "view",
      "type": "function"
    },
    {
      "inputs": [],
      "name": "totalSupply",
      "outputs": [
        {
          "internalType": "uint256",
          "name": "",
          "type": "uint256"
        }
      ],
      "stateMutability": "view",
      "type": "function"
    },
    {
      "inputs": [
        {
          "internalType": "address",
          "name": "account",
          "type": "address"
        }
      ],
      "name": "balanceOf",
      "outputs": [
        {
          "internalType": "uint256",
          "name": "",
          "type": "uint256"
        }
      ],
      "stateMutability": "view",
      "type": "function"
    },
    {
      "inputs": [
        {
          "internalType": "address",
          "name": "recipient",
          "type": "address"
        },
        {
          "internalType": "uint256",
          "name": "amount",
          "type": "uint256"
        }
      ],
      "name": "transfer",
      "outputs": [
        {
          "internalType": "bool",
          "name": "",
          "type": "bool"
        }
      ],
      "stateMutability": "nonpayable",
      "type": "function"
    },
    {
      "inputs": [
        {
          "internalType": "address",
          "name": "owner",
          "type": "address"
        },
        {
          "internalType": "address",
          "name": "spender",
          "type": "address"
        }
      ],
      "name": "allowance",
      "outputs": [
        {
          "internalType": "uint256",
          "name": "",
          "type": "uint256"
        }
      ],
      "stateMutability": "view",
      "type": "function"
    },
    {
      "inputs": [
        {
          "internalType": "address",
          "name": "spender",
          "type": "address"
        },
        {
          "internalType": "uint256",
          "name": "amount",
          "type": "uint256"
        }
      ],
      "name": "approve",
      "outputs": [
        {
          "internalType": "bool",
          "name": "",
          "type": "bool"
        }
      ],
      "stateMutability": "nonpayable",
      "type": "function"
    },
    {
      "inputs": [
        {
          "internalType": "address",
          "name": "sender",
          "type": "address"
        },
        {
          "internalType": "address",
          "name": "recipient",
          "type": "address"
        },
        {
          "internalType": "uint256",
          "name": "amount",
          "type": "uint256"
        }
      ],
      "name": "transferFrom",
      "outputs": [
        {
          "internalType": "bool",
          "name": "",
          "type": "bool"
        }
      ],
      "stateMutability": "nonpayable",
      "type": "function"
    },
    {
      "inputs": [
        {
          "internalType": "address",
          "name": "spender",
          "type": "address"
        },
        {
          "internalType": "uint256",
          "name": "addedValue",
          "type": "uint256"
        }
      ],
      "name": "increaseAllowance",
      "outputs": [
        {
          "internalType": "bool",
          "name": "",
          "type": "bool"
        }
      ],
      "stateMutability": "nonpayable",
      "type": "function"
    },
    {
      "inputs": [
        {
          "internalType": "address",
          "name": "spender",
          "type": "address"
        },
        {
          "internalType": "uint256",
          "name": "subtractedValue",
          "type": "uint256"
        }
      ],
      "name": "decreaseAllowance",
      "outputs": [
        {
          "internalType": "bool",
          "name": "",
          "type": "bool"
        }
      ],
      "stateMutability": "nonpayable",
      "type": "function"
    },
    {
      "inputs": [],
      "name": "getBalance",
      "outputs": [
        {
          "internalType": "uint256",
          "name": "",
          "type": "uint256"
        }
      ],
      "stateMutability": "view",
      "type": "function"
    },
    {
      "inputs": [],
      "name": "totalReleased",
      "outputs": [
        {
          "internalType": "uint256",
          "name": "",
          "type": "uint256"
        }
      ],
      "stateMutability": "view",
      "type": "function"
    },
    {
      "inputs": [
        {
          "internalType": "address",
          "name": "account",
          "type": "address"
        }
      ],
      "name": "shares",
      "outputs": [
        {
          "internalType": "uint256",
          "name": "",
          "type": "uint256"
        }
      ],
      "stateMutability": "view",
      "type": "function"
    },
    {
      "inputs": [
        {
          "internalType": "address",
          "name": "account",
          "type": "address"
        }
      ],
      "name": "released",
      "outputs": [
        {
          "internalType": "uint256",
          "name": "",
          "type": "uint256"
        }
      ],
      "stateMutability": "view",
      "type": "function"
    },
    {
      "inputs": [
        {
          "internalType": "uint256",
          "name": "index",
          "type": "uint256"
        }
      ],
      "name": "payee",
      "outputs": [
        {
          "internalType": "address",
          "name": "",
          "type": "address"
        }
      ],
      "stateMutability": "view",
      "type": "function"
    }
  ],
  "bytecode": "0x60806040526040518060400160405280600981526020017f44414f20746f6b656e000000000000000000000000000000000000000000000081525060089080519060200190620000519291906200060d565b506040518060400160405280600481526020017f7844414f00000000000000000000000000000000000000000000000000000000815250600990805190602001906200009f9291906200060d565b506b033b2e3c9fd0803ce8000000600a556040518060200160405280735b38da6a701c568545dcfcb03fcb875f56beddc473ffffffffffffffffffffffffffffffffffffffff1673ffffffffffffffffffffffffffffffffffffffff16815250600b906001620001119291906200069e565b5060405180602001604052806b033b2e3c9fd0803ce80000006bffffffffffffffffffffffff16815250600c9060016200014d9291906200072d565b503480156200015b57600080fd5b50600860039080546200016e9062000875565b6200017b9291906200078f565b50600960049080546200018e9062000875565b6200019b9291906200078f565b50620001b033600a54620002ec60201b60201c565b600c80549050600b8054905014620001ff576040517f08c379a0000000000000000000000000000000000000000000000000000000008152600401620001f69062000932565b60405180910390fd5b6000600b80549050116200024a576040517f08c379a00000000000000000000000000000000000000000000000000000000081526004016200024190620009a4565b60405180910390fd5b60005b600b80549050811015620002e557620002cf600b8281548110620002765762000275620009c6565b5b9060005260206000200160009054906101000a900473ffffffffffffffffffffffffffffffffffffffff16600c8381548110620002b857620002b7620009c6565b5b90600052602060002001546200046560201b60201c565b8080620002dc9062000a2e565b9150506200024d565b5062000cf5565b600073ffffffffffffffffffffffffffffffffffffffff168273ffffffffffffffffffffffffffffffffffffffff1614156200035f576040517f08c379a0000000000000000000000000000000000000000000000000000000008152600401620003569062000acc565b60405180910390fd5b62000373600083836200060360201b60201c565b806002600082825462000387919062000aee565b92505081905550806000808473ffffffffffffffffffffffffffffffffffffffff1673ffffffffffffffffffffffffffffffffffffffff1681526020019081526020016000206000828254620003de919062000aee565b925050819055508173ffffffffffffffffffffffffffffffffffffffff16600073ffffffffffffffffffffffffffffffffffffffff167fddf252ad1be2c89b69c2b068fc378daa952ba7f163c4a11628f55a4df523b3ef8360405162000445919062000b5c565b60405180910390a362000461600083836200060860201b60201c565b5050565b600073ffffffffffffffffffffffffffffffffffffffff168273ffffffffffffffffffffffffffffffffffffffff161415620004d8576040517f08c379a0000000000000000000000000000000000000000000000000000000008152600401620004cf9062000bef565b60405180910390fd5b600081116200051e576040517f08c379a0000000000000000000000000000000000000000000000000000000008152600401620005159062000c61565b60405180910390fd5b6007829080600181540180825580915050600190039060005260206000200160009091909190916101000a81548173ffffffffffffffffffffffffffffffffffffffff021916908373ffffffffffffffffffffffffffffffffffffffff160217905550806000808473ffffffffffffffffffffffffffffffffffffffff1673ffffffffffffffffffffffffffffffffffffffff168152602001908152602001600020819055507f40c340f65e17194d14ddddb073d3c9f888e3cb52b5aae0c6c7706b4fbc905fac8282604051620005f792919062000cc8565b60405180910390a15050565b505050565b505050565b8280546200061b9062000875565b90600052602060002090601f0160209004810192826200063f57600085556200068b565b82601f106200065a57805160ff19168380011785556200068b565b828001600101855582156200068b579182015b828111156200068a5782518255916020019190600101906200066d565b5b5090506200069a919062000827565b5090565b8280548282559060005260206000209081019282156200071a579160200282015b82811115620007195782518260006101000a81548173ffffffffffffffffffffffffffffffffffffffff021916908373ffffffffffffffffffffffffffffffffffffffff16021790555091602001919060010190620006bf565b5b50905062000729919062000827565b5090565b8280548282559060005260206000209081019282156200077c579160200282015b828111156200077b57825182906bffffffffffffffffffffffff169055916020019190600101906200074e565b5b5090506200078b919062000827565b5090565b8280546200079d9062000875565b90600052602060002090601f016020900481019282620007c1576000855562000814565b82601f10620007d4578054855562000814565b828001600101855582156200081457600052602060002091601f016020900482015b8281111562000813578254825591600101919060010190620007f6565b5b50905062000823919062000827565b5090565b5b808211156200084257600081600090555060010162000828565b5090565b7f4e487b7100000000000000000000000000000000000000000000000000000000600052602260045260246000fd5b600060028204905060018216806200088e57607f821691505b60208210811415620008a557620008a462000846565b5b50919050565b600082825260208201905092915050565b7f5061796d656e7453706c69747465723a2070617965657320616e64207368617260008201527f6573206c656e677468206d69736d617463680000000000000000000000000000602082015250565b60006200091a603283620008ab565b91506200092782620008bc565b604082019050919050565b600060208201905081810360008301526200094d816200090b565b9050919050565b7f5061796d656e7453706c69747465723a206e6f20706179656573000000000000600082015250565b60006200098c601a83620008ab565b9150620009998262000954565b602082019050919050565b60006020820190508181036000830152620009bf816200097d565b9050919050565b7f4e487b7100000000000000000000000000000000000000000000000000000000600052603260045260246000fd5b7f4e487b7100000000000000000000000000000000000000000000000000000000600052601160045260246000fd5b6000819050919050565b600062000a3b8262000a24565b91507fffffffffffffffffffffffffffffffffffffffffffffffffffffffffffffffff82141562000a715762000a70620009f5565b5b600182019050919050565b7f45524332303a206d696e7420746f20746865207a65726f206164647265737300600082015250565b600062000ab4601f83620008ab565b915062000ac18262000a7c565b602082019050919050565b6000602082019050818103600083015262000ae78162000aa5565b9050919050565b600062000afb8262000a24565b915062000b088362000a24565b9250827fffffffffffffffffffffffffffffffffffffffffffffffffffffffffffffffff0382111562000b405762000b3f620009f5565b5b828201905092915050565b62000b568162000a24565b82525050565b600060208201905062000b73600083018462000b4b565b92915050565b7f5061796d656e7453706c69747465723a206163636f756e74206973207468652060008201527f7a65726f20616464726573730000000000000000000000000000000000000000602082015250565b600062000bd7602c83620008ab565b915062000be48262000b79565b604082019050919050565b6000602082019050818103600083015262000c0a8162000bc8565b9050919050565b7f5061796d656e7453706c69747465723a20736861726573206172652030000000600082015250565b600062000c49601d83620008ab565b915062000c568262000c11565b602082019050919050565b6000602082019050818103600083015262000c7c8162000c3a565b9050919050565b600073ffffffffffffffffffffffffffffffffffffffff82169050919050565b600062000cb08262000c83565b9050919050565b62000cc28162000ca3565b82525050565b600060408201905062000cdf600083018562000cb7565b62000cee602083018462000b4b565b9392505050565b611aaa8062000d056000396000f3fe6080604052600436106101395760003560e01c80636ebcf607116100ab578063a457c2d71161006f578063a457c2d7146104d7578063a9059cbb14610514578063ce7c2ac214610551578063dd62ed3e1461058e578063e1b0311f146105cb578063e33b7de31461060857610180565b80636ebcf607146103b857806370a08231146103f55780638b83209b1461043257806395d89b411461046f5780639852595c1461049a57610180565b806323b872dd116100fd57806323b872dd14610280578063283248be146102bd578063313ce567146102fa57806339509351146103255780633a7d7d39146103625780633eaaf86b1461038d57610180565b8063024c2ddd1461018557806306fdde03146101c2578063095ea7b3146101ed57806312065fe01461022a57806318160ddd1461025557610180565b36610180577f6ef95f06320e7a25a04a175ca677b7052bdd97131872c2192525a629f51be770610167610633565b34604051610176929190611250565b60405180910390a1005b600080fd5b34801561019157600080fd5b506101ac60048036038101906101a791906112aa565b61063b565b6040516101b991906112ea565b60405180910390f35b3480156101ce57600080fd5b506101d7610660565b6040516101e4919061139e565b60405180910390f35b3480156101f957600080fd5b50610214600480360381019061020f91906113ec565b6106f2565b6040516102219190611447565b60405180910390f35b34801561023657600080fd5b5061023f610710565b60405161024c91906112ea565b60405180910390f35b34801561026157600080fd5b5061026a610718565b60405161027791906112ea565b60405180910390f35b34801561028c57600080fd5b506102a760048036038101906102a29190611462565b610722565b6040516102b49190611447565b60405180910390f35b3480156102c957600080fd5b506102e460048036038101906102df91906114b5565b61081a565b6040516102f191906114e2565b60405180910390f35b34801561030657600080fd5b5061030f610859565b60405161031c9190611519565b60405180910390f35b34801561033157600080fd5b5061034c600480360381019061034791906113ec565b610862565b6040516103599190611447565b60405180910390f35b34801561036e57600080fd5b5061037761090e565b60405161038491906112ea565b60405180910390f35b34801561039957600080fd5b506103a2610914565b6040516103af91906112ea565b60405180910390f35b3480156103c457600080fd5b506103df60048036038101906103da9190611534565b61091a565b6040516103ec91906112ea565b60405180910390f35b34801561040157600080fd5b5061041c60048036038101906104179190611534565b610932565b60405161042991906112ea565b60405180910390f35b34801561043e57600080fd5b50610459600480360381019061045491906114b5565b61097a565b60405161046691906114e2565b60405180910390f35b34801561047b57600080fd5b506104846109c2565b604051610491919061139e565b60405180910390f35b3480156104a657600080fd5b506104c160048036038101906104bc9190611534565b610a54565b6040516104ce91906112ea565b60405180910390f35b3480156104e357600080fd5b506104fe60048036038101906104f991906113ec565b610a9d565b60405161050b9190611447565b60405180910390f35b34801561052057600080fd5b5061053b600480360381019061053691906113ec565b610b88565b6040516105489190611447565b60405180910390f35b34801561055d57600080fd5b5061057860048036038101906105739190611534565b610ba6565b60405161058591906112ea565b60405180910390f35b34801561059a57600080fd5b506105b560048036038101906105b091906112aa565b610bee565b6040516105c291906112ea565b60405180910390f35b3480156105d757600080fd5b506105f260048036038101906105ed9190611534565b610c75565b6040516105ff91906112ea565b60405180910390f35b34801561061457600080fd5b5061061d610c8d565b60405161062a91906112ea565b60405180910390f35b600033905090565b6001602052816000526040600020602052806000526040600020600091509150505481565b60606003805461066f90611590565b80601f016020809104026020016040519081016040528092919081815260200182805461069b90611590565b80156106e85780601f106106bd576101008083540402835291602001916106e8565b820191906000526020600020905b8154815290600101906020018083116106cb57829003601f168201915b5050505050905090565b60006107066106ff610633565b8484610c97565b6001905092915050565b600047905090565b6000600254905090565b600061072f848484610e62565b6000600160008673ffffffffffffffffffffffffffffffffffffffff1673ffffffffffffffffffffffffffffffffffffffff168152602001908152602001600020600061077a610633565b73ffffffffffffffffffffffffffffffffffffffff1673ffffffffffffffffffffffffffffffffffffffff168152602001908152602001600020549050828110156107fa576040517f08c379a00000000000000000000000000000000000000000000000000000000081526004016107f190611634565b60405180910390fd5b61080e85610806610633565b858403610c97565b60019150509392505050565b6007818154811061082a57600080fd5b906000526020600020016000915054906101000a900473ffffffffffffffffffffffffffffffffffffffff1681565b60006012905090565b600061090461086f610633565b84846001600061087d610633565b73ffffffffffffffffffffffffffffffffffffffff1673ffffffffffffffffffffffffffffffffffffffff16815260200190815260200160002060008873ffffffffffffffffffffffffffffffffffffffff1673ffffffffffffffffffffffffffffffffffffffff168152602001908152602001600020546108ff9190611683565b610c97565b6001905092915050565b60055481565b60025481565b60006020528060005260406000206000915090505481565b60008060008373ffffffffffffffffffffffffffffffffffffffff1673ffffffffffffffffffffffffffffffffffffffff168152602001908152602001600020549050919050565b6000600782815481106109905761098f6116d9565b5b9060005260206000200160009054906101000a900473ffffffffffffffffffffffffffffffffffffffff169050919050565b6060600480546109d190611590565b80601f01602080910402602001604051908101604052809291908181526020018280546109fd90611590565b8015610a4a5780601f10610a1f57610100808354040283529160200191610a4a565b820191906000526020600020905b815481529060010190602001808311610a2d57829003601f168201915b5050505050905090565b6000600660008373ffffffffffffffffffffffffffffffffffffffff1673ffffffffffffffffffffffffffffffffffffffff168152602001908152602001600020549050919050565b60008060016000610aac610633565b73ffffffffffffffffffffffffffffffffffffffff1673ffffffffffffffffffffffffffffffffffffffff16815260200190815260200160002060008573ffffffffffffffffffffffffffffffffffffffff1673ffffffffffffffffffffffffffffffffffffffff16815260200190815260200160002054905082811015610b69576040517f08c379a0000000000000000000000000000000000000000000000000000000008152600401610b609061177a565b60405180910390fd5b610b7d610b74610633565b85858403610c97565b600191505092915050565b6000610b9c610b95610633565b8484610e62565b6001905092915050565b60008060008373ffffffffffffffffffffffffffffffffffffffff1673ffffffffffffffffffffffffffffffffffffffff168152602001908152602001600020549050919050565b6000600160008473ffffffffffffffffffffffffffffffffffffffff1673ffffffffffffffffffffffffffffffffffffffff16815260200190815260200160002060008373ffffffffffffffffffffffffffffffffffffffff1673ffffffffffffffffffffffffffffffffffffffff16815260200190815260200160002054905092915050565b60066020528060005260406000206000915090505481565b6000600554905090565b600073ffffffffffffffffffffffffffffffffffffffff168373ffffffffffffffffffffffffffffffffffffffff161415610d07576040517f08c379a0000000000000000000000000000000000000000000000000000000008152600401610cfe9061180c565b60405180910390fd5b600073ffffffffffffffffffffffffffffffffffffffff168273ffffffffffffffffffffffffffffffffffffffff161415610d77576040517f08c379a0000000000000000000000000000000000000000000000000000000008152600401610d6e9061189e565b60405180910390fd5b80600160008573ffffffffffffffffffffffffffffffffffffffff1673ffffffffffffffffffffffffffffffffffffffff16815260200190815260200160002060008473ffffffffffffffffffffffffffffffffffffffff1673ffffffffffffffffffffffffffffffffffffffff168152602001908152602001600020819055508173ffffffffffffffffffffffffffffffffffffffff168373ffffffffffffffffffffffffffffffffffffffff167f8c5be1e5ebec7d5bd14f71427d1e84f3dd0314c0f7b2291e5b200ac8c7c3b92583604051610e5591906112ea565b60405180910390a3505050565b600073ffffffffffffffffffffffffffffffffffffffff168373ffffffffffffffffffffffffffffffffffffffff161415610ed2576040517f08c379a0000000000000000000000000000000000000000000000000000000008152600401610ec990611930565b60405180910390fd5b600073ffffffffffffffffffffffffffffffffffffffff168273ffffffffffffffffffffffffffffffffffffffff161415610f42576040517f08c379a0000000000000000000000000000000000000000000000000000000008152600401610f39906119c2565b60405180910390fd5b610f4d8383836111ec565b60008060008573ffffffffffffffffffffffffffffffffffffffff1673ffffffffffffffffffffffffffffffffffffffff16815260200190815260200160002054905081811015610fd3576040517f08c379a0000000000000000000000000000000000000000000000000000000008152600401610fca90611a54565b60405180910390fd5b8181036000808673ffffffffffffffffffffffffffffffffffffffff1673ffffffffffffffffffffffffffffffffffffffff16815260200190815260200160002081905550816000808573ffffffffffffffffffffffffffffffffffffffff1673ffffffffffffffffffffffffffffffffffffffff16815260200190815260200160002060008282546110669190611683565b925050819055506007839080600181540180825580915050600190039060005260206000200160009091909190916101000a81548173ffffffffffffffffffffffffffffffffffffffff021916908373ffffffffffffffffffffffffffffffffffffffff1602179055508273ffffffffffffffffffffffffffffffffffffffff168473ffffffffffffffffffffffffffffffffffffffff167fddf252ad1be2c89b69c2b068fc378daa952ba7f163c4a11628f55a4df523b3ef8460405161112d91906112ea565b60405180910390a36111408484846111f1565b6007839080600181540180825580915050600190039060005260206000200160009091909190916101000a81548173ffffffffffffffffffffffffffffffffffffffff021916908373ffffffffffffffffffffffffffffffffffffffff160217905550816000808573ffffffffffffffffffffffffffffffffffffffff1673ffffffffffffffffffffffffffffffffffffffff1681526020019081526020016000208190555050505050565b505050565b505050565b600073ffffffffffffffffffffffffffffffffffffffff82169050919050565b6000611221826111f6565b9050919050565b61123181611216565b82525050565b6000819050919050565b61124a81611237565b82525050565b60006040820190506112656000830185611228565b6112726020830184611241565b9392505050565b600080fd5b61128781611216565b811461129257600080fd5b50565b6000813590506112a48161127e565b92915050565b600080604083850312156112c1576112c0611279565b5b60006112cf85828601611295565b92505060206112e085828601611295565b9150509250929050565b60006020820190506112ff6000830184611241565b92915050565b600081519050919050565b600082825260208201905092915050565b60005b8381101561133f578082015181840152602081019050611324565b8381111561134e576000848401525b50505050565b6000601f19601f8301169050919050565b600061137082611305565b61137a8185611310565b935061138a818560208601611321565b61139381611354565b840191505092915050565b600060208201905081810360008301526113b88184611365565b905092915050565b6113c981611237565b81146113d457600080fd5b50565b6000813590506113e6816113c0565b92915050565b6000806040838503121561140357611402611279565b5b600061141185828601611295565b9250506020611422858286016113d7565b9150509250929050565b60008115159050919050565b6114418161142c565b82525050565b600060208201905061145c6000830184611438565b92915050565b60008060006060848603121561147b5761147a611279565b5b600061148986828701611295565b935050602061149a86828701611295565b92505060406114ab868287016113d7565b9150509250925092565b6000602082840312156114cb576114ca611279565b5b60006114d9848285016113d7565b91505092915050565b60006020820190506114f76000830184611228565b92915050565b600060ff82169050919050565b611513816114fd565b82525050565b600060208201905061152e600083018461150a565b92915050565b60006020828403121561154a57611549611279565b5b600061155884828501611295565b91505092915050565b7f4e487b7100000000000000000000000000000000000000000000000000000000600052602260045260246000fd5b600060028204905060018216806115a857607f821691505b602082108114156115bc576115bb611561565b5b50919050565b7f45524332303a207472616e7366657220616d6f756e742065786365656473206160008201527f6c6c6f77616e6365000000000000000000000000000000000000000000000000602082015250565b600061161e602883611310565b9150611629826115c2565b604082019050919050565b6000602082019050818103600083015261164d81611611565b9050919050565b7f4e487b7100000000000000000000000000000000000000000000000000000000600052601160045260246000fd5b600061168e82611237565b915061169983611237565b9250827fffffffffffffffffffffffffffffffffffffffffffffffffffffffffffffffff038211156116ce576116cd611654565b5b828201905092915050565b7f4e487b7100000000000000000000000000000000000000000000000000000000600052603260045260246000fd5b7f45524332303a2064656372656173656420616c6c6f77616e63652062656c6f7760008201527f207a65726f000000000000000000000000000000000000000000000000000000602082015250565b6000611764602583611310565b915061176f82611708565b604082019050919050565b6000602082019050818103600083015261179381611757565b9050919050565b7f45524332303a20617070726f76652066726f6d20746865207a65726f2061646460008201527f7265737300000000000000000000000000000000000000000000000000000000602082015250565b60006117f6602483611310565b91506118018261179a565b604082019050919050565b60006020820190508181036000830152611825816117e9565b9050919050565b7f45524332303a20617070726f766520746f20746865207a65726f20616464726560008201527f7373000000000000000000000000000000000000000000000000000000000000602082015250565b6000611888602283611310565b91506118938261182c565b604082019050919050565b600060208201905081810360008301526118b78161187b565b9050919050565b7f45524332303a207472616e736665722066726f6d20746865207a65726f20616460008201527f6472657373000000000000000000000000000000000000000000000000000000602082015250565b600061191a602583611310565b9150611925826118be565b604082019050919050565b600060208201905081810360008301526119498161190d565b9050919050565b7f45524332303a207472616e7366657220746f20746865207a65726f206164647260008201527f6573730000000000000000000000000000000000000000000000000000000000602082015250565b60006119ac602383611310565b91506119b782611950565b604082019050919050565b600060208201905081810360008301526119db8161199f565b9050919050565b7f45524332303a207472616e7366657220616d6f756e742065786365656473206260008201527f616c616e63650000000000000000000000000000000000000000000000000000602082015250565b6000611a3e602683611310565b9150611a49826119e2565b604082019050919050565b60006020820190508181036000830152611a6d81611a31565b905091905056fea2646970667358221220ec6d42338d013cf344b16b1bae1933d2198eca57bcd8ee76835211c6bb5e648d64736f6c634300080a0033",
  "immutableReferences": {},
  "source": "// SPDX-License-Identifier: MIT\npragma solidity ^0.8.0;\n\n\nimport \"../utils/Context.sol\";\nimport \"./IERC20.sol\";\nimport \"./IERC20Metadata.sol\";\n\nimport \"../utils/SafeMath.sol\";\nimport \"../utils/Address.sol\";\n\n\n/**\nimport \"https://github.com/OpenZeppelin/openzeppelin-contracts/blob/4c8642b70aadbac89e2b5a55f49890cd4281546e/contracts/token/ERC20/IERC20.sol\";\nimport \"https://github.com/OpenZeppelin/openzeppelin-contracts/blob/4c8642b70aadbac89e2b5a55f49890cd4281546e/contracts/token/ERC20/extensions/IERC20Metadata.sol\";\nimport \"https://github.com/OpenZeppelin/openzeppelin-contracts/blob/4c8642b70aadbac89e2b5a55f49890cd4281546e/contracts/utils/Context.sol\";\n\nimport \"https://github.com/OpenZeppelin/openzeppelin-contracts/blob/4c8642b70aadbac89e2b5a55f49890cd4281546e/contracts/utils/math/SafeMath.sol\";\nimport \"https://github.com/OpenZeppelin/openzeppelin-contracts/blob/4c8642b70aadbac89e2b5a55f49890cd4281546e/contracts/utils/Address.sol\";\n*/\n\n\ncontract ERC20 is Context, IERC20, IERC20Metadata {\n\n    mapping(address => uint256) public _balances;\n\n    mapping(address => mapping(address => uint256)) public _allowances;\n    \n    uint256 public _totalSupply;\n\n    string private _name;\n    string private _symbol;\n    \n    \n    event PayeeAdded(address account, uint256 shares);\n    event PaymentReleased(address to, uint256 amount);\n    event PaymentReceived(address from, uint256 amount);\n    \n    \n    uint256 public _totalReleased;\n    \n    mapping(address => uint256) public _released;\n    address[] public _payees;\n    \n    \n    // hardcoded the constructor for faster development... more warnings but its ok for now... 1B supply\n    string name_ = \"DAO token\";\n    string symbol_ = \"xDAO\";\n    uint supply = 1000000000000000000000000000;\n    address[] payees = [0x5B38Da6a701c568545dCfcB03FcB875f56beddC4];\n    uint256[] amount= [1000000000000000000000000000];\n    \n\n    constructor(\n        \n        /**\n        string memory name_, \n        string memory symbol_, \n        uint supply,\n        address[] memory payees, \n        uint256[] memory amount) payable {\n        */\n\n        ) {\n\n        _name = name_;\n        _symbol = symbol_;\n        _mint(msg.sender, supply);\n        require(payees.length == amount.length, \"PaymentSplitter: payees and shares length mismatch\");\n        require(payees.length > 0, \"PaymentSplitter: no payees\");\n        \n        for (uint256 i = 0; i < payees.length; i++) {\n            _addPayee(payees[i], amount[i]);\n        }\n      \n    }\n    \n\n    // this function is for the dividend payout functionality \n    function _addPayee(address account, uint256 amount) private {\n        require(account != address(0), \"PaymentSplitter: account is the zero address\");\n        require(amount > 0, \"PaymentSplitter: shares are 0\");\n        /** require(_balances[account] == 0, \"PaymentSplitter: account already has shares\"); **/\n\n        _payees.push(account);\n        _balances[account] = amount;\n        \n        emit PayeeAdded(account, amount);\n    }\n\n\n    function name() public view virtual override returns (string memory) {\n        return _name;\n    }\n    \n\n    function symbol() public view virtual override returns (string memory) {\n        return _symbol;\n    }\n    \n\n    function decimals() public view virtual override returns (uint8) {\n        return 18;\n    }\n    \n\n    function totalSupply() public view virtual override returns (uint256) {\n        return _totalSupply;\n    }\n    \n    \n    function balanceOf(address account) public view virtual override returns (uint256) {\n        return _balances[account];\n    }\n    \n\n    function transfer(address recipient, uint256 amount) public virtual override returns (bool) {\n        _transfer(_msgSender(), recipient, amount);\n        return true;\n    }\n\n\n    function allowance(address owner, address spender) public view virtual override returns (uint256) {\n        return _allowances[owner][spender];\n    }\n    \n\n    function approve(address spender, uint256 amount) public virtual override returns (bool) {\n        _approve(_msgSender(), spender, amount);\n        return true;\n    }\n    \n    \n    function transferFrom(\n        address sender,\n        address recipient,\n        uint256 amount\n    ) public virtual override returns (bool) {\n        _transfer(sender, recipient, amount);\n\n        uint256 currentAllowance = _allowances[sender][_msgSender()];\n        require(currentAllowance >= amount, \"ERC20: transfer amount exceeds allowance\");\n        unchecked {\n            _approve(sender, _msgSender(), currentAllowance - amount);\n        }\n\n        return true;\n    }\n    \n\n    function increaseAllowance(address spender, uint256 addedValue) public virtual returns (bool) {\n        _approve(_msgSender(), spender, _allowances[_msgSender()][spender] + addedValue);\n        return true;\n    }\n\n\n    function decreaseAllowance(address spender, uint256 subtractedValue) public virtual returns (bool) {\n        uint256 currentAllowance = _allowances[_msgSender()][spender];\n        require(currentAllowance >= subtractedValue, \"ERC20: decreased allowance below zero\");\n        unchecked {\n            _approve(_msgSender(), spender, currentAllowance - subtractedValue);\n        }\n\n        return true;\n    }\n    \n\n    function _transfer(\n        address sender,\n        address recipient,\n        uint256 amount\n    ) internal virtual {\n        require(sender != address(0), \"ERC20: transfer from the zero address\");\n        require(recipient != address(0), \"ERC20: transfer to the zero address\");\n\n        _beforeTokenTransfer(sender, recipient, amount);\n\n        uint256 senderBalance = _balances[sender];\n        require(senderBalance >= amount, \"ERC20: transfer amount exceeds balance\");\n        unchecked {\n            _balances[sender] = senderBalance - amount;\n  \n        }\n        \n        _balances[recipient] += amount;\n        _payees.push(recipient);\n        \n        emit Transfer(sender, recipient, amount);\n        _afterTokenTransfer(sender, recipient, amount);\n        \n        //** adds new account to _payees array and how many \n        _payees.push(recipient);\n        _balances[recipient] = amount;\n\n    }\n\n\n    function _mint(address account, uint256 amount) internal virtual {\n        require(account != address(0), \"ERC20: mint to the zero address\");\n\n        _beforeTokenTransfer(address(0), account, amount);\n\n        _totalSupply += amount;\n        _balances[account] += amount;\n        emit Transfer(address(0), account, amount);\n\n        _afterTokenTransfer(address(0), account, amount);\n    }\n\n\n    function _burn(address account, uint256 amount) internal virtual {\n        require(account != address(0), \"ERC20: burn from the zero address\");\n\n        _beforeTokenTransfer(account, address(0), amount);\n\n        uint256 accountBalance = _balances[account];\n        require(accountBalance >= amount, \"ERC20: burn amount exceeds balance\");\n        unchecked {\n            _balances[account] = accountBalance - amount;\n        }\n        _totalSupply -= amount;\n\n        emit Transfer(account, address(0), amount);\n\n        _afterTokenTransfer(account, address(0), amount);\n    }\n\n\n    function _approve(\n        address owner,\n        address spender,\n        uint256 amount\n    ) internal virtual {\n        require(owner != address(0), \"ERC20: approve from the zero address\");\n        require(spender != address(0), \"ERC20: approve to the zero address\");\n\n        _allowances[owner][spender] = amount;\n        emit Approval(owner, spender, amount);\n    }\n\n\n    function _beforeTokenTransfer(\n        address from,\n        address to,\n        uint256 amount\n    ) internal virtual {}\n\n\n\n    function _afterTokenTransfer(\n        address from,\n        address to,\n        uint256 amount\n    ) internal virtual {}\n\n    \n    receive() external payable virtual {\n        emit PaymentReceived(_msgSender(), msg.value);\n    }\n    \n    \n    function getBalance() public view returns(uint){\n        return address(this).balance;\n    }\n    \n\n    // Getter for the total amount of Ether already released.\n    function totalReleased() public view returns (uint256) {\n        return _totalReleased;\n    }\n\n\n    // Getter for the amount of shares held by an account.\n    function shares(address account) public view returns (uint256) {\n        return _balances[account];\n    }\n\n\n    // Getter for the amount of Ether already released to a shareholder.\n    function released(address account) public view returns (uint256) {\n        return _released[account];\n    }\n\n\n    // Getter for the address of the payee number `index`.\n    function payee(uint256 index) public view returns (address) {\n        return _payees[index];\n    }\n    \n\n}",
  "sourcePath": "/home/ubuntu/Desktop/dev/DividendPayingDAO/contracts/ERC20/ERC20.sol",
  "compiler": {
    "name": "solc",
    "version": "0.8.10+commit.fc410830.Emscripten.clang"
  },
  "schemaVersion": "3.4.3",
  "updatedAt": "2021-11-19T10:11:28.308Z",
  "devdoc": {
    "kind": "dev",
    "methods": {
      "allowance(address,address)": {
        "details": "Returns the remaining number of tokens that `spender` will be allowed to spend on behalf of `owner` through {transferFrom}. This is zero by default. This value changes when {approve} or {transferFrom} are called."
      },
      "approve(address,uint256)": {
        "details": "Sets `amount` as the allowance of `spender` over the caller's tokens. Returns a boolean value indicating whether the operation succeeded. IMPORTANT: Beware that changing an allowance with this method brings the risk that someone may use both the old and the new allowance by unfortunate transaction ordering. One possible solution to mitigate this race condition is to first reduce the spender's allowance to 0 and set the desired value afterwards: https://github.com/ethereum/EIPs/issues/20#issuecomment-263524729 Emits an {Approval} event."
      },
      "balanceOf(address)": {
        "details": "Returns the amount of tokens owned by `account`."
      },
      "decimals()": {
        "details": "Returns the decimals places of the token."
      },
      "name()": {
        "details": "Returns the name of the token."
      },
      "symbol()": {
        "details": "Returns the symbol of the token."
      },
      "totalSupply()": {
        "details": "Returns the amount of tokens in existence."
      },
      "transfer(address,uint256)": {
        "details": "Moves `amount` tokens from the caller's account to `recipient`. Returns a boolean value indicating whether the operation succeeded. Emits a {Transfer} event."
      },
      "transferFrom(address,address,uint256)": {
        "details": "Moves `amount` tokens from `sender` to `recipient` using the allowance mechanism. `amount` is then deducted from the caller's allowance. Returns a boolean value indicating whether the operation succeeded. Emits a {Transfer} event."
      }
    },
    "version": 1
  },
  "userdoc": {
    "kind": "user",
    "methods": {},
    "notice": "import \"https://github.com/OpenZeppelin/openzeppelin-contracts/blob/4c8642b70aadbac89e2b5a55f49890cd4281546e/contracts/token/ERC20/IERC20.sol\"; import \"https://github.com/OpenZeppelin/openzeppelin-contracts/blob/4c8642b70aadbac89e2b5a55f49890cd4281546e/contracts/token/ERC20/extensions/IERC20Metadata.sol\"; import \"https://github.com/OpenZeppelin/openzeppelin-contracts/blob/4c8642b70aadbac89e2b5a55f49890cd4281546e/contracts/utils/Context.sol\"; import \"https://github.com/OpenZeppelin/openzeppelin-contracts/blob/4c8642b70aadbac89e2b5a55f49890cd4281546e/contracts/utils/math/SafeMath.sol\"; import \"https://github.com/OpenZeppelin/openzeppelin-contracts/blob/4c8642b70aadbac89e2b5a55f49890cd4281546e/contracts/utils/Address.sol\";",
    "version": 1
  }
}