{
  "contractName": "ERC20",
  "abi": [
    {
      "inputs": [],
      "stateMutability": "nonpayable",
      "type": "constructor"
    },
    {
      "inputs": [],
      "name": "voteAlreadyEnded",
      "type": "error"
    },
    {
      "inputs": [],
      "name": "voteNotYetEnded",
      "type": "error"
    },
    {
      "anonymous": false,
      "inputs": [
        {
          "indexed": true,
          "internalType": "address",
          "name": "owner",
          "type": "address"
        },
        {
          "indexed": true,
          "internalType": "address",
          "name": "spender",
          "type": "address"
        },
        {
          "indexed": false,
          "internalType": "uint256",
          "name": "value",
          "type": "uint256"
        }
      ],
      "name": "Approval",
      "type": "event"
    },
    {
      "anonymous": false,
      "inputs": [
        {
          "indexed": false,
          "internalType": "address",
          "name": "account",
          "type": "address"
        },
        {
          "indexed": false,
          "internalType": "uint256",
          "name": "shares",
          "type": "uint256"
        }
      ],
      "name": "PayeeAdded",
      "type": "event"
    },
    {
      "anonymous": false,
      "inputs": [
        {
          "indexed": false,
          "internalType": "address",
          "name": "from",
          "type": "address"
        },
        {
          "indexed": false,
          "internalType": "uint256",
          "name": "amount",
          "type": "uint256"
        }
      ],
      "name": "PaymentReceived",
      "type": "event"
    },
    {
      "anonymous": false,
      "inputs": [
        {
          "indexed": false,
          "internalType": "address",
          "name": "to",
          "type": "address"
        },
        {
          "indexed": false,
          "internalType": "uint256",
          "name": "amount",
          "type": "uint256"
        }
      ],
      "name": "PaymentReleased",
      "type": "event"
    },
    {
      "anonymous": false,
      "inputs": [
        {
          "indexed": true,
          "internalType": "address",
          "name": "from",
          "type": "address"
        },
        {
          "indexed": true,
          "internalType": "address",
          "name": "to",
          "type": "address"
        },
        {
          "indexed": false,
          "internalType": "uint256",
          "name": "value",
          "type": "uint256"
        }
      ],
      "name": "Transfer",
      "type": "event"
    },
    {
      "inputs": [],
      "name": "_totalReleased",
      "outputs": [
        {
          "internalType": "uint256",
          "name": "",
          "type": "uint256"
        }
      ],
      "stateMutability": "view",
      "type": "function"
    },
    {
      "inputs": [],
      "name": "_totalUserReleased",
      "outputs": [
        {
          "internalType": "uint256",
          "name": "",
          "type": "uint256"
        }
      ],
      "stateMutability": "view",
      "type": "function"
    },
    {
      "inputs": [],
      "name": "dividend",
      "outputs": [
        {
          "internalType": "uint256",
          "name": "",
          "type": "uint256"
        }
      ],
      "stateMutability": "view",
      "type": "function"
    },
    {
      "inputs": [
        {
          "internalType": "uint256",
          "name": "",
          "type": "uint256"
        }
      ],
      "name": "proposals",
      "outputs": [
        {
          "internalType": "uint256",
          "name": "fee",
          "type": "uint256"
        },
        {
          "internalType": "uint256",
          "name": "voteCount",
          "type": "uint256"
        }
      ],
      "stateMutability": "view",
      "type": "function"
    },
    {
      "inputs": [],
      "name": "quorum",
      "outputs": [
        {
          "internalType": "uint256",
          "name": "",
          "type": "uint256"
        }
      ],
      "stateMutability": "view",
      "type": "function"
    },
    {
      "inputs": [],
      "name": "voteEndTime",
      "outputs": [
        {
          "internalType": "uint256",
          "name": "",
          "type": "uint256"
        }
      ],
      "stateMutability": "view",
      "type": "function"
    },
    {
      "inputs": [
        {
          "internalType": "uint256",
          "name": "",
          "type": "uint256"
        }
      ],
      "name": "voterAddress",
      "outputs": [
        {
          "internalType": "address",
          "name": "",
          "type": "address"
        }
      ],
      "stateMutability": "view",
      "type": "function"
    },
    {
      "inputs": [
        {
          "internalType": "address",
          "name": "",
          "type": "address"
        }
      ],
      "name": "voters",
      "outputs": [
        {
          "internalType": "uint256",
          "name": "weight",
          "type": "uint256"
        },
        {
          "internalType": "bool",
          "name": "voted",
          "type": "bool"
        },
        {
          "internalType": "address",
          "name": "delegate",
          "type": "address"
        },
        {
          "internalType": "uint256",
          "name": "vote",
          "type": "uint256"
        }
      ],
      "stateMutability": "view",
      "type": "function"
    },
    {
      "stateMutability": "payable",
      "type": "receive"
    },
    {
      "inputs": [
        {
          "internalType": "address payable",
          "name": "account",
          "type": "address"
        }
      ],
      "name": "userRelease",
      "outputs": [],
      "stateMutability": "nonpayable",
      "type": "function"
    },
    {
      "inputs": [],
      "name": "contractDonation",
      "outputs": [],
      "stateMutability": "payable",
      "type": "function"
    },
    {
      "inputs": [
        {
          "internalType": "uint256",
          "name": "fee",
          "type": "uint256"
        }
      ],
      "name": "updateFee",
      "outputs": [],
      "stateMutability": "nonpayable",
      "type": "function"
    },
    {
      "inputs": [],
      "name": "getfee",
      "outputs": [
        {
          "internalType": "uint256",
          "name": "",
          "type": "uint256"
        }
      ],
      "stateMutability": "view",
      "type": "function"
    },
    {
      "inputs": [],
      "name": "owner",
      "outputs": [
        {
          "internalType": "address",
          "name": "",
          "type": "address"
        }
      ],
      "stateMutability": "view",
      "type": "function"
    },
    {
      "inputs": [
        {
          "internalType": "address",
          "name": "account",
          "type": "address"
        }
      ],
      "name": "getUserBalance",
      "outputs": [
        {
          "internalType": "uint256",
          "name": "",
          "type": "uint256"
        }
      ],
      "stateMutability": "view",
      "type": "function"
    },
    {
      "inputs": [],
      "name": "totalUserReleased",
      "outputs": [
        {
          "internalType": "uint256",
          "name": "",
          "type": "uint256"
        }
      ],
      "stateMutability": "nonpayable",
      "type": "function"
    },
    {
      "inputs": [
        {
          "internalType": "address",
          "name": "account",
          "type": "address"
        }
      ],
      "name": "releasedinit",
      "outputs": [
        {
          "internalType": "uint256",
          "name": "",
          "type": "uint256"
        }
      ],
      "stateMutability": "nonpayable",
      "type": "function"
    },
    {
      "inputs": [],
      "name": "seeDividend",
      "outputs": [
        {
          "internalType": "uint256",
          "name": "",
          "type": "uint256"
        }
      ],
      "stateMutability": "view",
      "type": "function"
    },
    {
      "inputs": [
        {
          "internalType": "uint256[]",
          "name": "proposalNames",
          "type": "uint256[]"
        }
      ],
      "name": "createProposal",
      "outputs": [],
      "stateMutability": "payable",
      "type": "function"
    },
    {
      "inputs": [
        {
          "internalType": "address",
          "name": "account",
          "type": "address"
        }
      ],
      "name": "minimumPercentageProposalCreation",
      "outputs": [
        {
          "internalType": "uint256",
          "name": "",
          "type": "uint256"
        }
      ],
      "stateMutability": "view",
      "type": "function"
    },
    {
      "inputs": [
        {
          "internalType": "uint256",
          "name": "proposal",
          "type": "uint256"
        }
      ],
      "name": "vote",
      "outputs": [],
      "stateMutability": "nonpayable",
      "type": "function"
    },
    {
      "inputs": [],
      "name": "countVote",
      "outputs": [
        {
          "internalType": "uint256",
          "name": "winningProposal_",
          "type": "uint256"
        }
      ],
      "stateMutability": "view",
      "type": "function"
    },
    {
      "inputs": [],
      "name": "EndVote",
      "outputs": [],
      "stateMutability": "nonpayable",
      "type": "function"
    },
    {
      "inputs": [],
      "name": "name",
      "outputs": [
        {
          "internalType": "string",
          "name": "",
          "type": "string"
        }
      ],
      "stateMutability": "view",
      "type": "function"
    },
    {
      "inputs": [],
      "name": "symbol",
      "outputs": [
        {
          "internalType": "string",
          "name": "",
          "type": "string"
        }
      ],
      "stateMutability": "view",
      "type": "function"
    },
    {
      "inputs": [],
      "name": "decimals",
      "outputs": [
        {
          "internalType": "uint8",
          "name": "",
          "type": "uint8"
        }
      ],
      "stateMutability": "view",
      "type": "function"
    },
    {
      "inputs": [],
      "name": "totalSupply",
      "outputs": [
        {
          "internalType": "uint256",
          "name": "",
          "type": "uint256"
        }
      ],
      "stateMutability": "view",
      "type": "function"
    },
    {
      "inputs": [
        {
          "internalType": "address",
          "name": "account",
          "type": "address"
        }
      ],
      "name": "balanceOf",
      "outputs": [
        {
          "internalType": "uint256",
          "name": "",
          "type": "uint256"
        }
      ],
      "stateMutability": "view",
      "type": "function"
    },
    {
      "inputs": [
        {
          "internalType": "address",
          "name": "recipient",
          "type": "address"
        }
      ],
      "name": "transfer",
      "outputs": [],
      "stateMutability": "payable",
      "type": "function"
    },
    {
      "inputs": [
        {
          "internalType": "address",
          "name": "recipient",
          "type": "address"
        },
        {
          "internalType": "uint256",
          "name": "amount",
          "type": "uint256"
        }
      ],
      "name": "transfer",
      "outputs": [
        {
          "internalType": "bool",
          "name": "",
          "type": "bool"
        }
      ],
      "stateMutability": "nonpayable",
      "type": "function"
    },
    {
      "inputs": [
        {
          "internalType": "address",
          "name": "owner",
          "type": "address"
        },
        {
          "internalType": "address",
          "name": "spender",
          "type": "address"
        }
      ],
      "name": "allowance",
      "outputs": [
        {
          "internalType": "uint256",
          "name": "",
          "type": "uint256"
        }
      ],
      "stateMutability": "view",
      "type": "function"
    },
    {
      "inputs": [
        {
          "internalType": "address",
          "name": "spender",
          "type": "address"
        },
        {
          "internalType": "uint256",
          "name": "amount",
          "type": "uint256"
        }
      ],
      "name": "approve",
      "outputs": [
        {
          "internalType": "bool",
          "name": "",
          "type": "bool"
        }
      ],
      "stateMutability": "nonpayable",
      "type": "function"
    },
    {
      "inputs": [
        {
          "internalType": "address",
          "name": "sender",
          "type": "address"
        },
        {
          "internalType": "address",
          "name": "recipient",
          "type": "address"
        },
        {
          "internalType": "uint256",
          "name": "amount",
          "type": "uint256"
        }
      ],
      "name": "transferFrom",
      "outputs": [
        {
          "internalType": "bool",
          "name": "",
          "type": "bool"
        }
      ],
      "stateMutability": "nonpayable",
      "type": "function"
    },
    {
      "inputs": [
        {
          "internalType": "address",
          "name": "spender",
          "type": "address"
        },
        {
          "internalType": "uint256",
          "name": "addedValue",
          "type": "uint256"
        }
      ],
      "name": "increaseAllowance",
      "outputs": [
        {
          "internalType": "bool",
          "name": "",
          "type": "bool"
        }
      ],
      "stateMutability": "nonpayable",
      "type": "function"
    },
    {
      "inputs": [
        {
          "internalType": "address",
          "name": "spender",
          "type": "address"
        },
        {
          "internalType": "uint256",
          "name": "subtractedValue",
          "type": "uint256"
        }
      ],
      "name": "decreaseAllowance",
      "outputs": [
        {
          "internalType": "bool",
          "name": "",
          "type": "bool"
        }
      ],
      "stateMutability": "nonpayable",
      "type": "function"
    },
    {
      "inputs": [],
      "name": "getBalance",
      "outputs": [
        {
          "internalType": "uint256",
          "name": "",
          "type": "uint256"
        }
      ],
      "stateMutability": "view",
      "type": "function"
    },
    {
      "inputs": [],
      "name": "totalReleased",
      "outputs": [
        {
          "internalType": "uint256",
          "name": "",
          "type": "uint256"
        }
      ],
      "stateMutability": "view",
      "type": "function"
    },
    {
      "inputs": [
        {
          "internalType": "address",
          "name": "account",
          "type": "address"
        }
      ],
      "name": "shares",
      "outputs": [
        {
          "internalType": "uint256",
          "name": "",
          "type": "uint256"
        }
      ],
      "stateMutability": "view",
      "type": "function"
    },
    {
      "inputs": [
        {
          "internalType": "address",
          "name": "account",
          "type": "address"
        }
      ],
      "name": "released",
      "outputs": [
        {
          "internalType": "uint256",
          "name": "",
          "type": "uint256"
        }
      ],
      "stateMutability": "view",
      "type": "function"
    },
    {
      "inputs": [
        {
          "internalType": "uint256",
          "name": "index",
          "type": "uint256"
        }
      ],
      "name": "payee",
      "outputs": [
        {
          "internalType": "address",
          "name": "",
          "type": "address"
        }
      ],
      "stateMutability": "view",
      "type": "function"
    },
    {
      "inputs": [
        {
          "internalType": "address payable",
          "name": "account",
          "type": "address"
        }
      ],
      "name": "release",
      "outputs": [],
      "stateMutability": "nonpayable",
      "type": "function"
    }
  ],
  "bytecode": "0x6080604052600560035533600460006101000a81548173ffffffffffffffffffffffffffffffffffffffff021916908373ffffffffffffffffffffffffffffffffffffffff1602179055506a52b7d2dcc80cd2e40000006007556014600c556040518060400160405280600481526020017f617364660000000000000000000000000000000000000000000000000000000081525060169080519060200190620000ab92919062000669565b506040518060400160405280600381526020017f78797a000000000000000000000000000000000000000000000000000000000081525060179080519060200190620000f992919062000669565b506b033b2e3c9fd0803ce80000006018556040518060200160405280735b38da6a701c568545dcfcb03fcb875f56beddc473ffffffffffffffffffffffffffffffffffffffff1673ffffffffffffffffffffffffffffffffffffffff1681525060199060016200016b929190620006fa565b5060405180602001604052806b033b2e3c9fd0803ce80000006bffffffffffffffffffffffff16815250601a906001620001a792919062000789565b50348015620001b557600080fd5b5060166010908054620001c890620008d1565b620001d5929190620007eb565b5060176011908054620001e890620008d1565b620001f5929190620007eb565b506200020a336018546200034660201b60201c565b601a805490506019805490501462000259576040517f08c379a000000000000000000000000000000000000000000000000000000000815260040162000250906200098e565b60405180910390fd5b600060198054905011620002a4576040517f08c379a00000000000000000000000000000000000000000000000000000000081526004016200029b9062000a00565b60405180910390fd5b60005b6019805490508110156200033f576200032960198281548110620002d057620002cf62000a22565b5b9060005260206000200160009054906101000a900473ffffffffffffffffffffffffffffffffffffffff16601a838154811062000312576200031162000a22565b5b9060005260206000200154620004c060201b60201c565b8080620003369062000a8a565b915050620002a7565b5062000d51565b600073ffffffffffffffffffffffffffffffffffffffff168273ffffffffffffffffffffffffffffffffffffffff161415620003b9576040517f08c379a0000000000000000000000000000000000000000000000000000000008152600401620003b09062000b28565b60405180910390fd5b620003cd600083836200065f60201b60201c565b80600f6000828254620003e1919062000b4a565b9250508190555080600d60008473ffffffffffffffffffffffffffffffffffffffff1673ffffffffffffffffffffffffffffffffffffffff168152602001908152602001600020600082825462000439919062000b4a565b925050819055508173ffffffffffffffffffffffffffffffffffffffff16600073ffffffffffffffffffffffffffffffffffffffff167fddf252ad1be2c89b69c2b068fc378daa952ba7f163c4a11628f55a4df523b3ef83604051620004a0919062000bb8565b60405180910390a3620004bc600083836200066460201b60201c565b5050565b600073ffffffffffffffffffffffffffffffffffffffff168273ffffffffffffffffffffffffffffffffffffffff16141562000533576040517f08c379a00000000000000000000000000000000000000000000000000000000081526004016200052a9062000c4b565b60405180910390fd5b6000811162000579576040517f08c379a0000000000000000000000000000000000000000000000000000000008152600401620005709062000cbd565b60405180910390fd5b6015829080600181540180825580915050600190039060005260206000200160009091909190916101000a81548173ffffffffffffffffffffffffffffffffffffffff021916908373ffffffffffffffffffffffffffffffffffffffff16021790555080600d60008473ffffffffffffffffffffffffffffffffffffffff1673ffffffffffffffffffffffffffffffffffffffff168152602001908152602001600020819055507f40c340f65e17194d14ddddb073d3c9f888e3cb52b5aae0c6c7706b4fbc905fac82826040516200065392919062000d24565b60405180910390a15050565b505050565b505050565b8280546200067790620008d1565b90600052602060002090601f0160209004810192826200069b5760008555620006e7565b82601f10620006b657805160ff1916838001178555620006e7565b82800160010185558215620006e7579182015b82811115620006e6578251825591602001919060010190620006c9565b5b509050620006f6919062000883565b5090565b82805482825590600052602060002090810192821562000776579160200282015b82811115620007755782518260006101000a81548173ffffffffffffffffffffffffffffffffffffffff021916908373ffffffffffffffffffffffffffffffffffffffff160217905550916020019190600101906200071b565b5b50905062000785919062000883565b5090565b828054828255906000526020600020908101928215620007d8579160200282015b82811115620007d757825182906bffffffffffffffffffffffff16905591602001919060010190620007aa565b5b509050620007e7919062000883565b5090565b828054620007f990620008d1565b90600052602060002090601f0160209004810192826200081d576000855562000870565b82601f1062000830578054855562000870565b828001600101855582156200087057600052602060002091601f016020900482015b828111156200086f57825482559160010191906001019062000852565b5b5090506200087f919062000883565b5090565b5b808211156200089e57600081600090555060010162000884565b5090565b7f4e487b7100000000000000000000000000000000000000000000000000000000600052602260045260246000fd5b60006002820490506001821680620008ea57607f821691505b60208210811415620009015762000900620008a2565b5b50919050565b600082825260208201905092915050565b7f5061796d656e7453706c69747465723a2070617965657320616e64207368617260008201527f6573206c656e677468206d69736d617463680000000000000000000000000000602082015250565b60006200097660328362000907565b9150620009838262000918565b604082019050919050565b60006020820190508181036000830152620009a98162000967565b9050919050565b7f5061796d656e7453706c69747465723a206e6f20706179656573000000000000600082015250565b6000620009e8601a8362000907565b9150620009f582620009b0565b602082019050919050565b6000602082019050818103600083015262000a1b81620009d9565b9050919050565b7f4e487b7100000000000000000000000000000000000000000000000000000000600052603260045260246000fd5b7f4e487b7100000000000000000000000000000000000000000000000000000000600052601160045260246000fd5b6000819050919050565b600062000a978262000a80565b91507fffffffffffffffffffffffffffffffffffffffffffffffffffffffffffffffff82141562000acd5762000acc62000a51565b5b600182019050919050565b7f45524332303a206d696e7420746f20746865207a65726f206164647265737300600082015250565b600062000b10601f8362000907565b915062000b1d8262000ad8565b602082019050919050565b6000602082019050818103600083015262000b438162000b01565b9050919050565b600062000b578262000a80565b915062000b648362000a80565b9250827fffffffffffffffffffffffffffffffffffffffffffffffffffffffffffffffff0382111562000b9c5762000b9b62000a51565b5b828201905092915050565b62000bb28162000a80565b82525050565b600060208201905062000bcf600083018462000ba7565b92915050565b7f5061796d656e7453706c69747465723a206163636f756e74206973207468652060008201527f7a65726f20616464726573730000000000000000000000000000000000000000602082015250565b600062000c33602c8362000907565b915062000c408262000bd5565b604082019050919050565b6000602082019050818103600083015262000c668162000c24565b9050919050565b7f5061796d656e7453706c69747465723a20736861726573206172652030000000600082015250565b600062000ca5601d8362000907565b915062000cb28262000c6d565b602082019050919050565b6000602082019050818103600083015262000cd88162000c96565b9050919050565b600073ffffffffffffffffffffffffffffffffffffffff82169050919050565b600062000d0c8262000cdf565b9050919050565b62000d1e8162000cff565b82525050565b600060408201905062000d3b600083018562000d13565b62000d4a602083018462000ba7565b9392505050565b613baa8062000d616000396000f3fe60806040526004361061023f5760003560e01c806365ab95311161012e578063a3ec138d116100ab578063db2b8d3c1161006f578063db2b8d3c14610941578063dd62ed3e1461094b578063e33b7de314610988578063ee85e2de146109b3578063f9ad7e7c146109cf57610286565b8063a3ec138d1461081f578063a457c2d71461085f578063a9059cbb1461089c578063ce7c2ac2146108d9578063cf9b55371461091657610286565b80638da5cb5b116100f25780638da5cb5b146107385780639012c4a81461076357806395d89b411461078c5780639852595c146107b75780639e6cb42b146107f457610286565b806365ab95311461063f578063692fd6dd1461066a57806370a08231146106a757806372a413a9146106e45780638b83209b146106fb57610286565b80631a695230116101bc5780633a7d7d39116101805780633a7d7d391461054657806344779d2314610571578063477348921461059c57806348772688146105d95780635d55f2de1461060257610286565b80631a6952301461045a5780631a6cd2fd1461047657806323b872dd146104a1578063313ce567146104de578063395093511461050957610286565b80630ff8cf9b116102035780630ff8cf9b1461038557806312065fe0146103b05780631703a018146103db57806318160ddd14610406578063191655871461043157610286565b80630121b93f1461028b578063013cf08b146102b457806306fdde03146102f2578063095ea7b31461031d5780630cda45c81461035a57610286565b36610286577f6ef95f06320e7a25a04a175ca677b7052bdd97131872c2192525a629f51be77061026d610a0c565b3460405161027c92919061272e565b60405180910390a1005b600080fd5b34801561029757600080fd5b506102b260048036038101906102ad9190612797565b610a14565b005b3480156102c057600080fd5b506102db60048036038101906102d69190612797565b610ccd565b6040516102e99291906127c4565b60405180910390f35b3480156102fe57600080fd5b50610307610d01565b6040516103149190612886565b60405180910390f35b34801561032957600080fd5b50610344600480360381019061033f91906128d4565b610d93565b604051610351919061292f565b60405180910390f35b34801561036657600080fd5b5061036f610db1565b60405161037c919061294a565b60405180910390f35b34801561039157600080fd5b5061039a610dbb565b6040516103a7919061294a565b60405180910390f35b3480156103bc57600080fd5b506103c5610dc1565b6040516103d2919061294a565b60405180910390f35b3480156103e757600080fd5b506103f0610dc9565b6040516103fd919061294a565b60405180910390f35b34801561041257600080fd5b5061041b610dcf565b604051610428919061294a565b60405180910390f35b34801561043d57600080fd5b50610458600480360381019061045391906129a3565b610dd9565b005b610474600480360381019061046f91906129d0565b611010565b005b34801561048257600080fd5b5061048b611068565b604051610498919061294a565b60405180910390f35b3480156104ad57600080fd5b506104c860048036038101906104c391906129fd565b6110f0565b6040516104d5919061292f565b60405180910390f35b3480156104ea57600080fd5b506104f36111e8565b6040516105009190612a6c565b60405180910390f35b34801561051557600080fd5b50610530600480360381019061052b91906128d4565b6111f1565b60405161053d919061292f565b60405180910390f35b34801561055257600080fd5b5061055b61129d565b604051610568919061294a565b60405180910390f35b34801561057d57600080fd5b506105866112a3565b604051610593919061294a565b60405180910390f35b3480156105a857600080fd5b506105c360048036038101906105be91906129d0565b6112ad565b6040516105d0919061294a565b60405180910390f35b3480156105e557600080fd5b5061060060048036038101906105fb91906129a3565b6112f5565b005b34801561060e57600080fd5b5061062960048036038101906106249190612797565b6114e4565b6040516106369190612a87565b60405180910390f35b34801561064b57600080fd5b50610654611523565b604051610661919061294a565b60405180910390f35b34801561067657600080fd5b50610691600480360381019061068c91906129d0565b611529565b60405161069e919061294a565b60405180910390f35b3480156106b357600080fd5b506106ce60048036038101906106c991906129d0565b611592565b6040516106db919061294a565b60405180910390f35b3480156106f057600080fd5b506106f96115db565b005b34801561070757600080fd5b50610722600480360381019061071d9190612797565b61191e565b60405161072f9190612a87565b60405180910390f35b34801561074457600080fd5b5061074d611966565b60405161075a9190612a87565b60405180910390f35b34801561076f57600080fd5b5061078a60048036038101906107859190612797565b611990565b005b34801561079857600080fd5b506107a1611a6e565b6040516107ae9190612886565b60405180910390f35b3480156107c357600080fd5b506107de60048036038101906107d991906129d0565b611b00565b6040516107eb919061294a565b60405180910390f35b34801561080057600080fd5b50610809611b49565b604051610816919061294a565b60405180910390f35b34801561082b57600080fd5b50610846600480360381019061084191906129d0565b611b4f565b6040516108569493929190612aa2565b60405180910390f35b34801561086b57600080fd5b50610886600480360381019061088191906128d4565b611bac565b604051610893919061292f565b60405180910390f35b3480156108a857600080fd5b506108c360048036038101906108be91906128d4565b611c97565b6040516108d0919061292f565b60405180910390f35b3480156108e557600080fd5b5061090060048036038101906108fb91906129d0565b611cb5565b60405161090d919061294a565b60405180910390f35b34801561092257600080fd5b5061092b611cfe565b604051610938919061294a565b60405180910390f35b610949611d08565b005b34801561095757600080fd5b50610972600480360381019061096d9190612ae7565b611d23565b60405161097f919061294a565b60405180910390f35b34801561099457600080fd5b5061099d611daa565b6040516109aa919061294a565b60405180910390f35b6109cd60048036038101906109c89190612c6f565b611db4565b005b3480156109db57600080fd5b506109f660048036038101906109f191906129d0565b611ff6565b604051610a03919061294a565b60405180910390f35b600033905090565b6000600d60003373ffffffffffffffffffffffffffffffffffffffff1673ffffffffffffffffffffffffffffffffffffffff168152602001908152602001600020541415610a97576040517f08c379a0000000000000000000000000000000000000000000000000000000008152600401610a8e90612d04565b60405180910390fd5b6000600d60003373ffffffffffffffffffffffffffffffffffffffff1673ffffffffffffffffffffffffffffffffffffffff16815260200190815260200160002054905080600960003373ffffffffffffffffffffffffffffffffffffffff1673ffffffffffffffffffffffffffffffffffffffff168152602001908152602001600020600001819055506000600960003373ffffffffffffffffffffffffffffffffffffffff1673ffffffffffffffffffffffffffffffffffffffff1681526020019081526020016000209050600081600001541415610bad576040517f08c379a0000000000000000000000000000000000000000000000000000000008152600401610ba490612d70565b60405180910390fd5b8060010160009054906101000a900460ff1615610bff576040517f08c379a0000000000000000000000000000000000000000000000000000000008152600401610bf690612ddc565b60405180910390fd5b60018160010160006101000a81548160ff0219169083151502179055508281600201819055508060000154600a8481548110610c3e57610c3d612dfc565b5b90600052602060002090600202016001016000828254610c5e9190612e5a565b92505081905550600b339080600181540180825580915050600190039060005260206000200160009091909190916101000a81548173ffffffffffffffffffffffffffffffffffffffff021916908373ffffffffffffffffffffffffffffffffffffffff160217905550505050565b600a8181548110610cdd57600080fd5b90600052602060002090600202016000915090508060000154908060010154905082565b606060108054610d1090612edf565b80601f0160208091040260200160405190810160405280929190818152602001828054610d3c90612edf565b8015610d895780601f10610d5e57610100808354040283529160200191610d89565b820191906000526020600020905b815481529060010190602001808311610d6c57829003601f168201915b5050505050905090565b6000610da7610da0610a0c565b848461203f565b6001905092915050565b6000600354905090565b60055481565b600047905090565b60075481565b6000600f54905090565b6000600d60008373ffffffffffffffffffffffffffffffffffffffff1673ffffffffffffffffffffffffffffffffffffffff1681526020019081526020016000205411610e5b576040517f08c379a0000000000000000000000000000000000000000000000000000000008152600401610e5290612f83565b60405180910390fd5b6000601354600554610e6d9190612e5a565b90506000601460008473ffffffffffffffffffffffffffffffffffffffff1673ffffffffffffffffffffffffffffffffffffffff16815260200190815260200160002054600f54600d60008673ffffffffffffffffffffffffffffffffffffffff1673ffffffffffffffffffffffffffffffffffffffff1681526020019081526020016000205484610eff9190612fa3565b610f09919061302c565b610f13919061305d565b90506000811415610f59576040517f08c379a0000000000000000000000000000000000000000000000000000000008152600401610f5090613103565b60405180910390fd5b80601460008573ffffffffffffffffffffffffffffffffffffffff1673ffffffffffffffffffffffffffffffffffffffff1681526020019081526020016000206000828254610fa89190612e5a565b925050819055508060136000828254610fc19190612e5a565b92505081905550610fd2838261220a565b7fdf20fd1e76bc69d672e4814fafb2c449bba3a5369d8359adf9e05e6fde87b0568382604051611003929190613182565b60405180910390a1505050565b346000808373ffffffffffffffffffffffffffffffffffffffff1673ffffffffffffffffffffffffffffffffffffffff168152602001908152602001600020600082825461105e9190612e5a565b9250508190555050565b6000806000905060005b600a805490508110156110eb5781600a828154811061109457611093612dfc565b5b90600052602060002090600202016001015411156110d857600a81815481106110c0576110bf612dfc565b5b90600052602060002090600202016001015491508092505b80806110e3906131ab565b915050611072565b505090565b60006110fd8484846122fe565b6000600e60008673ffffffffffffffffffffffffffffffffffffffff1673ffffffffffffffffffffffffffffffffffffffff1681526020019081526020016000206000611148610a0c565b73ffffffffffffffffffffffffffffffffffffffff1673ffffffffffffffffffffffffffffffffffffffff168152602001908152602001600020549050828110156111c8576040517f08c379a00000000000000000000000000000000000000000000000000000000081526004016111bf90613266565b60405180910390fd5b6111dc856111d4610a0c565b85840361203f565b60019150509392505050565b60006012905090565b60006112936111fe610a0c565b8484600e600061120c610a0c565b73ffffffffffffffffffffffffffffffffffffffff1673ffffffffffffffffffffffffffffffffffffffff16815260200190815260200160002060008873ffffffffffffffffffffffffffffffffffffffff1673ffffffffffffffffffffffffffffffffffffffff1681526020019081526020016000205461128e9190612e5a565b61203f565b6001905092915050565b60135481565b6000600254905090565b60008060008373ffffffffffffffffffffffffffffffffffffffff1673ffffffffffffffffffffffffffffffffffffffff168152602001908152602001600020549050919050565b60008060008373ffffffffffffffffffffffffffffffffffffffff1673ffffffffffffffffffffffffffffffffffffffff1681526020019081526020016000205411611376576040517f08c379a000000000000000000000000000000000000000000000000000000000815260040161136d906132f8565b60405180910390fd5b6000600254476113869190612e5a565b905060006064600354606461139b919061305d565b6000808673ffffffffffffffffffffffffffffffffffffffff1673ffffffffffffffffffffffffffffffffffffffff168152602001908152602001600020546113e49190612fa3565b6113ee919061302c565b90506000811415611434576040517f08c379a000000000000000000000000000000000000000000000000000000000815260040161142b90613103565b60405180910390fd5b6064600354836114449190612fa3565b61144e919061302c565b6005600082825461145f9190612e5a565b9250508190555080600160008573ffffffffffffffffffffffffffffffffffffffff1673ffffffffffffffffffffffffffffffffffffffff16815260200190815260200160002060008282546114b59190612e5a565b9250508190555080600260008282546114ce9190612e5a565b925050819055506114df838261220a565b505050565b600b81815481106114f457600080fd5b906000526020600020016000915054906101000a900473ffffffffffffffffffffffffffffffffffffffff1681565b60025481565b600080600f54600d60008573ffffffffffffffffffffffffffffffffffffffff1673ffffffffffffffffffffffffffffffffffffffff16815260200190815260200160002054620186a061157d9190612fa3565b611587919061302c565b905080915050919050565b6000600d60008373ffffffffffffffffffffffffffffffffffffffff1673ffffffffffffffffffffffffffffffffffffffff168152602001908152602001600020549050919050565b600654421161161f576040517f08c379a000000000000000000000000000000000000000000000000000000000815260040161161690613364565b60405180910390fd5b600080600a61162c611068565b8154811061163d5761163c612dfc565b5b9060005260206000209060020201600001549150600a61165b611068565b8154811061166c5761166b612dfc565b5b9060005260206000209060020201600101549050600a8211156116c4576040517f08c379a00000000000000000000000000000000000000000000000000000000081526004016116bb906133f6565b60405180910390fd5b600754811015611709576040517f08c379a000000000000000000000000000000000000000000000000000000000815260040161170090613462565b60405180910390fd5b600a821115801561171c57506007548110155b1561181c578160038190555060005b600b805490508110156118165760096000600b83815481106117505761174f612dfc565b5b9060005260206000200160009054906101000a900473ffffffffffffffffffffffffffffffffffffffff1673ffffffffffffffffffffffffffffffffffffffff1673ffffffffffffffffffffffffffffffffffffffff1681526020019081526020016000206000808201600090556001820160006101000a81549060ff02191690556001820160016101000a81549073ffffffffffffffffffffffffffffffffffffffff021916905560028201600090555050808061180e906131ab565b91505061172b565b5061190c565b60005b600b8054905081101561190a5760096000600b838154811061184457611843612dfc565b5b9060005260206000200160009054906101000a900473ffffffffffffffffffffffffffffffffffffffff1673ffffffffffffffffffffffffffffffffffffffff1673ffffffffffffffffffffffffffffffffffffffff1681526020019081526020016000206000808201600090556001820160006101000a81549060ff02191690556001820160016101000a81549073ffffffffffffffffffffffffffffffffffffffff0219169055600282016000905550508080611902906131ab565b91505061181f565b505b600b600061191a9190612696565b5050565b60006015828154811061193457611933612dfc565b5b9060005260206000200160009054906101000a900473ffffffffffffffffffffffffffffffffffffffff169050919050565b6000600460009054906101000a900473ffffffffffffffffffffffffffffffffffffffff16905090565b600460009054906101000a900473ffffffffffffffffffffffffffffffffffffffff1673ffffffffffffffffffffffffffffffffffffffff163373ffffffffffffffffffffffffffffffffffffffff1614611a20576040517f08c379a0000000000000000000000000000000000000000000000000000000008152600401611a17906134ce565b60405180910390fd5b600a811115611a64576040517f08c379a0000000000000000000000000000000000000000000000000000000008152600401611a5b9061353a565b60405180910390fd5b8060038190555050565b606060118054611a7d90612edf565b80601f0160208091040260200160405190810160405280929190818152602001828054611aa990612edf565b8015611af65780601f10611acb57610100808354040283529160200191611af6565b820191906000526020600020905b815481529060010190602001808311611ad957829003601f168201915b5050505050905090565b6000601460008373ffffffffffffffffffffffffffffffffffffffff1673ffffffffffffffffffffffffffffffffffffffff168152602001908152602001600020549050919050565b60065481565b60096020528060005260406000206000915090508060000154908060010160009054906101000a900460ff16908060010160019054906101000a900473ffffffffffffffffffffffffffffffffffffffff16908060020154905084565b600080600e6000611bbb610a0c565b73ffffffffffffffffffffffffffffffffffffffff1673ffffffffffffffffffffffffffffffffffffffff16815260200190815260200160002060008573ffffffffffffffffffffffffffffffffffffffff1673ffffffffffffffffffffffffffffffffffffffff16815260200190815260200160002054905082811015611c78576040517f08c379a0000000000000000000000000000000000000000000000000000000008152600401611c6f906135cc565b60405180910390fd5b611c8c611c83610a0c565b8585840361203f565b600191505092915050565b6000611cab611ca4610a0c565b84846122fe565b6001905092915050565b6000600d60008373ffffffffffffffffffffffffffffffffffffffff1673ffffffffffffffffffffffffffffffffffffffff168152602001908152602001600020549050919050565b6000600554905090565b3460056000828254611d1a9190612e5a565b92505081905550565b6000600e60008473ffffffffffffffffffffffffffffffffffffffff1673ffffffffffffffffffffffffffffffffffffffff16815260200190815260200160002060008373ffffffffffffffffffffffffffffffffffffffff1673ffffffffffffffffffffffffffffffffffffffff16815260200190815260200160002054905092915050565b6000601354905090565b6000600d60003373ffffffffffffffffffffffffffffffffffffffff1673ffffffffffffffffffffffffffffffffffffffff168152602001908152602001600020541415611e37576040517f08c379a0000000000000000000000000000000000000000000000000000000008152600401611e2e90613638565b60405180910390fd5b6001815114611e7b576040517f08c379a0000000000000000000000000000000000000000000000000000000008152600401611e72906136ca565b60405180910390fd5b670de0b6b3a7640000341015611ec6576040517f08c379a0000000000000000000000000000000000000000000000000000000008152600401611ebd90613736565b60405180910390fd5b3460056000828254611ed89190612e5a565b925050819055506000600f54600d60003373ffffffffffffffffffffffffffffffffffffffff1673ffffffffffffffffffffffffffffffffffffffff16815260200190815260200160002054620186a0611f329190612fa3565b611f3c919061302c565b9050612710811015611f4d57600080fd5b600c5442611f5b9190612e5a565b60068190555060005b8251811015611ff157600a6040518060400160405280858481518110611f8d57611f8c612dfc565b5b6020026020010151815260200160008152509080600181540180825580915050600190039060005260206000209060020201600090919091909150600082015181600001556020820151816001015550508080611fe9906131ab565b915050611f64565b505050565b6000600160008373ffffffffffffffffffffffffffffffffffffffff1673ffffffffffffffffffffffffffffffffffffffff168152602001908152602001600020549050919050565b600073ffffffffffffffffffffffffffffffffffffffff168373ffffffffffffffffffffffffffffffffffffffff1614156120af576040517f08c379a00000000000000000000000000000000000000000000000000000000081526004016120a6906137c8565b60405180910390fd5b600073ffffffffffffffffffffffffffffffffffffffff168273ffffffffffffffffffffffffffffffffffffffff16141561211f576040517f08c379a00000000000000000000000000000000000000000000000000000000081526004016121169061385a565b60405180910390fd5b80600e60008573ffffffffffffffffffffffffffffffffffffffff1673ffffffffffffffffffffffffffffffffffffffff16815260200190815260200160002060008473ffffffffffffffffffffffffffffffffffffffff1673ffffffffffffffffffffffffffffffffffffffff168152602001908152602001600020819055508173ffffffffffffffffffffffffffffffffffffffff168373ffffffffffffffffffffffffffffffffffffffff167f8c5be1e5ebec7d5bd14f71427d1e84f3dd0314c0f7b2291e5b200ac8c7c3b925836040516121fd919061294a565b60405180910390a3505050565b8047101561224d576040517f08c379a0000000000000000000000000000000000000000000000000000000008152600401612244906138c6565b60405180910390fd5b60008273ffffffffffffffffffffffffffffffffffffffff168260405161227390613917565b60006040518083038185875af1925050503d80600081146122b0576040519150601f19603f3d011682016040523d82523d6000602084013e6122b5565b606091505b50509050806122f9576040517f08c379a00000000000000000000000000000000000000000000000000000000081526004016122f09061399e565b60405180910390fd5b505050565b600073ffffffffffffffffffffffffffffffffffffffff168373ffffffffffffffffffffffffffffffffffffffff16141561236e576040517f08c379a000000000000000000000000000000000000000000000000000000000815260040161236590613a30565b60405180910390fd5b600073ffffffffffffffffffffffffffffffffffffffff168273ffffffffffffffffffffffffffffffffffffffff1614156123de576040517f08c379a00000000000000000000000000000000000000000000000000000000081526004016123d590613ac2565b60405180910390fd5b6123e983838361268c565b6000600d60008573ffffffffffffffffffffffffffffffffffffffff1673ffffffffffffffffffffffffffffffffffffffff16815260200190815260200160002054905081811015612470576040517f08c379a000000000000000000000000000000000000000000000000000000000815260040161246790613b54565b60405180910390fd5b818103600d60008673ffffffffffffffffffffffffffffffffffffffff1673ffffffffffffffffffffffffffffffffffffffff1681526020019081526020016000208190555081600d60008573ffffffffffffffffffffffffffffffffffffffff1673ffffffffffffffffffffffffffffffffffffffff16815260200190815260200160002060008282546125059190612e5a565b925050819055506015839080600181540180825580915050600190039060005260206000200160009091909190916101000a81548173ffffffffffffffffffffffffffffffffffffffff021916908373ffffffffffffffffffffffffffffffffffffffff1602179055508273ffffffffffffffffffffffffffffffffffffffff168473ffffffffffffffffffffffffffffffffffffffff167fddf252ad1be2c89b69c2b068fc378daa952ba7f163c4a11628f55a4df523b3ef846040516125cc919061294a565b60405180910390a36125df848484612691565b6015839080600181540180825580915050600190039060005260206000200160009091909190916101000a81548173ffffffffffffffffffffffffffffffffffffffff021916908373ffffffffffffffffffffffffffffffffffffffff16021790555081600d60008573ffffffffffffffffffffffffffffffffffffffff1673ffffffffffffffffffffffffffffffffffffffff1681526020019081526020016000208190555050505050565b505050565b505050565b50805460008255906000526020600020908101906126b491906126b7565b50565b5b808211156126d05760008160009055506001016126b8565b5090565b600073ffffffffffffffffffffffffffffffffffffffff82169050919050565b60006126ff826126d4565b9050919050565b61270f816126f4565b82525050565b6000819050919050565b61272881612715565b82525050565b60006040820190506127436000830185612706565b612750602083018461271f565b9392505050565b6000604051905090565b600080fd5b600080fd5b61277481612715565b811461277f57600080fd5b50565b6000813590506127918161276b565b92915050565b6000602082840312156127ad576127ac612761565b5b60006127bb84828501612782565b91505092915050565b60006040820190506127d9600083018561271f565b6127e6602083018461271f565b9392505050565b600081519050919050565b600082825260208201905092915050565b60005b8381101561282757808201518184015260208101905061280c565b83811115612836576000848401525b50505050565b6000601f19601f8301169050919050565b6000612858826127ed565b61286281856127f8565b9350612872818560208601612809565b61287b8161283c565b840191505092915050565b600060208201905081810360008301526128a0818461284d565b905092915050565b6128b1816126f4565b81146128bc57600080fd5b50565b6000813590506128ce816128a8565b92915050565b600080604083850312156128eb576128ea612761565b5b60006128f9858286016128bf565b925050602061290a85828601612782565b9150509250929050565b60008115159050919050565b61292981612914565b82525050565b60006020820190506129446000830184612920565b92915050565b600060208201905061295f600083018461271f565b92915050565b6000612970826126d4565b9050919050565b61298081612965565b811461298b57600080fd5b50565b60008135905061299d81612977565b92915050565b6000602082840312156129b9576129b8612761565b5b60006129c78482850161298e565b91505092915050565b6000602082840312156129e6576129e5612761565b5b60006129f4848285016128bf565b91505092915050565b600080600060608486031215612a1657612a15612761565b5b6000612a24868287016128bf565b9350506020612a35868287016128bf565b9250506040612a4686828701612782565b9150509250925092565b600060ff82169050919050565b612a6681612a50565b82525050565b6000602082019050612a816000830184612a5d565b92915050565b6000602082019050612a9c6000830184612706565b92915050565b6000608082019050612ab7600083018761271f565b612ac46020830186612920565b612ad16040830185612706565b612ade606083018461271f565b95945050505050565b60008060408385031215612afe57612afd612761565b5b6000612b0c858286016128bf565b9250506020612b1d858286016128bf565b9150509250929050565b600080fd5b7f4e487b7100000000000000000000000000000000000000000000000000000000600052604160045260246000fd5b612b648261283c565b810181811067ffffffffffffffff82111715612b8357612b82612b2c565b5b80604052505050565b6000612b96612757565b9050612ba28282612b5b565b919050565b600067ffffffffffffffff821115612bc257612bc1612b2c565b5b602082029050602081019050919050565b600080fd5b6000612beb612be684612ba7565b612b8c565b90508083825260208201905060208402830185811115612c0e57612c0d612bd3565b5b835b81811015612c375780612c238882612782565b845260208401935050602081019050612c10565b5050509392505050565b600082601f830112612c5657612c55612b27565b5b8135612c66848260208601612bd8565b91505092915050565b600060208284031215612c8557612c84612761565b5b600082013567ffffffffffffffff811115612ca357612ca2612766565b5b612caf84828501612c41565b91505092915050565b7f7a65726f2062616c616e63650000000000000000000000000000000000000000600082015250565b6000612cee600c836127f8565b9150612cf982612cb8565b602082019050919050565b60006020820190508181036000830152612d1d81612ce1565b9050919050565b7f486173206e6f20726967687420746f20766f7465000000000000000000000000600082015250565b6000612d5a6014836127f8565b9150612d6582612d24565b602082019050919050565b60006020820190508181036000830152612d8981612d4d565b9050919050565b7f416c726561647920766f7465642e000000000000000000000000000000000000600082015250565b6000612dc6600e836127f8565b9150612dd182612d90565b602082019050919050565b60006020820190508181036000830152612df581612db9565b9050919050565b7f4e487b7100000000000000000000000000000000000000000000000000000000600052603260045260246000fd5b7f4e487b7100000000000000000000000000000000000000000000000000000000600052601160045260246000fd5b6000612e6582612715565b9150612e7083612715565b9250827fffffffffffffffffffffffffffffffffffffffffffffffffffffffffffffffff03821115612ea557612ea4612e2b565b5b828201905092915050565b7f4e487b7100000000000000000000000000000000000000000000000000000000600052602260045260246000fd5b60006002820490506001821680612ef757607f821691505b60208210811415612f0b57612f0a612eb0565b5b50919050565b7f5061796d656e7453706c69747465723a206163636f756e7420686173206e6f2060008201527f7368617265730000000000000000000000000000000000000000000000000000602082015250565b6000612f6d6026836127f8565b9150612f7882612f11565b604082019050919050565b60006020820190508181036000830152612f9c81612f60565b9050919050565b6000612fae82612715565b9150612fb983612715565b9250817fffffffffffffffffffffffffffffffffffffffffffffffffffffffffffffffff0483118215151615612ff257612ff1612e2b565b5b828202905092915050565b7f4e487b7100000000000000000000000000000000000000000000000000000000600052601260045260246000fd5b600061303782612715565b915061304283612715565b92508261305257613051612ffd565b5b828204905092915050565b600061306882612715565b915061307383612715565b92508282101561308657613085612e2b565b5b828203905092915050565b7f5061796d656e7453706c69747465723a206163636f756e74206973206e6f742060008201527f647565207061796d656e74000000000000000000000000000000000000000000602082015250565b60006130ed602b836127f8565b91506130f882613091565b604082019050919050565b6000602082019050818103600083015261311c816130e0565b9050919050565b6000819050919050565b600061314861314361313e846126d4565b613123565b6126d4565b9050919050565b600061315a8261312d565b9050919050565b600061316c8261314f565b9050919050565b61317c81613161565b82525050565b60006040820190506131976000830185613173565b6131a4602083018461271f565b9392505050565b60006131b682612715565b91507fffffffffffffffffffffffffffffffffffffffffffffffffffffffffffffffff8214156131e9576131e8612e2b565b5b600182019050919050565b7f45524332303a207472616e7366657220616d6f756e742065786365656473206160008201527f6c6c6f77616e6365000000000000000000000000000000000000000000000000602082015250565b60006132506028836127f8565b915061325b826131f4565b604082019050919050565b6000602082019050818103600083015261327f81613243565b9050919050565b7f5061796d656e7453706c69747465723a206163636f756e742062616c616e636560008201527f2069732030000000000000000000000000000000000000000000000000000000602082015250565b60006132e26025836127f8565b91506132ed82613286565b604082019050919050565b60006020820190508181036000830152613311816132d5565b9050919050565b7f566f7465206e6f742079657420656e6465642e00000000000000000000000000600082015250565b600061334e6013836127f8565b915061335982613318565b602082019050919050565b6000602082019050818103600083015261337d81613341565b9050919050565b7f6665652063616e6e6f742062652073657420686967686572207468616e20313060008201527f2070657263656e74000000000000000000000000000000000000000000000000602082015250565b60006133e06028836127f8565b91506133eb82613384565b604082019050919050565b6000602082019050818103600083015261340f816133d3565b9050919050565b7f71756f72756d20776173206e6f74206d65740000000000000000000000000000600082015250565b600061344c6012836127f8565b915061345782613416565b602082019050919050565b6000602082019050818103600083015261347b8161343f565b9050919050565b7f4f6e6c7920746865206f776e6572000000000000000000000000000000000000600082015250565b60006134b8600e836127f8565b91506134c382613482565b602082019050919050565b600060208201905081810360008301526134e7816134ab565b9050919050565b7f466565206d757374206e6f7420626520686967686572207468616e2031302500600082015250565b6000613524601f836127f8565b915061352f826134ee565b602082019050919050565b6000602082019050818103600083015261355381613517565b9050919050565b7f45524332303a2064656372656173656420616c6c6f77616e63652062656c6f7760008201527f207a65726f000000000000000000000000000000000000000000000000000000602082015250565b60006135b66025836127f8565b91506135c18261355a565b604082019050919050565b600060208201905081810360008301526135e5816135a9565b9050919050565b7f74686973206163636f756e7420686173206e6f20736861726573000000000000600082015250565b6000613622601a836127f8565b915061362d826135ec565b602082019050919050565b6000602082019050818103600083015261365181613615565b9050919050565b7f796f752063616e206f6e6c7920637265617465206f6e652070726f706f73616c60008201527f20617420612074696d6500000000000000000000000000000000000000000000602082015250565b60006136b4602a836127f8565b91506136bf82613658565b604082019050919050565b600060208201905081810360008301526136e3816136a7565b9050919050565b7f796f75206d757374207061792031206574686572000000000000000000000000600082015250565b60006137206014836127f8565b915061372b826136ea565b602082019050919050565b6000602082019050818103600083015261374f81613713565b9050919050565b7f45524332303a20617070726f76652066726f6d20746865207a65726f2061646460008201527f7265737300000000000000000000000000000000000000000000000000000000602082015250565b60006137b26024836127f8565b91506137bd82613756565b604082019050919050565b600060208201905081810360008301526137e1816137a5565b9050919050565b7f45524332303a20617070726f766520746f20746865207a65726f20616464726560008201527f7373000000000000000000000000000000000000000000000000000000000000602082015250565b60006138446022836127f8565b915061384f826137e8565b604082019050919050565b6000602082019050818103600083015261387381613837565b9050919050565b7f416464726573733a20696e73756666696369656e742062616c616e6365000000600082015250565b60006138b0601d836127f8565b91506138bb8261387a565b602082019050919050565b600060208201905081810360008301526138df816138a3565b9050919050565b600081905092915050565b50565b60006139016000836138e6565b915061390c826138f1565b600082019050919050565b6000613922826138f4565b9150819050919050565b7f416464726573733a20756e61626c6520746f2073656e642076616c75652c207260008201527f6563697069656e74206d61792068617665207265766572746564000000000000602082015250565b6000613988603a836127f8565b91506139938261392c565b604082019050919050565b600060208201905081810360008301526139b78161397b565b9050919050565b7f45524332303a207472616e736665722066726f6d20746865207a65726f20616460008201527f6472657373000000000000000000000000000000000000000000000000000000602082015250565b6000613a1a6025836127f8565b9150613a25826139be565b604082019050919050565b60006020820190508181036000830152613a4981613a0d565b9050919050565b7f45524332303a207472616e7366657220746f20746865207a65726f206164647260008201527f6573730000000000000000000000000000000000000000000000000000000000602082015250565b6000613aac6023836127f8565b9150613ab782613a50565b604082019050919050565b60006020820190508181036000830152613adb81613a9f565b9050919050565b7f45524332303a207472616e7366657220616d6f756e742065786365656473206260008201527f616c616e63650000000000000000000000000000000000000000000000000000602082015250565b6000613b3e6026836127f8565b9150613b4982613ae2565b604082019050919050565b60006020820190508181036000830152613b6d81613b31565b905091905056fea26469706673582212202fa8c945cf165a2e7f9a9d30d49716a638ae840c44cbad0961d285b4b570f26c64736f6c634300080a0033",
  "immutableReferences": {},
  "source": "// SPDX-License-Identifier: MIT\npragma solidity ^0.8.0;\n\nimport \"./ERC20/IERC20.sol\";\nimport \"./ERC20/IERC20Metadata.sol\";\nimport \"./utils/Context.sol\";\n\nimport \"./utils/SafeMath.sol\";\nimport \"./utils/Address.sol\";\n\n\ncontract ERC20 is Context, IERC20, IERC20Metadata {\n    \n    /**\n    INITIAL SPLITTER \n    */\n    \n    mapping(address => uint256) private _userBalance;\n    mapping(address => uint256) private _userReleased;\n    uint256 public _totalUserReleased;\n    \n    // this variable can be changed by the endVote function\n    uint256 private _fee = 5; \n    address private _owner = msg.sender;\n    \n    uint256 public dividend;\n    \n\n    function transfer(address recipient) public payable {\n        _userBalance[recipient]+=msg.value;\n    }\n\n\n    function userRelease(address payable account) public virtual {\n        \n        require(_userBalance[account] > 0, \"PaymentSplitter: account balance is 0\");\n        \n        uint256 totalReceived = address(this).balance + _totalUserReleased;\n        uint256 payment = (_userBalance[account] * (100 - _fee)) / 100;\n\n        require(payment != 0, \"PaymentSplitter: account is not due payment\");\n        \n        dividend += (totalReceived * _fee) / 100;\n\n        _userReleased[account] += payment;\n        _totalUserReleased += payment;\n\n        Address.sendValue(account, payment);\n    }\n    \n\n    // make a donation function to share holders \n    function contractDonation() public payable {\n        dividend += msg.value;\n    }\n\n\n    // function updateFee will eventually be deleted \n    function updateFee(uint256 fee) public {\n        require(msg.sender == _owner, \"Only the owner\");\n        require(fee <= 10, \"Fee must not be higher than 10%\");\n        _fee = fee;\n    }\n    \n\n    function getfee() public view returns (uint256) {\n        return _fee;\n    }\n    \n\n    function owner() public view returns (address) {\n        return _owner;\n    }\n    \n    \n    function getUserBalance(address account) public view returns(uint256){\n        return _userBalance[account];\n    }\n    \n    \n    function totalUserReleased() public virtual returns (uint256) {\n        return _totalUserReleased;\n    }\n\n    // @dev - weird function consider editing or deleting\n    function releasedinit(address account) public virtual returns (uint256) {\n        return _userReleased[account];\n    }\n    \n    \n    function seeDividend() public view returns (uint256) {\n        return dividend;\n    }\n \n\n    /**\n    VOTING FUNCTIONALITY\n    */\n    \n    uint public voteEndTime;\n    \n    //quorum is 100 million which is 10% of total supply\n    uint256 public quorum = 100000000000000000000000000;\n\n\n    bool ended;\n    \n\n    struct Voter {\n        uint weight; // weight is accumulated by delegation\n        bool voted;  // if true, that person already voted\n        address delegate; // person delegated to\n        uint vote;   // index of the voted proposal\n    }\n\n    struct Proposal {\n        uint256 fee;   // short name (up to 32 bytes)\n        uint voteCount; // number of accumulated votes\n    \n    }\n    \n    \n    mapping(address => Voter) public voters;\n    Proposal[] public proposals;\n    address[] public voterAddress;\n\n\n    //error handlers\n    /// The vote has already ended.\n    error voteAlreadyEnded();\n    /// The auction has not ended yet.\n    error voteNotYetEnded();\n    \n    // SET VOTE TIME\n    uint _voteTime = 20; //1209600; 2 WEEKS\n\n    \n    function createProposal(uint256[] memory proposalNames) public payable {\n        \n        require(_balances[msg.sender] != 0, \"this account has no shares\");\n        require(proposalNames.length == 1, \"you can only create one proposal at a time\");\n        \n        require(msg.value >= 1 ether, \"you must pay 1 ether\");\n        dividend += msg.value;\n        \n        // MUST HAVE 10 PERCENT TO CREATE PROPOSAL *subject to change... (10000 because it allows to calculate percent to 5 decimals)\n        uint256 percent = ( 100000 * _balances[msg.sender] ) / _totalSupply;\n        \n        require(percent >= 10000);\n        \n        voteEndTime = block.timestamp + _voteTime;\n         \n        for (uint i = 0; i < proposalNames.length; i++) {\n        \n            proposals.push(Proposal({\n                fee: proposalNames[i],\n                voteCount: 0\n        }));\n        }\n    }\n    \n    \n    // will eventually be d\n    function minimumPercentageProposalCreation(address account) public view returns (uint256) {\n        // test function to see percent required for proposal creation\n        uint256 percent = ( 100000 * _balances[account] ) / _totalSupply;\n        return percent; \n    }\n    \n    \n    \n    function vote(uint proposal) public {\n        \n        require(_balances[msg.sender] !=0, \"zero balance\");\n        uint256 voteWeight = _balances[msg.sender];\n        \n        voters[msg.sender].weight = voteWeight;\n        \n        Voter storage sender = voters[msg.sender];\n        require(sender.weight != 0, \"Has no right to vote\");\n        require(!sender.voted, \"Already voted.\");\n        sender.voted = true;\n        sender.vote = proposal;\n        proposals[proposal].voteCount += sender.weight;\n        \n        voterAddress.push(msg.sender);\n    }\n\n\n    // CONSIDER MAKING FUNCTION PRIVATE - this function can be called before vote end \n    function countVote() public view\n            returns (uint winningProposal_)\n        {\n            \n        uint winningVoteCount = 0;\n        for (uint p = 0; p < proposals.length; p++) {\n            if (proposals[p].voteCount > winningVoteCount) {\n                winningVoteCount = proposals[p].voteCount;\n                winningProposal_ = p;\n            }\n        }\n    }\n    \n    \n    \n    // NEEDS TO BE EXTENSIVELY TESTED\n    function EndVote() public {\n        require(\n            block.timestamp > voteEndTime,\n            \"Vote not yet ended.\");\n          \n        uint256 fee;\n        uint votes;\n        fee = proposals[countVote()].fee;\n        votes = proposals[countVote()].voteCount;\n        \n        require(fee <= 10, \"fee cannot be set higher than 10 percent\");\n        \n        require(votes >= quorum, \"quorum was not met\");\n        \n        // if criteria are met, fee is set and struct Voters is reset \n        if(fee <= 10 && votes >= quorum) {   \n            // DAO UPDATES FEE\n            _fee = fee;\n        \n            for (uint i = 0; i < voterAddress.length; i++)\n                delete voters[voterAddress[i]];\n        \n        // even if criteria are not met, struct Voters is reset \n        } else {\n            \n            for (uint i = 0; i < voterAddress.length; i++)\n                delete voters[voterAddress[i]];\n        \n        } \n        // delete voter address array\n        delete voterAddress;\n            \n        }\n    \n\n    /**\n    ERC20 TOKEN WITH DIVIDEND PAYMENTS \n    */\n\n    mapping(address => uint256) private _balances;\n\n    mapping(address => mapping(address => uint256)) private _allowances;\n    \n    uint256 private _totalSupply;\n\n    string private _name;\n    string private _symbol;\n    \n    \n    event PayeeAdded(address account, uint256 shares);\n    event PaymentReleased(address to, uint256 amount);\n    event PaymentReceived(address from, uint256 amount);\n    \n    mapping(address=>uint) ethbalance;\n    \n    uint256 public _totalReleased;\n    \n    mapping(address => uint256) private _released;\n    address[] private _payees;\n    \n    \n    // hardcoded the constructor for faster development... more warnings but its ok for now... 1B supply\n    string name_ = \"asdf\";\n    string symbol_ = \"xyz\";\n    uint supply = 1000000000000000000000000000;\n    address[] payees = [0x5B38Da6a701c568545dCfcB03FcB875f56beddC4];\n    uint256[] amount= [1000000000000000000000000000];\n    \n\n    constructor(\n        \n        /**\n        string memory name_, \n        string memory symbol_, \n        uint supply,\n        address[] memory payees, \n        uint256[] memory amount) payable {\n        */\n        \n        ) {\n\n        _name = name_;\n        _symbol = symbol_;\n        _mint(msg.sender, supply);\n        require(payees.length == amount.length, \"PaymentSplitter: payees and shares length mismatch\");\n        require(payees.length > 0, \"PaymentSplitter: no payees\");\n        \n        for (uint256 i = 0; i < payees.length; i++) {\n            _addPayee(payees[i], amount[i]);\n        }\n      \n    }\n\n\n    function name() public view virtual override returns (string memory) {\n        return _name;\n    }\n    \n\n    function symbol() public view virtual override returns (string memory) {\n        return _symbol;\n    }\n    \n\n    function decimals() public view virtual override returns (uint8) {\n        return 18;\n    }\n    \n\n    function totalSupply() public view virtual override returns (uint256) {\n        return _totalSupply;\n    }\n    \n    \n    function balanceOf(address account) public view virtual override returns (uint256) {\n        return _balances[account];\n    }\n    \n\n    function transfer(address recipient, uint256 amount) public virtual override returns (bool) {\n        _transfer(_msgSender(), recipient, amount);\n        return true;\n    }\n\n\n    function allowance(address owner, address spender) public view virtual override returns (uint256) {\n        return _allowances[owner][spender];\n    }\n    \n\n    function approve(address spender, uint256 amount) public virtual override returns (bool) {\n        _approve(_msgSender(), spender, amount);\n        return true;\n    }\n    \n    \n    function transferFrom(\n        address sender,\n        address recipient,\n        uint256 amount\n    ) public virtual override returns (bool) {\n        _transfer(sender, recipient, amount);\n\n        uint256 currentAllowance = _allowances[sender][_msgSender()];\n        require(currentAllowance >= amount, \"ERC20: transfer amount exceeds allowance\");\n        unchecked {\n            _approve(sender, _msgSender(), currentAllowance - amount);\n        }\n\n        return true;\n    }\n    \n\n    function increaseAllowance(address spender, uint256 addedValue) public virtual returns (bool) {\n        _approve(_msgSender(), spender, _allowances[_msgSender()][spender] + addedValue);\n        return true;\n    }\n\n\n    function decreaseAllowance(address spender, uint256 subtractedValue) public virtual returns (bool) {\n        uint256 currentAllowance = _allowances[_msgSender()][spender];\n        require(currentAllowance >= subtractedValue, \"ERC20: decreased allowance below zero\");\n        unchecked {\n            _approve(_msgSender(), spender, currentAllowance - subtractedValue);\n        }\n\n        return true;\n    }\n    \n\n    function _transfer(\n        address sender,\n        address recipient,\n        uint256 amount\n    ) internal virtual {\n        require(sender != address(0), \"ERC20: transfer from the zero address\");\n        require(recipient != address(0), \"ERC20: transfer to the zero address\");\n\n        _beforeTokenTransfer(sender, recipient, amount);\n\n        uint256 senderBalance = _balances[sender];\n        require(senderBalance >= amount, \"ERC20: transfer amount exceeds balance\");\n        unchecked {\n            _balances[sender] = senderBalance - amount;\n  \n        }\n        \n        _balances[recipient] += amount;\n        _payees.push(recipient);\n        \n        emit Transfer(sender, recipient, amount);\n        _afterTokenTransfer(sender, recipient, amount);\n        \n        //** adds new account to _payees array and how many \n        _payees.push(recipient);\n        _balances[recipient] = amount;\n\n    }\n\n\n    function _mint(address account, uint256 amount) internal virtual {\n        require(account != address(0), \"ERC20: mint to the zero address\");\n\n        _beforeTokenTransfer(address(0), account, amount);\n\n        _totalSupply += amount;\n        _balances[account] += amount;\n        emit Transfer(address(0), account, amount);\n\n        _afterTokenTransfer(address(0), account, amount);\n    }\n\n\n    function _burn(address account, uint256 amount) internal virtual {\n        require(account != address(0), \"ERC20: burn from the zero address\");\n\n        _beforeTokenTransfer(account, address(0), amount);\n\n        uint256 accountBalance = _balances[account];\n        require(accountBalance >= amount, \"ERC20: burn amount exceeds balance\");\n        unchecked {\n            _balances[account] = accountBalance - amount;\n        }\n        _totalSupply -= amount;\n\n        emit Transfer(account, address(0), amount);\n\n        _afterTokenTransfer(account, address(0), amount);\n    }\n\n\n    function _approve(\n        address owner,\n        address spender,\n        uint256 amount\n    ) internal virtual {\n        require(owner != address(0), \"ERC20: approve from the zero address\");\n        require(spender != address(0), \"ERC20: approve to the zero address\");\n\n        _allowances[owner][spender] = amount;\n        emit Approval(owner, spender, amount);\n    }\n\n\n    function _beforeTokenTransfer(\n        address from,\n        address to,\n        uint256 amount\n    ) internal virtual {}\n\n\n\n    function _afterTokenTransfer(\n        address from,\n        address to,\n        uint256 amount\n    ) internal virtual {}\n    \n    \n    \n    receive() external payable virtual {\n        emit PaymentReceived(_msgSender(), msg.value);\n    }\n    \n    \n    function getBalance() public view returns(uint){\n        return address(this).balance;\n    }\n    \n\n    // Getter for the total amount of Ether already released.\n    function totalReleased() public view returns (uint256) {\n        return _totalReleased;\n    }\n\n\n    // Getter for the amount of shares held by an account.\n    function shares(address account) public view returns (uint256) {\n        return _balances[account];\n    }\n\n\n    // Getter for the amount of Ether already released to a shareholder.\n    function released(address account) public view returns (uint256) {\n        return _released[account];\n    }\n\n\n    // Getter for the address of the payee number `index`.\n    function payee(uint256 index) public view returns (address) {\n        return _payees[index];\n    }\n    \n\n\n    /** Triggers a transfer to [account] of the amount of Ether they are owed, according to their percentage of the\n        total shares and their previous withdrawals.\n\n        IN REMIX THIS FUNCTION EXECUTES TRANSACTION BUT FAILS?\n        ON LOCALHOST THIS FUNCTION COMPLETES\n    */\n    function release(address payable account) public virtual {\n        require(_balances[account] > 0, \"PaymentSplitter: account has no shares\");\n\n        uint256 totalReceived = dividend + _totalReleased;\n        uint256 payment = (totalReceived * _balances[account]) / _totalSupply - _released[account];\n\n        require(payment != 0, \"PaymentSplitter: account is not due payment\");\n\n        _released[account] += payment;\n        _totalReleased += payment;\n\n        Address.sendValue(account, payment);\n        emit PaymentReleased(account, payment);\n    }\n\n\n    function _addPayee(address account, uint256 amount) private {\n        require(account != address(0), \"PaymentSplitter: account is the zero address\");\n        require(amount > 0, \"PaymentSplitter: shares are 0\");\n        /** require(_balances[account] == 0, \"PaymentSplitter: account already has shares\"); **/\n\n        _payees.push(account);\n        _balances[account] = amount;\n        \n        emit PayeeAdded(account, amount);\n    }\n}\n\n",
  "sourcePath": "/home/ubuntu/Desktop/dev/DividendPayingDAO/contracts/DAOtoken.sol",
  "compiler": {
    "name": "solc",
    "version": "0.8.10+commit.fc410830.Emscripten.clang"
  },
  "schemaVersion": "3.4.3",
  "updatedAt": "2021-11-16T18:14:16.559Z",
  "devdoc": {
    "kind": "dev",
    "methods": {
      "allowance(address,address)": {
        "details": "Returns the remaining number of tokens that `spender` will be allowed to spend on behalf of `owner` through {transferFrom}. This is zero by default. This value changes when {approve} or {transferFrom} are called."
      },
      "approve(address,uint256)": {
        "details": "Sets `amount` as the allowance of `spender` over the caller's tokens. Returns a boolean value indicating whether the operation succeeded. IMPORTANT: Beware that changing an allowance with this method brings the risk that someone may use both the old and the new allowance by unfortunate transaction ordering. One possible solution to mitigate this race condition is to first reduce the spender's allowance to 0 and set the desired value afterwards: https://github.com/ethereum/EIPs/issues/20#issuecomment-263524729 Emits an {Approval} event."
      },
      "balanceOf(address)": {
        "details": "Returns the amount of tokens owned by `account`."
      },
      "decimals()": {
        "details": "Returns the decimals places of the token."
      },
      "name()": {
        "details": "Returns the name of the token."
      },
      "symbol()": {
        "details": "Returns the symbol of the token."
      },
      "totalSupply()": {
        "details": "Returns the amount of tokens in existence."
      },
      "transfer(address,uint256)": {
        "details": "Moves `amount` tokens from the caller's account to `recipient`. Returns a boolean value indicating whether the operation succeeded. Emits a {Transfer} event."
      },
      "transferFrom(address,address,uint256)": {
        "details": "Moves `amount` tokens from `sender` to `recipient` using the allowance mechanism. `amount` is then deducted from the caller's allowance. Returns a boolean value indicating whether the operation succeeded. Emits a {Transfer} event."
      }
    },
    "version": 1
  },
  "userdoc": {
    "errors": {
      "voteAlreadyEnded()": [
        {
          "notice": "The vote has already ended."
        }
      ],
      "voteNotYetEnded()": [
        {
          "notice": "The auction has not ended yet."
        }
      ]
    },
    "kind": "user",
    "methods": {
      "release(address)": {
        "notice": "Triggers a transfer to [account] of the amount of Ether they are owed, according to their percentage of the total shares and their previous withdrawals. IN REMIX THIS FUNCTION EXECUTES TRANSACTION BUT FAILS? ON LOCALHOST THIS FUNCTION COMPLETES"
      },
      "voteEndTime()": {
        "notice": "VOTING FUNCTIONALITY"
      }
    },
    "version": 1
  }
}