{
  "contractName": "splitter",
  "abi": [
    {
      "anonymous": false,
      "inputs": [
        {
          "indexed": true,
          "internalType": "address",
          "name": "owner",
          "type": "address"
        },
        {
          "indexed": true,
          "internalType": "address",
          "name": "spender",
          "type": "address"
        },
        {
          "indexed": false,
          "internalType": "uint256",
          "name": "value",
          "type": "uint256"
        }
      ],
      "name": "Approval",
      "type": "event"
    },
    {
      "anonymous": false,
      "inputs": [
        {
          "indexed": false,
          "internalType": "address",
          "name": "account",
          "type": "address"
        },
        {
          "indexed": false,
          "internalType": "uint256",
          "name": "shares",
          "type": "uint256"
        }
      ],
      "name": "PayeeAdded",
      "type": "event"
    },
    {
      "anonymous": false,
      "inputs": [
        {
          "indexed": false,
          "internalType": "address",
          "name": "from",
          "type": "address"
        },
        {
          "indexed": false,
          "internalType": "uint256",
          "name": "amount",
          "type": "uint256"
        }
      ],
      "name": "PaymentReceived",
      "type": "event"
    },
    {
      "anonymous": false,
      "inputs": [
        {
          "indexed": false,
          "internalType": "address",
          "name": "to",
          "type": "address"
        },
        {
          "indexed": false,
          "internalType": "uint256",
          "name": "amount",
          "type": "uint256"
        }
      ],
      "name": "PaymentReleased",
      "type": "event"
    },
    {
      "anonymous": false,
      "inputs": [
        {
          "indexed": true,
          "internalType": "address",
          "name": "from",
          "type": "address"
        },
        {
          "indexed": true,
          "internalType": "address",
          "name": "to",
          "type": "address"
        },
        {
          "indexed": false,
          "internalType": "uint256",
          "name": "value",
          "type": "uint256"
        }
      ],
      "name": "Transfer",
      "type": "event"
    },
    {
      "inputs": [
        {
          "internalType": "address",
          "name": "",
          "type": "address"
        },
        {
          "internalType": "address",
          "name": "",
          "type": "address"
        }
      ],
      "name": "_allowances",
      "outputs": [
        {
          "internalType": "uint256",
          "name": "",
          "type": "uint256"
        }
      ],
      "stateMutability": "view",
      "type": "function"
    },
    {
      "inputs": [
        {
          "internalType": "address",
          "name": "",
          "type": "address"
        }
      ],
      "name": "_balances",
      "outputs": [
        {
          "internalType": "uint256",
          "name": "",
          "type": "uint256"
        }
      ],
      "stateMutability": "view",
      "type": "function"
    },
    {
      "inputs": [],
      "name": "_fee",
      "outputs": [
        {
          "internalType": "uint256",
          "name": "",
          "type": "uint256"
        }
      ],
      "stateMutability": "view",
      "type": "function"
    },
    {
      "inputs": [
        {
          "internalType": "uint256",
          "name": "",
          "type": "uint256"
        }
      ],
      "name": "_payees",
      "outputs": [
        {
          "internalType": "address",
          "name": "",
          "type": "address"
        }
      ],
      "stateMutability": "view",
      "type": "function"
    },
    {
      "inputs": [
        {
          "internalType": "address",
          "name": "",
          "type": "address"
        }
      ],
      "name": "_released",
      "outputs": [
        {
          "internalType": "uint256",
          "name": "",
          "type": "uint256"
        }
      ],
      "stateMutability": "view",
      "type": "function"
    },
    {
      "inputs": [],
      "name": "_totalReleased",
      "outputs": [
        {
          "internalType": "uint256",
          "name": "",
          "type": "uint256"
        }
      ],
      "stateMutability": "view",
      "type": "function"
    },
    {
      "inputs": [],
      "name": "_totalSupply",
      "outputs": [
        {
          "internalType": "uint256",
          "name": "",
          "type": "uint256"
        }
      ],
      "stateMutability": "view",
      "type": "function"
    },
    {
      "inputs": [],
      "name": "_totalUserReleased",
      "outputs": [
        {
          "internalType": "uint256",
          "name": "",
          "type": "uint256"
        }
      ],
      "stateMutability": "view",
      "type": "function"
    },
    {
      "inputs": [
        {
          "internalType": "address",
          "name": "owner",
          "type": "address"
        },
        {
          "internalType": "address",
          "name": "spender",
          "type": "address"
        }
      ],
      "name": "allowance",
      "outputs": [
        {
          "internalType": "uint256",
          "name": "",
          "type": "uint256"
        }
      ],
      "stateMutability": "view",
      "type": "function"
    },
    {
      "inputs": [
        {
          "internalType": "address",
          "name": "spender",
          "type": "address"
        },
        {
          "internalType": "uint256",
          "name": "amount",
          "type": "uint256"
        }
      ],
      "name": "approve",
      "outputs": [
        {
          "internalType": "bool",
          "name": "",
          "type": "bool"
        }
      ],
      "stateMutability": "nonpayable",
      "type": "function"
    },
    {
      "inputs": [
        {
          "internalType": "address",
          "name": "account",
          "type": "address"
        }
      ],
      "name": "balanceOf",
      "outputs": [
        {
          "internalType": "uint256",
          "name": "",
          "type": "uint256"
        }
      ],
      "stateMutability": "view",
      "type": "function"
    },
    {
      "inputs": [],
      "name": "decimals",
      "outputs": [
        {
          "internalType": "uint8",
          "name": "",
          "type": "uint8"
        }
      ],
      "stateMutability": "view",
      "type": "function"
    },
    {
      "inputs": [
        {
          "internalType": "address",
          "name": "spender",
          "type": "address"
        },
        {
          "internalType": "uint256",
          "name": "subtractedValue",
          "type": "uint256"
        }
      ],
      "name": "decreaseAllowance",
      "outputs": [
        {
          "internalType": "bool",
          "name": "",
          "type": "bool"
        }
      ],
      "stateMutability": "nonpayable",
      "type": "function"
    },
    {
      "inputs": [],
      "name": "dividend",
      "outputs": [
        {
          "internalType": "uint256",
          "name": "",
          "type": "uint256"
        }
      ],
      "stateMutability": "view",
      "type": "function"
    },
    {
      "inputs": [],
      "name": "getBalance",
      "outputs": [
        {
          "internalType": "uint256",
          "name": "",
          "type": "uint256"
        }
      ],
      "stateMutability": "view",
      "type": "function"
    },
    {
      "inputs": [
        {
          "internalType": "address",
          "name": "spender",
          "type": "address"
        },
        {
          "internalType": "uint256",
          "name": "addedValue",
          "type": "uint256"
        }
      ],
      "name": "increaseAllowance",
      "outputs": [
        {
          "internalType": "bool",
          "name": "",
          "type": "bool"
        }
      ],
      "stateMutability": "nonpayable",
      "type": "function"
    },
    {
      "inputs": [],
      "name": "name",
      "outputs": [
        {
          "internalType": "string",
          "name": "",
          "type": "string"
        }
      ],
      "stateMutability": "view",
      "type": "function"
    },
    {
      "inputs": [
        {
          "internalType": "uint256",
          "name": "index",
          "type": "uint256"
        }
      ],
      "name": "payee",
      "outputs": [
        {
          "internalType": "address",
          "name": "",
          "type": "address"
        }
      ],
      "stateMutability": "view",
      "type": "function"
    },
    {
      "inputs": [
        {
          "internalType": "address",
          "name": "account",
          "type": "address"
        }
      ],
      "name": "released",
      "outputs": [
        {
          "internalType": "uint256",
          "name": "",
          "type": "uint256"
        }
      ],
      "stateMutability": "view",
      "type": "function"
    },
    {
      "inputs": [
        {
          "internalType": "address",
          "name": "account",
          "type": "address"
        }
      ],
      "name": "shares",
      "outputs": [
        {
          "internalType": "uint256",
          "name": "",
          "type": "uint256"
        }
      ],
      "stateMutability": "view",
      "type": "function"
    },
    {
      "inputs": [],
      "name": "symbol",
      "outputs": [
        {
          "internalType": "string",
          "name": "",
          "type": "string"
        }
      ],
      "stateMutability": "view",
      "type": "function"
    },
    {
      "inputs": [],
      "name": "totalReleased",
      "outputs": [
        {
          "internalType": "uint256",
          "name": "",
          "type": "uint256"
        }
      ],
      "stateMutability": "view",
      "type": "function"
    },
    {
      "inputs": [],
      "name": "totalSupply",
      "outputs": [
        {
          "internalType": "uint256",
          "name": "",
          "type": "uint256"
        }
      ],
      "stateMutability": "view",
      "type": "function"
    },
    {
      "inputs": [
        {
          "internalType": "address",
          "name": "sender",
          "type": "address"
        },
        {
          "internalType": "address",
          "name": "recipient",
          "type": "address"
        },
        {
          "internalType": "uint256",
          "name": "amount",
          "type": "uint256"
        }
      ],
      "name": "transferFrom",
      "outputs": [
        {
          "internalType": "bool",
          "name": "",
          "type": "bool"
        }
      ],
      "stateMutability": "nonpayable",
      "type": "function"
    },
    {
      "stateMutability": "payable",
      "type": "receive"
    },
    {
      "inputs": [
        {
          "internalType": "address",
          "name": "recipient",
          "type": "address"
        }
      ],
      "name": "transfer",
      "outputs": [],
      "stateMutability": "payable",
      "type": "function"
    },
    {
      "inputs": [
        {
          "internalType": "address",
          "name": "recipient",
          "type": "address"
        },
        {
          "internalType": "uint256",
          "name": "amount",
          "type": "uint256"
        }
      ],
      "name": "transfer",
      "outputs": [
        {
          "internalType": "bool",
          "name": "",
          "type": "bool"
        }
      ],
      "stateMutability": "nonpayable",
      "type": "function"
    },
    {
      "inputs": [
        {
          "internalType": "address payable",
          "name": "account",
          "type": "address"
        }
      ],
      "name": "userRelease",
      "outputs": [],
      "stateMutability": "nonpayable",
      "type": "function"
    },
    {
      "inputs": [
        {
          "internalType": "address payable",
          "name": "account",
          "type": "address"
        }
      ],
      "name": "release",
      "outputs": [],
      "stateMutability": "nonpayable",
      "type": "function"
    },
    {
      "inputs": [],
      "name": "contractDonation",
      "outputs": [],
      "stateMutability": "payable",
      "type": "function"
    },
    {
      "inputs": [
        {
          "internalType": "uint256",
          "name": "fee",
          "type": "uint256"
        }
      ],
      "name": "updateFee",
      "outputs": [],
      "stateMutability": "nonpayable",
      "type": "function"
    },
    {
      "inputs": [],
      "name": "getfee",
      "outputs": [
        {
          "internalType": "uint256",
          "name": "",
          "type": "uint256"
        }
      ],
      "stateMutability": "view",
      "type": "function"
    },
    {
      "inputs": [],
      "name": "owner",
      "outputs": [
        {
          "internalType": "address",
          "name": "",
          "type": "address"
        }
      ],
      "stateMutability": "view",
      "type": "function"
    },
    {
      "inputs": [
        {
          "internalType": "address",
          "name": "account",
          "type": "address"
        }
      ],
      "name": "getUserBalance",
      "outputs": [
        {
          "internalType": "uint256",
          "name": "",
          "type": "uint256"
        }
      ],
      "stateMutability": "view",
      "type": "function"
    },
    {
      "inputs": [],
      "name": "totalUserReleased",
      "outputs": [
        {
          "internalType": "uint256",
          "name": "",
          "type": "uint256"
        }
      ],
      "stateMutability": "nonpayable",
      "type": "function"
    },
    {
      "inputs": [
        {
          "internalType": "address",
          "name": "account",
          "type": "address"
        }
      ],
      "name": "releasedinit",
      "outputs": [
        {
          "internalType": "uint256",
          "name": "",
          "type": "uint256"
        }
      ],
      "stateMutability": "nonpayable",
      "type": "function"
    }
  ],
  "bytecode": "0x60806040526040518060400160405280600981526020017f44414f20746f6b656e0000000000000000000000000000000000000000000000815250600890805190602001906200005192919062000653565b506040518060400160405280600481526020017f7844414f00000000000000000000000000000000000000000000000000000000815250600990805190602001906200009f92919062000653565b506b033b2e3c9fd0803ce8000000600a556040518060200160405280735b38da6a701c568545dcfcb03fcb875f56beddc473ffffffffffffffffffffffffffffffffffffffff1673ffffffffffffffffffffffffffffffffffffffff16815250600b90600162000111929190620006e4565b5060405180602001604052806b033b2e3c9fd0803ce80000006bffffffffffffffffffffffff16815250600c9060016200014d92919062000773565b50600560105533601160006101000a81548173ffffffffffffffffffffffffffffffffffffffff021916908373ffffffffffffffffffffffffffffffffffffffff160217905550348015620001a157600080fd5b5060086003908054620001b490620008bb565b620001c1929190620007d5565b5060096004908054620001d490620008bb565b620001e1929190620007d5565b50620001f633600a546200033260201b60201c565b600c80549050600b805490501462000245576040517f08c379a00000000000000000000000000000000000000000000000000000000081526004016200023c9062000978565b60405180910390fd5b6000600b805490501162000290576040517f08c379a00000000000000000000000000000000000000000000000000000000081526004016200028790620009ea565b60405180910390fd5b60005b600b805490508110156200032b5762000315600b8281548110620002bc57620002bb62000a0c565b5b9060005260206000200160009054906101000a900473ffffffffffffffffffffffffffffffffffffffff16600c8381548110620002fe57620002fd62000a0c565b5b9060005260206000200154620004ab60201b60201c565b8080620003229062000a74565b91505062000293565b5062000d3b565b600073ffffffffffffffffffffffffffffffffffffffff168273ffffffffffffffffffffffffffffffffffffffff161415620003a5576040517f08c379a00000000000000000000000000000000000000000000000000000000081526004016200039c9062000b12565b60405180910390fd5b620003b9600083836200064960201b60201c565b8060026000828254620003cd919062000b34565b92505081905550806000808473ffffffffffffffffffffffffffffffffffffffff1673ffffffffffffffffffffffffffffffffffffffff168152602001908152602001600020600082825462000424919062000b34565b925050819055508173ffffffffffffffffffffffffffffffffffffffff16600073ffffffffffffffffffffffffffffffffffffffff167fddf252ad1be2c89b69c2b068fc378daa952ba7f163c4a11628f55a4df523b3ef836040516200048b919062000ba2565b60405180910390a3620004a7600083836200064e60201b60201c565b5050565b600073ffffffffffffffffffffffffffffffffffffffff168273ffffffffffffffffffffffffffffffffffffffff1614156200051e576040517f08c379a0000000000000000000000000000000000000000000000000000000008152600401620005159062000c35565b60405180910390fd5b6000811162000564576040517f08c379a00000000000000000000000000000000000000000000000000000000081526004016200055b9062000ca7565b60405180910390fd5b6007829080600181540180825580915050600190039060005260206000200160009091909190916101000a81548173ffffffffffffffffffffffffffffffffffffffff021916908373ffffffffffffffffffffffffffffffffffffffff160217905550806000808473ffffffffffffffffffffffffffffffffffffffff1673ffffffffffffffffffffffffffffffffffffffff168152602001908152602001600020819055507f40c340f65e17194d14ddddb073d3c9f888e3cb52b5aae0c6c7706b4fbc905fac82826040516200063d92919062000d0e565b60405180910390a15050565b505050565b505050565b8280546200066190620008bb565b90600052602060002090601f016020900481019282620006855760008555620006d1565b82601f10620006a057805160ff1916838001178555620006d1565b82800160010185558215620006d1579182015b82811115620006d0578251825591602001919060010190620006b3565b5b509050620006e091906200086d565b5090565b82805482825590600052602060002090810192821562000760579160200282015b828111156200075f5782518260006101000a81548173ffffffffffffffffffffffffffffffffffffffff021916908373ffffffffffffffffffffffffffffffffffffffff1602179055509160200191906001019062000705565b5b5090506200076f91906200086d565b5090565b828054828255906000526020600020908101928215620007c2579160200282015b82811115620007c157825182906bffffffffffffffffffffffff1690559160200191906001019062000794565b5b509050620007d191906200086d565b5090565b828054620007e390620008bb565b90600052602060002090601f0160209004810192826200080757600085556200085a565b82601f106200081a57805485556200085a565b828001600101855582156200085a57600052602060002091601f016020900482015b82811115620008595782548255916001019190600101906200083c565b5b5090506200086991906200086d565b5090565b5b80821115620008885760008160009055506001016200086e565b5090565b7f4e487b7100000000000000000000000000000000000000000000000000000000600052602260045260246000fd5b60006002820490506001821680620008d457607f821691505b60208210811415620008eb57620008ea6200088c565b5b50919050565b600082825260208201905092915050565b7f5061796d656e7453706c69747465723a2070617965657320616e64207368617260008201527f6573206c656e677468206d69736d617463680000000000000000000000000000602082015250565b600062000960603283620008f1565b91506200096d8262000902565b604082019050919050565b60006020820190508181036000830152620009938162000951565b9050919050565b7f5061796d656e7453706c69747465723a206e6f20706179656573000000000000600082015250565b6000620009d2601a83620008f1565b9150620009df826200099a565b602082019050919050565b6000602082019050818103600083015262000a0581620009c3565b9050919050565b7f4e487b7100000000000000000000000000000000000000000000000000000000600052603260045260246000fd5b7f4e487b7100000000000000000000000000000000000000000000000000000000600052601160045260246000fd5b6000819050919050565b600062000a818262000a6a565b91507fffffffffffffffffffffffffffffffffffffffffffffffffffffffffffffffff82141562000ab75762000ab662000a3b565b5b600182019050919050565b7f45524332303a206d696e7420746f20746865207a65726f206164647265737300600082015250565b600062000afa601f83620008f1565b915062000b078262000ac2565b602082019050919050565b6000602082019050818103600083015262000b2d8162000aeb565b9050919050565b600062000b418262000a6a565b915062000b4e8362000a6a565b9250827fffffffffffffffffffffffffffffffffffffffffffffffffffffffffffffffff0382111562000b865762000b8562000a3b565b5b828201905092915050565b62000b9c8162000a6a565b82525050565b600060208201905062000bb9600083018462000b91565b92915050565b7f5061796d656e7453706c69747465723a206163636f756e74206973207468652060008201527f7a65726f20616464726573730000000000000000000000000000000000000000602082015250565b600062000c1d602c83620008f1565b915062000c2a8262000bbf565b604082019050919050565b6000602082019050818103600083015262000c508162000c0e565b9050919050565b7f5061796d656e7453706c69747465723a20736861726573206172652030000000600082015250565b600062000c8f601d83620008f1565b915062000c9c8262000c57565b602082019050919050565b6000602082019050818103600083015262000cc28162000c80565b9050919050565b600073ffffffffffffffffffffffffffffffffffffffff82169050919050565b600062000cf68262000cc9565b9050919050565b62000d088162000ce9565b82525050565b600060408201905062000d25600083018562000cfd565b62000d34602083018462000b91565b9392505050565b612a978062000d4b6000396000f3fe6080604052600436106102085760003560e01c80634877268811610118578063a457c2d7116100a0578063db2b8d3c1161006f578063db2b8d3c14610833578063dd62ed3e1461083d578063e1b0311f1461087a578063e33b7de3146108b7578063f9ad7e7c146108e25761024f565b8063a457c2d714610751578063a9059cbb1461078e578063c5b37c22146107cb578063ce7c2ac2146107f65761024f565b80638b83209b116100e75780638b83209b146106585780638da5cb5b146106955780639012c4a8146106c057806395d89b41146106e95780639852595c146107145761024f565b8063487726881461058a57806365ab9531146105b35780636ebcf607146105de57806370a082311461061b5761024f565b80631a6952301161019b578063395093511161016a578063395093511461048f5780633a7d7d39146104cc5780633eaaf86b146104f757806344779d2314610522578063477348921461054d5761024f565b80631a695230146103ce57806323b872dd146103ea578063283248be14610427578063313ce567146104645761024f565b80630ff8cf9b116101d75780630ff8cf9b1461032457806312065fe01461034f57806318160ddd1461037a57806319165587146103a55761024f565b8063024c2ddd1461025457806306fdde0314610291578063095ea7b3146102bc5780630cda45c8146102f95761024f565b3661024f577f6ef95f06320e7a25a04a175ca677b7052bdd97131872c2192525a629f51be77061023661091f565b34604051610245929190611c8a565b60405180910390a1005b600080fd5b34801561026057600080fd5b5061027b60048036038101906102769190611ce4565b610927565b6040516102889190611d24565b60405180910390f35b34801561029d57600080fd5b506102a661094c565b6040516102b39190611dd8565b60405180910390f35b3480156102c857600080fd5b506102e360048036038101906102de9190611e26565b6109de565b6040516102f09190611e81565b60405180910390f35b34801561030557600080fd5b5061030e6109fc565b60405161031b9190611d24565b60405180910390f35b34801561033057600080fd5b50610339610a06565b6040516103469190611d24565b60405180910390f35b34801561035b57600080fd5b50610364610a0c565b6040516103719190611d24565b60405180910390f35b34801561038657600080fd5b5061038f610a14565b60405161039c9190611d24565b60405180910390f35b3480156103b157600080fd5b506103cc60048036038101906103c79190611eda565b610a1e565b005b6103e860048036038101906103e39190611f07565b610c53565b005b3480156103f657600080fd5b50610411600480360381019061040c9190611f34565b610cac565b60405161041e9190611e81565b60405180910390f35b34801561043357600080fd5b5061044e60048036038101906104499190611f87565b610da4565b60405161045b9190611fb4565b60405180910390f35b34801561047057600080fd5b50610479610de3565b6040516104869190611feb565b60405180910390f35b34801561049b57600080fd5b506104b660048036038101906104b19190611e26565b610dec565b6040516104c39190611e81565b60405180910390f35b3480156104d857600080fd5b506104e1610e98565b6040516104ee9190611d24565b60405180910390f35b34801561050357600080fd5b5061050c610e9e565b6040516105199190611d24565b60405180910390f35b34801561052e57600080fd5b50610537610ea4565b6040516105449190611d24565b60405180910390f35b34801561055957600080fd5b50610574600480360381019061056f9190611f07565b610eae565b6040516105819190611d24565b60405180910390f35b34801561059657600080fd5b506105b160048036038101906105ac9190611eda565b610ef7565b005b3480156105bf57600080fd5b506105c86110e8565b6040516105d59190611d24565b60405180910390f35b3480156105ea57600080fd5b5061060560048036038101906106009190611f07565b6110ee565b6040516106129190611d24565b60405180910390f35b34801561062757600080fd5b50610642600480360381019061063d9190611f07565b611106565b60405161064f9190611d24565b60405180910390f35b34801561066457600080fd5b5061067f600480360381019061067a9190611f87565b61114e565b60405161068c9190611fb4565b60405180910390f35b3480156106a157600080fd5b506106aa611196565b6040516106b79190611fb4565b60405180910390f35b3480156106cc57600080fd5b506106e760048036038101906106e29190611f87565b6111c0565b005b3480156106f557600080fd5b506106fe61129e565b60405161070b9190611dd8565b60405180910390f35b34801561072057600080fd5b5061073b60048036038101906107369190611f07565b611330565b6040516107489190611d24565b60405180910390f35b34801561075d57600080fd5b5061077860048036038101906107739190611e26565b611379565b6040516107859190611e81565b60405180910390f35b34801561079a57600080fd5b506107b560048036038101906107b09190611e26565b611464565b6040516107c29190611e81565b60405180910390f35b3480156107d757600080fd5b506107e0611482565b6040516107ed9190611d24565b60405180910390f35b34801561080257600080fd5b5061081d60048036038101906108189190611f07565b611488565b60405161082a9190611d24565b60405180910390f35b61083b6114d0565b005b34801561084957600080fd5b50610864600480360381019061085f9190611ce4565b6114eb565b6040516108719190611d24565b60405180910390f35b34801561088657600080fd5b506108a1600480360381019061089c9190611f07565b611572565b6040516108ae9190611d24565b60405180910390f35b3480156108c357600080fd5b506108cc61158a565b6040516108d99190611d24565b60405180910390f35b3480156108ee57600080fd5b5061090960048036038101906109049190611f07565b611594565b6040516109169190611d24565b60405180910390f35b600033905090565b6001602052816000526040600020602052806000526040600020600091509150505481565b60606003805461095b90612035565b80601f016020809104026020016040519081016040528092919081815260200182805461098790612035565b80156109d45780601f106109a9576101008083540402835291602001916109d4565b820191906000526020600020905b8154815290600101906020018083116109b757829003601f168201915b5050505050905090565b60006109f26109eb61091f565b84846115dd565b6001905092915050565b6000601054905090565b60125481565b600047905090565b6000600254905090565b60008060008373ffffffffffffffffffffffffffffffffffffffff1673ffffffffffffffffffffffffffffffffffffffff1681526020019081526020016000205411610a9f576040517f08c379a0000000000000000000000000000000000000000000000000000000008152600401610a96906120d9565b60405180910390fd5b6000600554601254610ab19190612128565b90506000600660008473ffffffffffffffffffffffffffffffffffffffff1673ffffffffffffffffffffffffffffffffffffffff168152602001908152602001600020546002546000808673ffffffffffffffffffffffffffffffffffffffff1673ffffffffffffffffffffffffffffffffffffffff1681526020019081526020016000205484610b42919061217e565b610b4c9190612207565b610b569190612238565b90506000811415610b9c576040517f08c379a0000000000000000000000000000000000000000000000000000000008152600401610b93906122de565b60405180910390fd5b80600660008573ffffffffffffffffffffffffffffffffffffffff1673ffffffffffffffffffffffffffffffffffffffff1681526020019081526020016000206000828254610beb9190612128565b925050819055508060056000828254610c049190612128565b92505081905550610c1583826117a8565b7fdf20fd1e76bc69d672e4814fafb2c449bba3a5369d8359adf9e05e6fde87b0568382604051610c4692919061235d565b60405180910390a1505050565b34600d60008373ffffffffffffffffffffffffffffffffffffffff1673ffffffffffffffffffffffffffffffffffffffff1681526020019081526020016000206000828254610ca29190612128565b9250508190555050565b6000610cb984848461189c565b6000600160008673ffffffffffffffffffffffffffffffffffffffff1673ffffffffffffffffffffffffffffffffffffffff1681526020019081526020016000206000610d0461091f565b73ffffffffffffffffffffffffffffffffffffffff1673ffffffffffffffffffffffffffffffffffffffff16815260200190815260200160002054905082811015610d84576040517f08c379a0000000000000000000000000000000000000000000000000000000008152600401610d7b906123f8565b60405180910390fd5b610d9885610d9061091f565b8584036115dd565b60019150509392505050565b60078181548110610db457600080fd5b906000526020600020016000915054906101000a900473ffffffffffffffffffffffffffffffffffffffff1681565b60006012905090565b6000610e8e610df961091f565b848460016000610e0761091f565b73ffffffffffffffffffffffffffffffffffffffff1673ffffffffffffffffffffffffffffffffffffffff16815260200190815260200160002060008873ffffffffffffffffffffffffffffffffffffffff1673ffffffffffffffffffffffffffffffffffffffff16815260200190815260200160002054610e899190612128565b6115dd565b6001905092915050565b60055481565b60025481565b6000600f54905090565b6000600d60008373ffffffffffffffffffffffffffffffffffffffff1673ffffffffffffffffffffffffffffffffffffffff168152602001908152602001600020549050919050565b6000600d60008373ffffffffffffffffffffffffffffffffffffffff1673ffffffffffffffffffffffffffffffffffffffff1681526020019081526020016000205411610f79576040517f08c379a0000000000000000000000000000000000000000000000000000000008152600401610f709061248a565b60405180910390fd5b6000600f5447610f899190612128565b9050600060646010546064610f9e9190612238565b600d60008673ffffffffffffffffffffffffffffffffffffffff1673ffffffffffffffffffffffffffffffffffffffff16815260200190815260200160002054610fe8919061217e565b610ff29190612207565b90506000811415611038576040517f08c379a000000000000000000000000000000000000000000000000000000000815260040161102f906122de565b60405180910390fd5b606460105483611048919061217e565b6110529190612207565b601260008282546110639190612128565b9250508190555080600e60008573ffffffffffffffffffffffffffffffffffffffff1673ffffffffffffffffffffffffffffffffffffffff16815260200190815260200160002060008282546110b99190612128565b9250508190555080600f60008282546110d29190612128565b925050819055506110e383826117a8565b505050565b600f5481565b60006020528060005260406000206000915090505481565b60008060008373ffffffffffffffffffffffffffffffffffffffff1673ffffffffffffffffffffffffffffffffffffffff168152602001908152602001600020549050919050565b600060078281548110611164576111636124aa565b5b9060005260206000200160009054906101000a900473ffffffffffffffffffffffffffffffffffffffff169050919050565b6000601160009054906101000a900473ffffffffffffffffffffffffffffffffffffffff16905090565b601160009054906101000a900473ffffffffffffffffffffffffffffffffffffffff1673ffffffffffffffffffffffffffffffffffffffff163373ffffffffffffffffffffffffffffffffffffffff1614611250576040517f08c379a000000000000000000000000000000000000000000000000000000000815260040161124790612525565b60405180910390fd5b600a811115611294576040517f08c379a000000000000000000000000000000000000000000000000000000000815260040161128b90612591565b60405180910390fd5b8060108190555050565b6060600480546112ad90612035565b80601f01602080910402602001604051908101604052809291908181526020018280546112d990612035565b80156113265780601f106112fb57610100808354040283529160200191611326565b820191906000526020600020905b81548152906001019060200180831161130957829003601f168201915b5050505050905090565b6000600660008373ffffffffffffffffffffffffffffffffffffffff1673ffffffffffffffffffffffffffffffffffffffff168152602001908152602001600020549050919050565b6000806001600061138861091f565b73ffffffffffffffffffffffffffffffffffffffff1673ffffffffffffffffffffffffffffffffffffffff16815260200190815260200160002060008573ffffffffffffffffffffffffffffffffffffffff1673ffffffffffffffffffffffffffffffffffffffff16815260200190815260200160002054905082811015611445576040517f08c379a000000000000000000000000000000000000000000000000000000000815260040161143c90612623565b60405180910390fd5b61145961145061091f565b858584036115dd565b600191505092915050565b600061147861147161091f565b848461189c565b6001905092915050565b60105481565b60008060008373ffffffffffffffffffffffffffffffffffffffff1673ffffffffffffffffffffffffffffffffffffffff168152602001908152602001600020549050919050565b34601260008282546114e29190612128565b92505081905550565b6000600160008473ffffffffffffffffffffffffffffffffffffffff1673ffffffffffffffffffffffffffffffffffffffff16815260200190815260200160002060008373ffffffffffffffffffffffffffffffffffffffff1673ffffffffffffffffffffffffffffffffffffffff16815260200190815260200160002054905092915050565b60066020528060005260406000206000915090505481565b6000600554905090565b6000600e60008373ffffffffffffffffffffffffffffffffffffffff1673ffffffffffffffffffffffffffffffffffffffff168152602001908152602001600020549050919050565b600073ffffffffffffffffffffffffffffffffffffffff168373ffffffffffffffffffffffffffffffffffffffff16141561164d576040517f08c379a0000000000000000000000000000000000000000000000000000000008152600401611644906126b5565b60405180910390fd5b600073ffffffffffffffffffffffffffffffffffffffff168273ffffffffffffffffffffffffffffffffffffffff1614156116bd576040517f08c379a00000000000000000000000000000000000000000000000000000000081526004016116b490612747565b60405180910390fd5b80600160008573ffffffffffffffffffffffffffffffffffffffff1673ffffffffffffffffffffffffffffffffffffffff16815260200190815260200160002060008473ffffffffffffffffffffffffffffffffffffffff1673ffffffffffffffffffffffffffffffffffffffff168152602001908152602001600020819055508173ffffffffffffffffffffffffffffffffffffffff168373ffffffffffffffffffffffffffffffffffffffff167f8c5be1e5ebec7d5bd14f71427d1e84f3dd0314c0f7b2291e5b200ac8c7c3b9258360405161179b9190611d24565b60405180910390a3505050565b804710156117eb576040517f08c379a00000000000000000000000000000000000000000000000000000000081526004016117e2906127b3565b60405180910390fd5b60008273ffffffffffffffffffffffffffffffffffffffff168260405161181190612804565b60006040518083038185875af1925050503d806000811461184e576040519150601f19603f3d011682016040523d82523d6000602084013e611853565b606091505b5050905080611897576040517f08c379a000000000000000000000000000000000000000000000000000000000815260040161188e9061288b565b60405180910390fd5b505050565b600073ffffffffffffffffffffffffffffffffffffffff168373ffffffffffffffffffffffffffffffffffffffff16141561190c576040517f08c379a00000000000000000000000000000000000000000000000000000000081526004016119039061291d565b60405180910390fd5b600073ffffffffffffffffffffffffffffffffffffffff168273ffffffffffffffffffffffffffffffffffffffff16141561197c576040517f08c379a0000000000000000000000000000000000000000000000000000000008152600401611973906129af565b60405180910390fd5b611987838383611c26565b60008060008573ffffffffffffffffffffffffffffffffffffffff1673ffffffffffffffffffffffffffffffffffffffff16815260200190815260200160002054905081811015611a0d576040517f08c379a0000000000000000000000000000000000000000000000000000000008152600401611a0490612a41565b60405180910390fd5b8181036000808673ffffffffffffffffffffffffffffffffffffffff1673ffffffffffffffffffffffffffffffffffffffff16815260200190815260200160002081905550816000808573ffffffffffffffffffffffffffffffffffffffff1673ffffffffffffffffffffffffffffffffffffffff1681526020019081526020016000206000828254611aa09190612128565b925050819055506007839080600181540180825580915050600190039060005260206000200160009091909190916101000a81548173ffffffffffffffffffffffffffffffffffffffff021916908373ffffffffffffffffffffffffffffffffffffffff1602179055508273ffffffffffffffffffffffffffffffffffffffff168473ffffffffffffffffffffffffffffffffffffffff167fddf252ad1be2c89b69c2b068fc378daa952ba7f163c4a11628f55a4df523b3ef84604051611b679190611d24565b60405180910390a3611b7a848484611c2b565b6007839080600181540180825580915050600190039060005260206000200160009091909190916101000a81548173ffffffffffffffffffffffffffffffffffffffff021916908373ffffffffffffffffffffffffffffffffffffffff160217905550816000808573ffffffffffffffffffffffffffffffffffffffff1673ffffffffffffffffffffffffffffffffffffffff1681526020019081526020016000208190555050505050565b505050565b505050565b600073ffffffffffffffffffffffffffffffffffffffff82169050919050565b6000611c5b82611c30565b9050919050565b611c6b81611c50565b82525050565b6000819050919050565b611c8481611c71565b82525050565b6000604082019050611c9f6000830185611c62565b611cac6020830184611c7b565b9392505050565b600080fd5b611cc181611c50565b8114611ccc57600080fd5b50565b600081359050611cde81611cb8565b92915050565b60008060408385031215611cfb57611cfa611cb3565b5b6000611d0985828601611ccf565b9250506020611d1a85828601611ccf565b9150509250929050565b6000602082019050611d396000830184611c7b565b92915050565b600081519050919050565b600082825260208201905092915050565b60005b83811015611d79578082015181840152602081019050611d5e565b83811115611d88576000848401525b50505050565b6000601f19601f8301169050919050565b6000611daa82611d3f565b611db48185611d4a565b9350611dc4818560208601611d5b565b611dcd81611d8e565b840191505092915050565b60006020820190508181036000830152611df28184611d9f565b905092915050565b611e0381611c71565b8114611e0e57600080fd5b50565b600081359050611e2081611dfa565b92915050565b60008060408385031215611e3d57611e3c611cb3565b5b6000611e4b85828601611ccf565b9250506020611e5c85828601611e11565b9150509250929050565b60008115159050919050565b611e7b81611e66565b82525050565b6000602082019050611e966000830184611e72565b92915050565b6000611ea782611c30565b9050919050565b611eb781611e9c565b8114611ec257600080fd5b50565b600081359050611ed481611eae565b92915050565b600060208284031215611ef057611eef611cb3565b5b6000611efe84828501611ec5565b91505092915050565b600060208284031215611f1d57611f1c611cb3565b5b6000611f2b84828501611ccf565b91505092915050565b600080600060608486031215611f4d57611f4c611cb3565b5b6000611f5b86828701611ccf565b9350506020611f6c86828701611ccf565b9250506040611f7d86828701611e11565b9150509250925092565b600060208284031215611f9d57611f9c611cb3565b5b6000611fab84828501611e11565b91505092915050565b6000602082019050611fc96000830184611c62565b92915050565b600060ff82169050919050565b611fe581611fcf565b82525050565b60006020820190506120006000830184611fdc565b92915050565b7f4e487b7100000000000000000000000000000000000000000000000000000000600052602260045260246000fd5b6000600282049050600182168061204d57607f821691505b6020821081141561206157612060612006565b5b50919050565b7f5061796d656e7453706c69747465723a206163636f756e7420686173206e6f2060008201527f7368617265730000000000000000000000000000000000000000000000000000602082015250565b60006120c3602683611d4a565b91506120ce82612067565b604082019050919050565b600060208201905081810360008301526120f2816120b6565b9050919050565b7f4e487b7100000000000000000000000000000000000000000000000000000000600052601160045260246000fd5b600061213382611c71565b915061213e83611c71565b9250827fffffffffffffffffffffffffffffffffffffffffffffffffffffffffffffffff03821115612173576121726120f9565b5b828201905092915050565b600061218982611c71565b915061219483611c71565b9250817fffffffffffffffffffffffffffffffffffffffffffffffffffffffffffffffff04831182151516156121cd576121cc6120f9565b5b828202905092915050565b7f4e487b7100000000000000000000000000000000000000000000000000000000600052601260045260246000fd5b600061221282611c71565b915061221d83611c71565b92508261222d5761222c6121d8565b5b828204905092915050565b600061224382611c71565b915061224e83611c71565b925082821015612261576122606120f9565b5b828203905092915050565b7f5061796d656e7453706c69747465723a206163636f756e74206973206e6f742060008201527f647565207061796d656e74000000000000000000000000000000000000000000602082015250565b60006122c8602b83611d4a565b91506122d38261226c565b604082019050919050565b600060208201905081810360008301526122f7816122bb565b9050919050565b6000819050919050565b600061232361231e61231984611c30565b6122fe565b611c30565b9050919050565b600061233582612308565b9050919050565b60006123478261232a565b9050919050565b6123578161233c565b82525050565b6000604082019050612372600083018561234e565b61237f6020830184611c7b565b9392505050565b7f45524332303a207472616e7366657220616d6f756e742065786365656473206160008201527f6c6c6f77616e6365000000000000000000000000000000000000000000000000602082015250565b60006123e2602883611d4a565b91506123ed82612386565b604082019050919050565b60006020820190508181036000830152612411816123d5565b9050919050565b7f5061796d656e7453706c69747465723a206163636f756e742062616c616e636560008201527f2069732030000000000000000000000000000000000000000000000000000000602082015250565b6000612474602583611d4a565b915061247f82612418565b604082019050919050565b600060208201905081810360008301526124a381612467565b9050919050565b7f4e487b7100000000000000000000000000000000000000000000000000000000600052603260045260246000fd5b7f4f6e6c7920746865206f776e6572000000000000000000000000000000000000600082015250565b600061250f600e83611d4a565b915061251a826124d9565b602082019050919050565b6000602082019050818103600083015261253e81612502565b9050919050565b7f466565206d757374206e6f7420626520686967686572207468616e2031302500600082015250565b600061257b601f83611d4a565b915061258682612545565b602082019050919050565b600060208201905081810360008301526125aa8161256e565b9050919050565b7f45524332303a2064656372656173656420616c6c6f77616e63652062656c6f7760008201527f207a65726f000000000000000000000000000000000000000000000000000000602082015250565b600061260d602583611d4a565b9150612618826125b1565b604082019050919050565b6000602082019050818103600083015261263c81612600565b9050919050565b7f45524332303a20617070726f76652066726f6d20746865207a65726f2061646460008201527f7265737300000000000000000000000000000000000000000000000000000000602082015250565b600061269f602483611d4a565b91506126aa82612643565b604082019050919050565b600060208201905081810360008301526126ce81612692565b9050919050565b7f45524332303a20617070726f766520746f20746865207a65726f20616464726560008201527f7373000000000000000000000000000000000000000000000000000000000000602082015250565b6000612731602283611d4a565b915061273c826126d5565b604082019050919050565b6000602082019050818103600083015261276081612724565b9050919050565b7f416464726573733a20696e73756666696369656e742062616c616e6365000000600082015250565b600061279d601d83611d4a565b91506127a882612767565b602082019050919050565b600060208201905081810360008301526127cc81612790565b9050919050565b600081905092915050565b50565b60006127ee6000836127d3565b91506127f9826127de565b600082019050919050565b600061280f826127e1565b9150819050919050565b7f416464726573733a20756e61626c6520746f2073656e642076616c75652c207260008201527f6563697069656e74206d61792068617665207265766572746564000000000000602082015250565b6000612875603a83611d4a565b915061288082612819565b604082019050919050565b600060208201905081810360008301526128a481612868565b9050919050565b7f45524332303a207472616e736665722066726f6d20746865207a65726f20616460008201527f6472657373000000000000000000000000000000000000000000000000000000602082015250565b6000612907602583611d4a565b9150612912826128ab565b604082019050919050565b60006020820190508181036000830152612936816128fa565b9050919050565b7f45524332303a207472616e7366657220746f20746865207a65726f206164647260008201527f6573730000000000000000000000000000000000000000000000000000000000602082015250565b6000612999602383611d4a565b91506129a48261293d565b604082019050919050565b600060208201905081810360008301526129c88161298c565b9050919050565b7f45524332303a207472616e7366657220616d6f756e742065786365656473206260008201527f616c616e63650000000000000000000000000000000000000000000000000000602082015250565b6000612a2b602683611d4a565b9150612a36826129cf565b604082019050919050565b60006020820190508181036000830152612a5a81612a1e565b905091905056fea2646970667358221220f3d660fa38f9fe835542725c53a5628b68f0c1d4204a79e9d8d891cf8456631664736f6c634300080a0033",
  "immutableReferences": {},
  "source": "// SPDX-License-Identifier: MIT\npragma solidity ^0.8.0;\n\n\nimport \"./ERC20/ERC20.sol\";\n\n\ncontract splitter is ERC20 {\n    \n    \n    mapping(address => uint256) private _userBalance;\n    mapping(address => uint256) private _userReleased;\n    uint256 public _totalUserReleased;\n    \n    // this variable can be changed by the endVote function\n    uint256 public _fee = 5; \n    address private _owner = msg.sender;\n    \n    uint256 public dividend;\n    \n\n    function transfer(address recipient) public payable {\n        _userBalance[recipient]+=msg.value;\n    }\n\n\n    function userRelease(address payable account) public virtual {\n        \n        require(_userBalance[account] > 0, \"PaymentSplitter: account balance is 0\");\n        \n        uint256 totalReceived = address(this).balance + _totalUserReleased;\n        uint256 payment = (_userBalance[account] * (100 - _fee)) / 100;\n\n        require(payment != 0, \"PaymentSplitter: account is not due payment\");\n        \n        dividend += (totalReceived * _fee) / 100;\n\n        _userReleased[account] += payment;\n        _totalUserReleased += payment;\n\n        Address.sendValue(account, payment);\n    }\n\n\n\n    /** Triggers a transfer to [account] of the amount of Ether they are owed, according to their percentage of the\n        total shares and their previous withdrawals.\n\n    */\n    function release(address payable account) public virtual {\n        require(_balances[account] > 0, \"PaymentSplitter: account has no shares\");\n\n        uint256 totalReceived = dividend + _totalReleased;\n        uint256 payment = (totalReceived * _balances[account]) / _totalSupply - _released[account];\n\n        require(payment != 0, \"PaymentSplitter: account is not due payment\");\n\n        _released[account] += payment;\n        _totalReleased += payment;\n\n        Address.sendValue(account, payment);\n        emit PaymentReleased(account, payment);\n    }\n\n\n    // make a donation function to share holders \n    function contractDonation() public payable {\n        dividend += msg.value;\n    }\n\n\n    // function updateFee will eventually be deleted \n    function updateFee(uint256 fee) public {\n        require(msg.sender == _owner, \"Only the owner\");\n        require(fee <= 10, \"Fee must not be higher than 10%\");\n        _fee = fee;\n    }\n    \n\n    function getfee() public view returns (uint256) {\n        return _fee;\n    }\n    \n\n    function owner() public view returns (address) {\n        return _owner;\n    }\n    \n    \n    function getUserBalance(address account) public view returns(uint256){\n        return _userBalance[account];\n    }\n    \n    \n    function totalUserReleased() public virtual returns (uint256) {\n        return _totalUserReleased;\n    }\n\n    // @dev - weird function consider editing or deleting\n    function releasedinit(address account) public virtual returns (uint256) {\n        return _userReleased[account];\n    }\n\n}",
  "sourcePath": "/home/ubuntu/Desktop/dev/DividendPayingDAO/contracts/splitter.sol",
  "compiler": {
    "name": "solc",
    "version": "0.8.10+commit.fc410830.Emscripten.clang"
  },
  "schemaVersion": "3.4.3",
  "updatedAt": "2021-11-19T10:11:28.327Z",
  "devdoc": {
    "kind": "dev",
    "methods": {
      "allowance(address,address)": {
        "details": "Returns the remaining number of tokens that `spender` will be allowed to spend on behalf of `owner` through {transferFrom}. This is zero by default. This value changes when {approve} or {transferFrom} are called."
      },
      "approve(address,uint256)": {
        "details": "Sets `amount` as the allowance of `spender` over the caller's tokens. Returns a boolean value indicating whether the operation succeeded. IMPORTANT: Beware that changing an allowance with this method brings the risk that someone may use both the old and the new allowance by unfortunate transaction ordering. One possible solution to mitigate this race condition is to first reduce the spender's allowance to 0 and set the desired value afterwards: https://github.com/ethereum/EIPs/issues/20#issuecomment-263524729 Emits an {Approval} event."
      },
      "balanceOf(address)": {
        "details": "Returns the amount of tokens owned by `account`."
      },
      "decimals()": {
        "details": "Returns the decimals places of the token."
      },
      "name()": {
        "details": "Returns the name of the token."
      },
      "symbol()": {
        "details": "Returns the symbol of the token."
      },
      "totalSupply()": {
        "details": "Returns the amount of tokens in existence."
      },
      "transfer(address,uint256)": {
        "details": "Moves `amount` tokens from the caller's account to `recipient`. Returns a boolean value indicating whether the operation succeeded. Emits a {Transfer} event."
      },
      "transferFrom(address,address,uint256)": {
        "details": "Moves `amount` tokens from `sender` to `recipient` using the allowance mechanism. `amount` is then deducted from the caller's allowance. Returns a boolean value indicating whether the operation succeeded. Emits a {Transfer} event."
      }
    },
    "version": 1
  },
  "userdoc": {
    "kind": "user",
    "methods": {
      "release(address)": {
        "notice": "Triggers a transfer to [account] of the amount of Ether they are owed, according to their percentage of the total shares and their previous withdrawals."
      }
    },
    "version": 1
  }
}